:020000040800F2
:10000000800B00200D020008BF2100088D1F000892
:10001000BD2100083D030008572B00080000000028
:10002000000000000000000000000000CD230008D8
:100030003F03000800000000E3210008CF23000870
:1000400027020008270200082702000827020008EC
:10005000270200082702000865040008F1040008D0
:1000600027020008270200082702000827020008CC
:1000700027020008270200082702000827020008BC
:1000800027020008270200082702000827020008AC
:10009000270200082702000827020008270200089C
:1000A000270200082702000827020008270200088C
:1000B000270200082702000827020008270200087C
:1000C000270200082702000827020008270200086C
:1000D000270200082702000827020008270200085C
:1000E000270200082702000827020008270200084C
:1000F000270200082702000827020008270200083C
:10010000270200082702000827020008270200082B
:10011000270200082702000827020008270200081B
:10012000270200082702000827020008270200080B
:1001300027020008270200082702000827020008FB
:1001400027020008270200082702000827020008EB
:1001500027020008270200082702000827020008DB
:1001600027020008270200082702000827020008CB
:1001700027020008270200082702000800000000EC
:1001800027020008270200082702000827020008AB
:10019000270200082702000827020008270200089B
:1001A000270200082702000827020008270200088B
:1001B000270200082702000827020008270200087B
:1001C000270200082702000800000000270200089C
:1001D000270200082702000827020008270200085B
:1001E000270200082702000827020008270200084B
:1001F0002702000827020008DFF80CD000F08CF876
:100200000048004799330008800B002006488047CB
:1002100006480047FEE7FEE7FEE7FEE7FEE7FEE7EB
:10022000FEE7FEE7FEE7FEE77D240008F90100088F
:100230002DE9F05F0546002092469B46884606461B
:10024000814640241BE0284641464746224600F0AE
:1002500053F853465A46C01A914110D311461846D6
:10026000224600F03AF82D1A67EB01084F46224665
:100270000120002100F031F817EB00094E41201E4B
:10028000A4F10104DFDC484631462A464346BDE876
:10029000F09F40EA01039B0703D009E008C9121F41
:1002A00008C0042AFAD203E011F8013B00F8013B30
:1002B000521EF9D27047D2B201E000F8012B491E5C
:1002C000FBD270470022F6E710B513460A460446F3
:1002D0001946FFF7F0FF204610BD202A04DB203A24
:1002E00000FA02F1002070479140C2F1200320FA89
:1002F00003F3194390407047202A04DB203A21FA87
:1003000002F00021704721FA02F3D040C2F120022E
:100310009140084319467047064C074D06E0E068D7
:1003200040F0010394E8070098471034AC42F6D33C
:10033000FFF766FF984F0008B84F0008FEE77047C8
:100340002DE9F041044621B14FF40061C800C4E931
:100350000201E0690025002862D028462368D4E91C
:10036000021C3A4F40261A6841EA0C0101433A4008
:1003700041F400701043186020680768012000F005
:10038000BBF8206807602068466020684668012046
:1003900000F0B2F820684FF6417246602068856030
:1003A0002068C56021688869104040F0800088613D
:1003B00020688669012000F09FF820688661206827
:1003C000C5612068C569012000F096F82068204BBF
:1003D0002049C561206800F5805082691A401143A8
:1003E0008161206800F580508569012000F084F863
:1003F0002068194900F580508561206800F580501B
:100400000160206800F580500568012000F074F854
:10041000206800F580500560A069012803D009E03C
:100420004FF480609AE720680C4A00F58050C1695B
:100430001143C16160690A4982880A640278D0F870
:10044000010042EA00204864BDE8F0810F8120FFEE
:10045000233FDEF8040020028020C102400001009A
:100460000080024070B51C4C1C4D2068B0F57A7FAE
:1004700006DD4FF48041284600F036FB0020206066
:10048000401C20601648006801281FD1154A1649F3
:10049000164802F0B5FB154C4FF4C776B4F90000CE
:1004A000C730B04201D8012200E0002228460121D5
:1004B00000F01EFBB4F90200C730B04201D801229F
:1004C00000E000222846802100F012FBBDE87040C9
:1004D000012000F011BA00003800002000040240A2
:1004E0000400002008000020320000202C00002022
:1004F000022000F001BA000070B5044600F0FEFAD8
:100500000546601C02D004480078044400F0F6FA66
:10051000401BA042FAD370BD3C0000202DE9FC47EF
:100520004FF000060400B146009603D094F8440052
:1005300018B107E00120BDE8FC87204684F845603B
:1005400000F0E4F86748016841F480410160006808
:1005500000F4804001906448016821F400010160CA
:100560000168226A11430160206800F5805001682B
:1005700041F00101016000F0C1FA4FF4FA7705463D
:1005800009E000BF00F0BAFA401BB84203D90320CB
:1005900084F8440068E0206800F580500068C007D7
:1005A000F0D12068006920F01C0500F06BFF4F4A75
:1005B0004F4902448A4202D245F0080516E04D49EF
:1005C0004D4A0144914202D245F00C050EE04B4ADF
:1005D0004B4902448A4209D34A4A4B491044884253
:1005E00002D245F0040501E045F0100520680561E0
:1005F00000214FF40042204600F040F94FF0010581
:10060000B0BBFF20FFF778FF606890B300F076FA88
:10061000804641F2883701216A46204600F0EAF818
:1006200000F06CFAA0EB0800B84217D80098400719
:10063000F1D5002120464FF4805200F01FF9B8B9DF
:1006400000F05CFA80466A460121204600F0D2F8AC
:1006500000F054FAA0EB0800B8420BD90121204663
:10066000FFF76EFE84F84450032084F8456062E78B
:1006700024E018E000988006E5D51F216A46204650
:1006800000F0B8F8D0B90098C10603D54FF4006166
:10069000E16000E0E660400701D5A66019E04FF494
:1006A0008040A06015E0D4E90210C00840EA510083
:1006B00082B22046002100F0E1F830B1012120464D
:1006C000FFF73EFE84F8445034E740F6FF70FFF732
:1006D00013FF49462046FFF733FE84F844500020BC
:1006E00029E70000443802400438014000D3CEFE20
:1006F000C0E1E40040F1E9FD40787D0100796CFC47
:10070000005A6202001F0AFA80F0FA02F0B587B0C0
:10071000044614216846FFF7D5FD30492068884219
:1007200059D12F48016841F000710160016801F062
:1007300000710591016841F080610160016801F07C
:1007400080610591016841F000610160016801F07C
:1007500000610591016841F004010160016801F048
:1007600004010591016841F001010160016801F097
:1007700001010591016841F002010160016801F089
:1007800002010591016841F0400101600068022406
:100790000025694600F04000059003260B27322013
:1007A0008DE8F1000F4800F0B3F8862069468DE827
:1007B000F1000D4800F0ACF8200369468DE8F10027
:1007C0000A4800F0A5F84FF4205069468DE8F10082
:1007D000074800F09DF807B0F0BD0000008002401F
:1007E000303802400008024000000240000402408D
:1007F000001802402DE9F047044690F84400914665
:1008000082281DD082224FF6FF7084F844204FF4D6
:10081000F863226803EA8111258A136900EAC5207A
:1008200003F01C031843014321F0020040F00105CE
:10083000156100F063F9012706464FF4803811E096
:100840000220BDE8F08700BF00F058F9801B40454A
:1008500006D3002084F8447084F845000320F0E7B4
:1008600020680569E807EFD12068406981B2C9F8BE
:10087000001084F844700020E3E700002DE9F04107
:10088000044690F8440042281ED042204FF6FF73E1
:1008900084F8440096B220684FF4F867258A07EA86
:1008A00081110269466103EAC520236802F01C0237
:1008B0001043014341F003051D6100F01FF90127BA
:1008C00006464FF4803811E00220BDE8F08100BFF9
:1008D00000F014F9801B404506D3002084F84470D2
:1008E00084F845000320F0E720680569E807EFD1A8
:1008F00084F84470E9E77047044910B50A68024279
:1009000002D00860FFF7F7FF10BD0000143C014063
:100910002DE9F84FDFF89CE100224FF001084FF07D
:10092000030B4FF00F0A00BF0B6808FA02F42340D4
:10093000A34271D14D68022D01D0122D0FD1D508DF
:100940000E69570700EB8505A9462D6AFF0E0AFAC6
:1009500007FCBE4025EA0C052E43C9F820600F793C
:10096000550006680BFA05FC07F0030726EA0C069B
:10097000AF40374307604E68012E05D0022E03D0EA
:10098000112E01D0122E0ED18668CF6826EA0C06F1
:10099000AF403743876046680F79A643C7F3001717
:1009A000974037434760C4688E6824EA0C04AE4021
:1009B0002643C6604C68E40075D53F4C256845F475
:1009C00080452560246822F00306950704F48044DE
:1009D00000943A4C2D0F2644D6F80848DFF8E0C0C2
:1009E0000AFA05F7604524EA070401D100272EE042
:1009F000344FB84201D1012729E0334FB84201D129
:100A0000022724E0314FB84201D103271FE0304FC5
:100A1000B84202D104271AE045E02E4FB84201D176
:100A2000052714E02C4FB84201D106270FE02B4FC9
:100A3000B84201D107270AE0294FB84201D108275F
:100A400005E0284FB84201D1092700E00A27AF404E
:100A500027437546C6F808784E68DEF80040F6036E
:100A600024EA030400D51C43124E2C60361D4D6849
:100A70003468AD0324EA030400D51C430D4F3460F1
:100A800008374D683C68ED0224EA030400D51C4396
:100A9000084D3C600C354E682C68B60224EA03040D
:100AA00000D51C432C60521C102AFFF43DAFBDE85A
:100AB000F88F0000003C0140443802400030014003
:100AC000000002400004024000080240000C024006
:100AD000001002400014024000180240001C0240B6
:100AE000002002400024024042694A4042617047AF
:100AF0000AB1816170470904FBE700000148806882
:100B0000704700003C0000200248816802781144D0
:100B1000816070473C000020032010B500F06CF8A5
:100B2000002000F005F800F023F8002010BD0000C0
:100B300070B50D4D04464FF47A700C4A297812684E
:100B4000B0FBF1F0B2FBF0F001F0A5F948B9102CC0
:100B500007D200222146501E00F02EF800206C60C3
:100B600070BD012070BD00003C0000204800002046
:100B70000A4808B5016841F080510160006800F042
:100B8000805000900548001D016841F480410160DB
:100B9000006800F48040009008BD0000403802402A
:100BA000410900F01F028900012001F1E02190407D
:100BB000C1F80001704700000E4BF0B41B680D46F1
:100BC000C3F30223C3F10706042E00D90426191D1E
:100BD000072901D2002300E0DB1E012404FA06F1FC
:100BE0009C40491E2940641E994014402143F0BC9A
:100BF00001F0E6BA0CED00E0064900F0070210B57E
:100C00004FF6FF040868044B204040EA02201843D6
:100C1000086010BD0CED00E00000FA05016801233A
:100C2000C0F8F833002280F8F0238869044A40F0C5
:100C300000608861486D10434865002070470000DF
:100C400003000010F0B504008BB004D094F8BD038D
:100C5000002518B107E001200BB0F0BD204684F854
:100C6000BC5300F057F8032084F8BD03206801F05E
:100C700033FF04F11001684628220F46FFF709FBF5
:100C800094E80F0001F006FE2068002101F04CFFFF
:100C900000200126C0EBC001421C04EB810181F859
:100CA0003C00A1F84200D0B281F83D600F2881F8E5
:100CB0003F504D648D640D65ECD30020421CC0EBA9
:100CC000C00104EB810181F8FC01D0B281F8FD5133
:100CD0000F2881F8FF51C1F80452C1F80852C1F839
:100CE0001052EBD3282239466846FFF7D2FA94E82F
:100CF0000F0001F02FFE606A84F8385084F8BD635D
:100D0000012802D12046FFF789FF206801F016FE76
:100D10000020A1E730B587B0044614216846FFF7EC
:100D2000D1FA2068B0F1A04F33D11B48016841F0DF
:100D300001010160006800240221184D00F001004B
:100D400005904FF4E8500A238DE81300032269460A
:100D5000CDE903232846FFF7DBFD68156946CDE999
:100D6000000428460294FFF7D3FD0B48001D0168DC
:100D700041F080010160006800F0800005900648A5
:100D80001430016841F480410160006800F4804043
:100D9000059007B030BD000030380240000002402E
:100DA0001848F8B5016841F0805101600068164CA0
:100DB00000F080500090206840F480302060FFF701
:100DC0009DFE4FF47A76054605E000BFFFF796FEDC
:100DD000401BB0420FD86068C003F7D5206840F4CC
:100DE00000302060FFF78AFE054606E0FFF786FE2A
:100DF000401BB04201D90320F8BD60688003F5D5DF
:100E00000020F8BD403802400070004002480168F0
:100E100041F4807101607047007000402DE9F84F87
:100E200004460078DFF824944FF000063746C007E8
:100E30000ED0D9F8001021F40001C9F80010D9F83B
:100E40000010626B1143C9F80010606B00B90126F5
:100E5000FE4D2068843500030ED5E16B286820F430
:100E6000401008432860E06BB0F5801F01D010B13E
:100E700002E0012600E0012720684FF4800BC00249
:100E80000CD5216C286820F4400008432860206CB1
:100E9000584501D1012601E000B901272068C101B0
:100EA00000D50126800666D5E8483830016841F053
:100EB000805101600068DFF898A300F08050009036
:100EC000DAF8001041F48071CAF80010FFF716FE3E
:100ED000804605E0FFF712FEA0EB080064287DD8ED
:100EE000DAF80000C005F5D5DFF8608308F168087E
:100EF000D8F8000010F440702AD0218E01F440711F
:100F0000814225D0D8F80010D8F8002021F4407193
:100F100042F48032C8F80020D8F8002022F4803251
:100F2000C8F80020C8F80010D8F80000C0070FD09B
:100F3000FFF7E4FD824607E0FFF7E0FDA0EB0A01C2
:100F400041F288308142CAD8D8F800008007F3D532
:100F5000206BC0F3012103297ED0D9F8001021F4C1
:100F6000F811C9F80010228ED8F80010C2F30B0255
:100F70001143C8F800102078C00607D5286820F073
:100F8000807028602868A16B084328602188AF48DA
:100F90008830490405D5626E016821F4403111435F
:100FA00001602188090405D5A26E016821F4402161
:100FB000114301602168C90305D5E26E016821F47F
:100FC0004011114301602168890305D5226F016832
:100FD00021F4400111430160217800E034E1490629
:100FE00005D5626C016821F003011143016021788D
:100FF000090605D5A26C016821F00C0111430160BE
:101000002188C90505D5E26C016821F03001114342
:1010100001602188890505D5226D016821F0C00194
:10102000114301602188490505D5626D016821F4ED
:101030004071114301602188090505D5A26D016841
:1010400021F44061114301602188C90407D5E26D94
:10105000016821F4405100E05FE011430160218804
:10106000890405D5226E016821F4404111430160D5
:101070002168490205D5A26F016821F08061114302
:10108000016021684FF0006A890209D5E26F0168AA
:1010900021F0006111430160E16F514500D101274A
:1010A00021680A0700D50127490305D5626F016849
:1010B00021F04071114301602168090206D5D4F87E
:1010C0008020016821F080511143016021684901AD
:1010D00006D5D4F88420016821F000511143016045
:1010E0002068000106D5D4F88810286820F0007028
:1010F000084328602068C00006D5D4F88C10286802
:1011000020F0806008432860DFF84891012E0ED05F
:101110002068B0F1007F0AD08FE04F4AD9F8003044
:10112000104023F4F8120243C9F800201BE7D9F855
:1011300000004E4620F08060C9F80000FFF7DEFC9A
:10114000804605E0FFF7DAFCA0EB080064287BD8B6
:1011500030680001F6D421783C487C30C90712D0B1
:10116000616B81B9237A62680168D0F800C092018E
:10117000C1F3014142EA0142CCF3036142EA016159
:1011800041EA0371016021680A0303D5E26BB2F5FD
:10119000801F04D0C9021AD5216C594517D1636844
:1011A000016894F80CC002689B01C1F3014143EA55
:1011B0000141C2F3027241EA0C6141EA027101602D
:1011C0002968626A21F01F01521E114329602168BB
:1011D000C90110D5238A62680168D0F800C0920165
:1011E000C1F3036142EA034242EA0162CCF30271B5
:1011F00042EA01710160216889010CD56168228A87
:10120000237B94F808C0890141EA024141EA036165
:1012100041EA0C7101603168B04641F08061316093
:10122000FFF76CFC064604E0FFF768FC801B6428AF
:101230000AD8D8F800000001F6D5E7B3D9F80000C5
:101240004E4620F0805009E07BE000000838024064
:101250000070004000380240FFFCFF0FC9F800009A
:10126000FFF74CFC074604E0FFF748FCC01B64286E
:1012700067D83068C0438000F6D5216835480A0336
:1012800001D5E26B1AB1C9021DD5216CD9B96369C8
:101290000168277E02689B01C1F3014143EA0143D3
:1012A000C2F3027143EA076242EA017101602968F0
:1012B0006FF0FF0300E04BE0A26A21F4F85103EB6A
:1012C0000222114329602168890212D5E16F51453C
:1012D0000FD1238C6269016807689201C1F3036131
:1012E00042EA034242EA0162C7F3027142EA017133
:1012F00001602178090716D561690268D0F800C03D
:101300008B01277FC2F30362CCF3014143EA014121
:1013100041EA026141EA077101602868E16A20F44C
:10132000403008432860306840F080503060FFF75C
:10133000E5FB044608E000BFFFF7E0FB001B642864
:1013400002D90320BDE8F88F3068C0438000F3D491
:101350000020F7E7883802402DE9F04705000F46E6
:1013600063D0444E306800F00F00B84209D23068B4
:1013700020F00F0038433060306800F00F00B842B2
:1013800053D128683C4C810712D5400703D520680B
:1013900040F4E05020602878000703D5206840F42E
:1013A00060402060A968206820F0F00008432060B9
:1013B0002878C0072AD0304968680839012810D039
:1013C0000968022810D0890700292EDA216821F047
:1013D000030101432160FFF791FB804641F2883908
:1013E0000DE009688903EFE78901EDE7FFF786FB68
:1013F000A0EB0801494502D90320BDE8F0876868E1
:10140000216801F00C01B1EB800FEFD1306800F0E2
:101410000F00B8420BD9306820F00F00384330601D
:10142000306800F00F00B84201D00120E5E72878CD
:10143000400705D5E968206820F4E05008432060A3
:101440002878000706D52869216821F4604141EA1F
:10145000C000206000F03CF82168084AC1F3031185
:10146000515CC840064908600020FFF761FB00207E
:10147000C3E70000003C0240083802408037000803
:101480004800002001480068704700004800002024
:101490000449054809680068044AC1F38221515C87
:1014A000C8407047083802404800002090370008C4
:1014B0000449054809680068044AC1F34231515C97
:1014C000C8407047083802404800002090370008A4
:1014D000154910B51548096811F00C0213D04110D8
:1014E000042A0FD0082A0ED10F4C241F226823682B
:1014F00002F03F025B0207D52068C0F38810A0FB12
:10150000010106E0084610BD2168C1F38811A1FB66
:1015100000010023FEF78CFE2168C1F30141491C44
:101520004900B0FBF1F010BD083802400024F4007F
:101530002DE9F84F05004FF000076ED02878DFF84E
:101540002093A9F1040AC007AAF104044CD0D9F8E9
:1015500000104846C1F38101012908D00068C0F39A
:10156000810002280AD1DAF80000400206D520687E
:10157000800339D568680028DFD035E06868B0F5A9
:10158000803F0BD010B1B0F5A02F11D0206820F40F
:1015900080302060206820F4802002E0206840F441
:1015A00080302060686890B1FFF7A8FA06460AE02C
:1015B000206840F480202060F0E700BFFFF79EFA2B
:1015C000801B642872D820688003F7D50CE0FFF7F1
:1015D00095FA064605E000BFFFF790FA801B6428E5
:1015E000F0D820688003F7D42878800742D5D9F84E
:1015F0000010484611F00C0F08D00068C0F38100BD
:1016000002280BD1DAF80000400207D420688007D6
:1016100018D5E868012800D114E01EE1E868002828
:10162000206817D040F001002060FFF767FA0646F7
:1016300005E000BFFFF762FA801B0228C2D82068CD
:101640008007F7D52869216821F0F80141EAC00038
:1016500020600FE020F001002060FFF74FFA0646FF
:1016600005E000BFFFF74AFA801B02281ED8206859
:101670008007F7D42878000729D5794869696C3044
:1016800000298046016812D041F001010160FFF796
:1016900035FA064605E000BFFFF730FA801B022846
:1016A00004D8D8F800008007F6D510E089E021F0D2
:1016B00001010160FFF722FA064604E0FFF71EFA77
:1016C000801B02287DD8D8F800008007F6D428783F
:1016D00040076BD5DFF8888108F13808D8F800009A
:1016E000C0000BD4D8F8001041F08051C8F80010A9
:1016F000D8F80000012700F0805000905948016898
:10170000C90512D40168834641F480710160FFF776
:10171000F5F9064605E000BFFFF7F0F9801B6428E5
:101720004FD8DBF80000C005F6D54D4EA8686836E6
:1017300001280AD008B1052811D0306820F0010036
:101740003060306820F0040002E0306840F00100B2
:101750003060A868A0B1FFF7D1F983460CE030688B
:1017600040F004003060F0E7FFF7C8F9A0EB0B0190
:1017700041F28830814268D830688007F4D50EE0A5
:10178000FFF7BCF9834607E0FFF7B8F9A0EB0B01C0
:1017900041F28830814258D830688007F4D42FB1A4
:1017A000D8F8001021F08051C8F80010A869E0B303
:1017B000D9F80010C1F3810102294ED00228206817
:1017C00000E042E020F08070206003D0FFF796F93F
:1017D00005463DE0FFF792F9064604E0FFF78EF973
:1017E000801B022831D820688001F7D4D5E909216F
:1017F000DFF874C0D5E9070695F830304F0895F842
:101800002C1030430CEB074545EA8212104340EAA6
:10181000016040EA0370CAF80000206840F0807060
:101820002060FFF76BF9054605E014E0FFF766F965
:10183000401B022809D820688001F7D50BE000BFC3
:10184000FFF75CF9401B022802D90320BDE8F88F9E
:1018500020688001F4D40020F8E70120F6E70000BA
:1018600008380240007000400000FFFF90F85D0063
:1018700070472DE9F047040005D094F85D0000257D
:10188000A56218B107E00120BDE8F087204684F882
:101890005C5000F051F8022284F85D204FF4E063C0
:1018A0002068016821F040010160E068984201D998
:1018B000002101E04FF48051B0F5706F02D09842E2
:1018C00000D0A5624FF00109266B2EB9984201D9CC
:1018D000226301E0C4F83090D4E90468D4E901023D
:1018E000278B46EA0806A36A104307F400783043C2
:1018F0002668D4E907C240EA080040EA0C00CC465A
:101900000427104318433060D4F81880666B606A6F
:10191000E26807EA1847236830433A431043084314
:1019200058602068C16921F40061C161256684F8AE
:101930005DC00020A8E70000F0B587B00446142180
:101940006846FEF7BFFC1949206888422CD1184828
:10195000016841F480510160006800F480500590F6
:1019600013481438016841F001010160016801F079
:1019700001010591016841F008010160006802243D
:101980000025694600F00800059003260527602021
:101990008DE8F1000748FEF7BBFF802069468DE81F
:1019A000F1000548FEF7B4FF07B0F0BD003001407C
:1019B0004438024000000240000C02402DE9F84F7C
:1019C0000446406898460D46B0F5827F17464FF0B2
:1019D00004094FF0000601D1A06890B194F85C00B2
:1019E00001281AD04FF0010B84F85CB0FFF786F89D
:1019F000009094F85D004FF0000A01280FD00226F5
:101A00008FE084F85D9013462A4620461146CDF8B3
:101A1000008000F02BF9BDE8F88F0220FBE7002DD5
:101A20007ED0002F7CD0E16884F85D90C4F860A07F
:101A30004FF4E062C4F838A091422564A4F83CA0B9
:101A4000C4F84CA0C4F850A0A4F84470A4F84670A0
:101A5000A4F83EA02068416802D921F4805101E039
:101A600041F480514160A068B0F5004F04D1206876
:101A7000016821F48041016020680168490603D4AF
:101A8000016841F040010160E068904219D939E0F5
:101A900020688168C90708D0007B05F8010BB4F8FD
:101AA0004600401EA4F846000BE0B8F1000F26D017
:101AB000B8F1FF3F05D0FFF721F80099411A4145E1
:101AC0001DD2B4F846000028E2D11FE020688168EA
:101AD000C90708D0C06825F8020BB4F84600401EBC
:101AE000A4F846000EE0B8F1000F08D0B8F1FF3FAF
:101AF00008D0FFF703F80099411A414502D30326A5
:101B00000FE00DE0B4F846000028DFD1009A41460E
:101B1000204600F067FB08B120202066206E00B14F
:101B2000012684F85DB0304684F85CA073E72DE9A7
:101B3000F84F044690F85C000026984601281746A6
:101B40000D460DD04FF0010A84F85CA0FEF7D6FFD9
:101B5000834694F85D00B146012804D002267FE058
:101B60000220BDE8F88F002D79D0002F77D0A26831
:101B70000321A563A78784F85D10C4F86090E78708
:101B8000C4F84090A4F84490A4F84690B2F5004FF1
:101B9000C4F85090C4F84C9004D12068016841F416
:101BA0008041016020680168490603D4016841F062
:101BB00040010160E068B0F5E06F17D83CE02068B4
:101BC0008168890706D535F8021BC160E08F401E89
:101BD000E0870BE0B8F1000F2CD0B8F1FF3F05D043
:101BE000FEF78CFFA0EB0B01414523D2E08F0028CC
:101BF000E5D124E02068816889070FD5E18F0129AC
:101C000005D935F8021BC160E08F801E04E015F88D
:101C1000011B0173E08F401EE0870DE0B8F1000F5B
:101C200008D0B8F1FF3F07D0FEF768FFA0EB0B012B
:101C3000414501D3032613E0E08F0028DAD15A464C
:101C40004146204600F008FB08B120202066A0682D
:101C500018B92068C16880680090206E00B1012624
:101C600084F85DA0304684F85C907AE72DE9F05F57
:101C70000D4690F85C10002699460A9F012992466D
:101C800004464FF001080ED0012084F85C00FEF7F6
:101C900035FF834694F85D00616801280CD0B1F5EA
:101CA000827F07D102E00220BDE8F09FA16809B958
:101CB000042801D00226E6E0002D79D0BAF1000F09
:101CC000FBD0B9F1000FF8D094F85D00042802D0E1
:101CD000052084F85D00A4F844900020A4F83C900E
:101CE0004FF4E061C4F840A0A563E26820668A4230
:101CF000E0642065A4F84690A4F83E9003D8B4F8B8
:101D00004600012804D92068426822F4805203E08A
:101D10002068426842F4805242602068026852069D
:101D200003D4026842F040020260E06888426068C2
:101D30003FD910B1E08F012832D1216835F8020B6C
:101D4000C860E08F401EE0872AE000BFB8F1000FB6
:101D50000DD0E08F58B120688168890707D535F824
:101D6000022B4FF00008C260E08F401EE087B4F8FD
:101D7000460068B120688168C90709D0C0684FF083
:101D800001082AF8020BB4F84600401EA4F84600E9
:101D9000781C05D0FEF7B2FEA0EB0B00B8425ED275
:101DA000E08F0028D2D1B4F846000028CED15FE001
:101DB00068E010B1E08F012853D1216815F8010BBC
:101DC0000873E08F401EE0874BE000BFB8F1000FC2
:101DD00016D0E08FA0B120688168890710D5E18F07
:101DE000012905D935F8021BC160E08F801E04E08F
:101DF00015F8011B0173E08F401EE0874FF00008CB
:101E0000B4F8460018B320688168C9071FD0B4F839
:101E10004610012911D9C0682AF8020BB4F846000F
:101E2000801EA4F84600B4F8460001280DD82068AA
:101E3000416841F48051416007E0017B0AF8011BD1
:101E4000B4F84600401EA4F846004FF00108781C84
:101E500007D0FEF753FEA0EB0B00B84201D30326D8
:101E600011E0E08F0028B1D1B4F846000028ADD1D0
:101E70005A463946204600F0EFF908B12020206686
:101E8000206E00B10126012084F85D00002130465B
:101E900084F85C1008E7401EB0F1807F10B501D3D4
:101EA000012010BD4FF0E02460610F21601700F0A9
:101EB00087F90020A0610721216110BD10B5040041
:101EC00003D094F8690010B107E0012010BD002094
:101ED00084F86800204600F027F8242084F8690080
:101EE0002068016821F001010160204600F074FBC8
:101EF0000128EBD0606A10B1204600F0E9FA2068B2
:101F0000416821F4904141602068816821F02A01F4
:101F100081602068016841F0010101602046BDE850
:101F2000104000F039BB000010B586B00446142103
:101F30006846FEF7C7F91249206888421ED1114849
:101F4000016841F480210160006800F48020059060
:101F50000C481038016841F0080101600068022156
:101F6000002200F008000590032307244FF440707E
:101F70008DE81F0004486946FEF7CAFC06B010BD94
:101F80000048004040380240000C0240FEE70000DC
:101F90007CB5104801250E4C00218022E123C0E9C8
:101FA0000045018214048DF800108DF801206A4666
:101FB0008DF802308DF804108DF803108DF805109F
:101FC000C0E90521C0E90714FEF7A8FA7CBD0000AE
:101FD00000800240540000202DE9F04387B0142116
:101FE0006846FEF76FF94648016841F00401016058
:101FF000016801F004010591016841F08001016070
:10200000016801F080010591016841F00101016062
:10201000016801F001010591016841F002010160D0
:10202000016801F002010591016841F008010160B9
:10203000016801F008010591016841F0400101606B
:10204000006844F2C307DFF8BC80002200F04000C3
:10205000394605904046FEF74BFDDFF8AC90002274
:1020600040214846FEF744FD284D4FF4015000241E
:1020700069460294CDE900052548FEF749FC012692
:102080000097CDE90164694640460394FEF740FCA1
:102090000220204F41030091CDE90104CDE9034026
:1020A00069463846FEF734FC40200090CDE90164D3
:1020B000694648460394FEF72BFC80206946CDE92B
:1020C000000448460294FEF723FC03206946CDE94C
:1020D000000538460294FEF71BFC0022062011463C
:1020E000FEF76AFD0620FEF75BFD00220720114681
:1020F000FEF762FD0720FEF753FD07B0BDE8F08351
:102100003038024000040240001802400000111064
:1021100000080240000C0240F0B40F484FF4E064A5
:1021200000210C4E4FF482752023C0E90214016196
:102130007215E0E805650724082580E80E00C160F7
:102140000161C0E90514C0E90715F0BC0248FFF7BA
:1021500090BB0000003001409C0000200A48002194
:1021600030B4084C0C224FF4E1330460C0E9013173
:10217000C160C0E904128161C1610162416230BC89
:10218000FFF79CBE00480040000100200A480021E3
:10219000022230B40123C0E9032182610624C0E990
:1021A000073141624FF0A045C0E90B31C0E900544E
:1021B00030BCFEF747BD000070010020FEE770470D
:1021C000090700284FEA116106DA00F00F0000F15C
:1021D000E02080F8141D704700F1E02080F8001422
:1021E000704770472DE9F843044640684FF4827603
:1021F0001546B04289464FF400474FF4806809D134
:10220000A068B84201D0404504D12068016821F09F
:102210004001016000224B4680212046009500F0DD
:102220008FF880B96068B04214D1A068B84201D07C
:1022300040450FD100224B464FF4C0612046009527
:1022400000F02EF830B1206E40F020002066032010
:10225000BDE8F8830020FBE7F8B515460E460446B6
:102260000B464FF4C0510092002200F019F888B9D3
:102270000022334680212046009500F061F848B9DD
:10228000002233464FF4C0612046009500F008F864
:10229000002804D0206E40F0200020660320F8BD06
:1022A0002DE9F8434FF4C0681D4617460E46DDF889
:1022B000209004463DE0464505D127B9007B8DF8C6
:1022C00000009DF80000681C33D02DB1FEF716FC0D
:1022D000A0EB0900A8422CD32068416821F0E0015E
:1022E00041606068B0F5827F0BD1A068B0F5004F07
:1022F00002D0B0F5806F04D12068016821F0400160
:102300000160A06AB0F5005F0AD120684DF6FF7247
:102310000168114001602068016841F400510160CA
:10232000012184F85D10002084F85C000320BDE8E2
:10233000F883206881683140B942BCD10020F6E7BB
:102340002DE9F0411D4616460F460446DDF818807B
:1023500035E0681C33D02DB1FEF7D0FBA0EB0800B0
:10236000A8422CD32068416821F0E00141606068F8
:10237000B0F5827F0BD1A068B0F5004F02D0B0F568
:10238000806F04D12068016821F040010160A06ADB
:10239000B0F5005F0AD120684DF6FF720168114068
:1023A00001602068016841F400510160012184F856
:1023B0005D10002084F85C000320BDE8F0812068F7
:1023C00080683840B042C4D10020F6E77047FEF77D
:1023D0009BBB000070B5B8B0342124A8FDF772FF94
:1023E000142131A8FDF76EFF90216846FDF76AFFC2
:1023F000FEF70CFD1E48016841F080510160006845
:1024000000F0805036901B48016841F44041016063
:1024100000684FF4A021022400F4404036900120CF
:10242000D825820509260423CDE92A42CDE92401D5
:10243000CDE92C35CDE92E4624A8FFF779F8FEF733
:10244000AFFCE2024FF4A0510025CDE9341231AACD
:102450000F20072182E8310031A8FEF77DFF0648F2
:1024600013951F9500906846FEF7D8FC38B070BDF4
:10247000403802400070004000012000104A30B592
:102480001048146800210F4B44F4700414600833A2
:1024900005680D4A0D4C45F001050560196003689B
:1024A000051D1340074A03600C322C600568E305E4
:1024B000034C25F480250560803C1160236030BD0D
:1024C00088ED00E000380240FFFFF6FE10300024E7
:1024D00090F82410C90706D00168836A4A6822F47C
:1024E00000321A434A6090F82410890706D5016823
:1024F000C36A4A6822F480321A434A6090F8241072
:10250000490706D50168036B4A6822F480221A4302
:102510004A6090F82410090706D50168436B4A68A1
:1025200022F400421A434A6090F82410C90606D5E6
:102530000168836B8A6822F480521A438A6090F89B
:102540002410890606D50168C36B8A6822F40052FC
:102550001A438A6090F82410490611D50168036C6B
:102560004A6822F480121A434A60016CB1F5801F58
:1025700006D10168436C4A6822F4C0021A434A60DB
:1025800090F82410090606D50168826C486820F48A
:10259000002010434860704738B500250446C566E2
:1025A000FEF7ACFA03462068006800070BD56FF011
:1025B0007E400090002220464FF4001100F038F9D0
:1025C00008B1032038BD202084F8690084F86850E1
:1025D00084F86A00002038BD2DE9F0470446806881
:1025E000874B884F2668D4E90415E2690843D6F87A
:1025F00000C0102115430022284315460CEA030CA5
:10260000814B4CEA000CC6F800C04FF4004920682A
:10261000D4F80CC0466826F4405646EA0C064660DC
:102620002668D4F82080A069D6F808C040EA0800DF
:102630002CF4306C4CEA000CC6F808C02068B84294
:102640000AD11B6813F0030352D0012B7AD0022B5E
:1026500076D0032B79D177E06C4EB0420AD11B685B
:1026600013F00C036AD0042B6CD0082B68D00C2B11
:102670006BD169E0664EB0420AD11B6813F030039B
:102680005CD0102B5ED0202B5AD0302B5DD15BE07C
:10269000604EB0420AD11B6813F0C0034ED0402BED
:1026A00050D0802B4CD0C02B4FD14DE05A4EB04271
:1026B0000DD11B6813F4407340D0B3F5807F41D037
:1026C000B3F5007F3CD0B3F5407F3ED13CE0534EA4
:1026D000B0420FD11B6813F4406309D0B3F5806F8B
:1026E00030D0B3F5006F2BD0B3F5406F2DD12BE078
:1026F00001212AE04A4EB0420DD11B6813F4405329
:102700001CD0B3F5805F1DD0B3F5005F18D0B3F5D2
:10271000405F1AD118E0434EB04216D11B6813F443
:1027200040430BD0B3F5804F0CD04B4508D0B3F5E8
:10273000404F0AD108E005E002E0FFE7002104E095
:10274000022102E0042100E00821E6694E452AD179
:1027500009291FD2DFE801F00508141E171E1E1EEE
:102760001A00FEF795FE01E0FEF7A2FE0146D4F83E
:102770000400490001EB5001B1FBF0F082B20AE025
:1027800029496068F6E7FEF7A3FEEFE760684FF4BB
:102790008031EFE70125216822F00F00C2F34202E9
:1027A0001043C86028E0092925D2DFE801F00508B8
:1027B0000B24102424241C00FEF76AFE09E0FEF717
:1027C00077FE06E06168194A02EB51020EE0FEF75F
:1027D0007FFE0146D4E9002001EB5001B1FBF0F08F
:1027E00080B2D06008E0616809EB5102B2FBF1F100
:1027F00089B2C16000E001252846BDE8F0870000ED
:10280000F369FFEF0010014090380240004400409F
:1028100000480040004C00400050004000140140BF
:1028200000780040007C00400048E8010024F400EB
:102830002DE9F041984617460E460446069D1DE0D8
:10284000681C1BD02DB1FEF759F9A0EB0800A84277
:1028500014D32168202000220B6823F4D0730B606E
:1028600021688B6823F001038B6084F8690084F889
:102870006A00032084F86820BDE8F0812068C06900
:1028800036EA000004D00020B842D9D00020F3E797
:102890000120F9E770B504460699049D0D980129B9
:1028A0000CD0E06840F04000E060204600F02AF8DC
:1028B0004FF48030A063012D17D01EE0A26B0128D9
:1028C0000F4922F48030A063E06800EA0100E06074
:1028D000E06820F44010E06003D1E06840F480102C
:1028E000E060204600F00EF8E5E7A06840F0060042
:1028F000A060A06840F02000A060002070BD000033
:10290000BFFFBDFF0C49012202E0521C8A420BD8D6
:102910000369002BF9DA0369012243F00103036123
:1029200004E0521C8A4201D9032070470369DB0787
:10293000F7D1002070470000400D030010B5D0F81B
:10294000041841F00201C0F804180320FDF7D4FD7B
:10295000002010BD2DE9F04F0D4604460021DDE9B1
:102960000B2B109F0846099E04EB800CCCF8041139
:10297000401C0F28F8D3A06B40F4001C2046C4F87C
:1029800038C077B9806B20F4001CC4F838C02068C8
:1029900040F0400CC4F800C0206840F0800CC4F83F
:1029A00000C088460846C4F8000E2046D4F8001837
:1029B000012AC4F8001820D0032A1ED0D0F800182D
:1029C00041F0030102E000BF41F00101C0F800182E
:1029D000102100F097F8204600F084F84FF00069CD
:1029E00040464FF0904A4FF67F33C4F81088C4F841
:1029F0001488C4F81C88002119E0D0F80018002BB6
:102A0000E4D0E1E704EB4112D2F800C9BCF1000FB9
:102A100006DA11B1C2F800A904E0C4F8009901E097
:102A2000C2F80009C2F81009C2F80839491C8D42E1
:102A3000E8D8002115E000BF04EB4112D2F800CB2A
:102A4000BCF1000F06DA11B1C2F800AB04E0C4F823
:102A5000009B01E0C2F8000BC2F8100BC2F8083B63
:102A6000491C8D42E8D8D4F81018012E21F4807248
:102A70002146C4F8102808D1134B144AC1F8303845
:102A8000D1F830181143C4F830186FF08041A061BC
:102A900061611EB9A06940F01000A061A069BBF19E
:102AA000000F0B4A40EA0200A06103D0A06940F089
:102AB0000800A061012F03D1A06906490843A06165
:102AC0000020BDE8F08F000000018000030001003D
:102AD00000383C8004000040816821F001018160E1
:102AE00000207047064A102101610021491C9142D3
:102AF00001D9032070470369DB06F7D40020704733
:102B0000400D03002023074A43EA8113036100219B
:102B1000491C914201D90320704703699B06F7D4F1
:102B200000207047400D030010B5C268012922F053
:102B3000C042C26002D029B1012010BDC16841F07D
:102B4000005102E0C16841F08041C1603220FDF7D0
:102B5000D3FC002010BDFEE702E008C8121F08C128
:102B6000002AFAD170477047002001E001C1121F0E
:102B7000002AFBD17047000010B5044600F0B0FCFD
:102B8000002806D1034820612046BDE8104000F02F
:102B90000CBA10BD9837000838B505460C460846F3
:102BA00000F09EFC00282AD10220EDB2012D0CD0AD
:102BB000022D04D0032D0ED101210C2207E00B21A0
:102BC000617220726073207305E003210A22627231
:102BD000207261732173204600F038F900280ED16D
:102BE000204600F0F9FA002809D105F00300234639
:102BF00001226946ADF80000022000F05DFA38BD00
:102C00007CB50D4604461646104600F069FC58BBDC
:102C100054B34DB31E2033460422694600F04EF8EB
:102C2000002820D127203346022201A900F046F8CF
:102C3000002818D19DF801109DF8000040EA0120FD
:102C400020809DF803109DF8020040EA012060807A
:102C50009DF805009DF8041041EA00203146A0804F
:102C6000284600F061FA7CBD4FF0FF307CBD10B506
:102C7000044600F03EF8002804D12046BDE810408C
:102C800000F07BBA10BD70B50D46044600F059F84F
:102C9000002812D1E01C294600F053F800280CD17E
:102CA000A01D294600F082FA002806D104F109008F
:102CB0002946BDE8704000F079BA70BD2DE9F041B9
:102CC00014460D4607461E46184600F021FC68B91A
:102CD00065B13CB13346224629463846BDE8F0414D
:102CE00000F02ABB6FF00600BDE8F0814FF0FF3026
:102CF000FAE738B5002504468DF8005000F008FCCE
:102D0000002810D1207901280ED065710122002001
:102D10002346694600F010FB002804D19DF80010FE
:102D20001E290CD0C01E38BD01202346024669462C
:102D30006071002000F000FB0028E7D038BD217052
:102D400038BDF8B505460E46084600F0E1FB002800
:102D500079D1002D77D0687800277C1F38B1012801
:102D60002FD0022841D003284AD0E01EF8BD01220E
:102D70003346582069468DF8007000F0DDFA0028CF
:102D8000F4D1A8782978C0F3800011B1012942D18B
:102D900004E09DF8001060F3820103E09DF800104C
:102DA00060F3861128468DF80010314600F024FCAF
:102DB0000028DBD1012233465820694600F070FC20
:102DC000F8BD304600F0A4FB0028F9D18DF8007062
:102DD000287810B101281ED101E0562000E05720CC
:102DE000A978490722D501211EE0304600F090FB6A
:102DF0000028E5D131462846BDE8F84000F0FCBB8C
:102E0000304600F085FB0028DAD18DF80070287874
:102E100018B1012803D02046F8BD562000E0572005
:102E2000A978490702D502218DF800100122334606
:102E3000694600F035FC0028EED13146284600F006
:102E4000DBFBF8BDFFE74FF0FF30FAE72DE9F84F65
:102E5000054600200446804607460090284600F0BC
:102E600057FB002817D16E7A95F8089095F807A0BF
:102E7000701F082800D30124B9F1020F01D94FF0C7
:102E80000108BAF1030F00D9012744EA08043C43C2
:102E900003D06FF00700BDE8F88F02222B464020D8
:102EA000694600F049FA0028F5D19DF80000022299
:102EB0002B4666F3030069F306108DF800009DF8B9
:102EC000011040206AF301018DF80110694600F0FD
:102ED000E7FBE0E738B5054600F01AFB040027D110
:102EE000A97919B1032907D0441F21E08DF800000A
:102EF00004218DF8011004E003218DF800108DF8F5
:102F0000010001227C202B46694600F0C9FB040029
:102F10000ED1296A0520884701222B467D200DF11C
:102F2000010100F0BDFB040002D1296A0520884799
:102F3000204638BD2DE9F04114460D4607461E4691
:102F4000184600F0E5FA68B965B13CB1334622464F
:102F500029463846BDE8F04100F0A2BB6FF00600FC
:102F6000BDE8F0814FF0FF30FAE738B5054600F0D4
:102F7000CFFA040017D1B6202B46012269468DF8FE
:102F800000007E2000F08CFB04000CD1296A012097
:102F900088472879012806D101222B46002069465E
:102FA00000F0CAF90446204638BDF0B585B00546A4
:102FB000002006468DF800008DF804008DF808000A
:102FC000284600F0A5FA002871D1286900286ED0A3
:102FD000287D002867D001222B467D2001A900F022
:102FE000ABF9002866D101222B467D20694600F00E
:102FF00057FB00285ED1296A0520884701222B460D
:103000005920694600F04CFB040052D14FF4C057E0
:10301000286971092B4684198DF80C10C6F34300FA
:103020008DF8100001225B2004A900F039FB60B983
:1030300001222B465C2003A900F032FB28B92A7D2F
:103040005E202B46214600F02BFB297D0446881983
:1030500086B2BE42DCD32CBB01202B460246694619
:103060008DF80000592000F01BFB80B9296A9620DA
:10307000884701222B462A2002A900F05DF930B9C9
:103080009DF80800012802D06FF0050411E001222C
:103090002B467D2001A900F003FB040009D1296A19
:1030A0000520884705E06FF0060402E0FFE74FF0D7
:1030B000FF34204605B0F0BD2DE9F047174688469D
:1030C00081469A46184600F023FA044609EB0700A9
:1030D0004600304600F0CEF90546FCB9534632466C
:1030E00001465E20FFF7EAFD041E0ED016E000BF89
:1030F00009EB000118F8102005EB410305F8112039
:1031000038F81010090A5970401CB842F0DB5E20F4
:10311000534632462946FFF70DFF0446284600F085
:10312000D1F82046BDE8F0877CB504460D46084638
:1031300000F0E2F9F0B9ECB106222B460220694614
:1031400000F0E8F8002814D19DF801209DF8001047
:1031500041EA022121809DF803109DF8022042EAF5
:10316000012161809DF805209DF8041041EA0221AB
:10317000A1807CBD4FF0FF307CBD38B504460020F7
:103180008DF80000204600F0B7F900280BD101228D
:103190002346694600F0BEF8002804D19DF80010CF
:1031A0000F2901D0C01E38BD617038BD70B504460E
:1031B0000D46084600F0A0F958B954B1607810B136
:1031C0006FF0070070BD29462046BDE8704000F052
:1031D000ABB94FF0FF3070BD2DE9F84300278046B2
:1031E0003C4600F089F900280ED198F80D60404661
:1031F00098F80B50072E00D90124042D00D901277F
:103200003C4303D06FF00700BDE8F883012203467A
:103210001020694600F07EF80028F5D19DF80000E6
:1032200001224346694666F303008DF80000102032
:1032300000F024FA0028E7D1012243460F20694616
:1032400000F068F80028DFD19DF800000122434615
:10325000694665F302008DF800000F2000F00EFAB9
:10326000D2E77CB50126054600F046F9040026D1D8
:1032700001222B461120694600F04CF804001ED1B3
:10328000A87A8DF80400802804D19DF80010202928
:1032900000D10026202803D19DF8000080280CD002
:1032A0005EB101222B46112001A900F0E7F90400CC
:1032B00005D1296A1E20884701E06FF004042046EA
:1032C0007CBD000010B5002821D0114B0022001F4A
:1032D000196803E0814203D80A4649680029F9D1F8
:1032E00052B11368841A9C4204D1006818441060DB
:1032F000104602E0506000E0186039B102680B1A15
:10330000934203D10B681A4402604968416010BDC2
:103310004C00002070B51C79012C01D140F08000D8
:10332000DC789D6913460A4601462046A8470028D6
:1033300001D06FF0010070BD2DE9F047804658794B
:1033400016461C463044894687B2384600F092F84B
:1033500005462079012801D148F08008D4F818C02A
:10336000A0783B462A464146E047010008D06FF06E
:10337000010128460C46FFF7A5FF2046BDE8F0876F
:10338000002006E062792F18431CD75D09F8007011
:1033900098B2B042F6D3ECE7FDF7BEFBFFF71AF8A0
:1033A000FEF71AFEFEF7F4FDFEF7D8FEFEF7EEFE7E
:1033B000FEF7B2FE2C4C002201212046FDF798FBBF
:1033C000002220468021FDF793FB2848FFF74FFCA1
:1033D000264C083C60702548FFF7C7FD234E20218E
:1033E0006070002530463175B571FFF773FD607070
:1033F0003046B572FFF735FF3046FFF7BDFB607012
:103400002046F5710321F572017031462068FFF7FF
:10341000C3FB17490222607001260D704A7088783C
:1034200020F0020040F005008870CE700E714879DF
:1034300020F0020040F0050048718D71CD71087ACE
:1034400020F0020040F0050008724E728D72C87ABA
:1034500020F0060040F00100C87204490448FFF75C
:1034600012FC60706660FEE7000402400800002065
:1034700070050020F0B50B30154D20F00701002439
:10348000144A0FE003688B420BD38B4205D95E1AB6
:1034900043184768C3E9006700E04368136002C04F
:1034A00004E0021D10680028ECD12046002802D15B
:1034B000286808B10020F0BD064A07481060074A96
:1034C000121A22F00702C0E9002401202860D7E781
:1034D000500000204C0000208405002080070020C0
:1034E00038B1816929B1C16919B1006A08B10020F8
:1034F00070474FF0FF30704738B1816929B1C16919
:1035000019B1006A08B1002070474FF0FF307047D2
:1035100038B1816929B1C16919B1006A08B10020C7
:1035200070474FF0FF3070477CB5002604460122FB
:103530000D4618200B4669460096FFF7EBFE002863
:1035400007D1A0782178C0F3800019B1012906D0F5
:10355000701F7CBD9DF8001060F3000103E09DF832
:10356000001060F3C7118DF80010C8B210F0810F81
:1035700003D080208DF8010001E08DF80160012268
:1035800018202B46694600F079F80028E1D1012285
:103590002B46162001A9FFF7BDFE18BB207810B1FD
:1035A000012819D10BE0A1789DF8040061F3000017
:1035B000C1F3400120F0020040EA41000AE0A17896
:1035C0009DF8040061F38200C1F3400120F008007F
:1035D00040EAC1008DF8040001222B46162001A903
:1035E00000F04CF80028B4D101222B4615200DF133
:1035F000010100F043F87CBDF8B5044600780E46A2
:1036000020B1012804D06FF00400F8BD532500E07C
:1036100054250B46012269462846FFF78DFE0028F7
:10362000F3D1A2789DF80000C2F3400162F341009B
:1036300020F0040040EA81008DF800006178022942
:1036400011D0C2F3800120F0080040EAC10020F050
:10365000100000BF0122334669468DF8000028465D
:1036600000F01EF8F8BD20F01000C2F3800140F019
:10367000010040EA011020F00800EBE770B51C796A
:10368000012C01D100F07F00DC78DD6913460A4689
:1036900001462046A847002801D06FF0010070BD08
:1036A00070B51C79012C01D100F07F009C78DD6998
:1036B00013460A4601462046A847002801D06FF06D
:1036C000010070BD2DE9FF410546114E1F4614460D
:1036D0009DF804000022294640F080008DF8040087
:1036E0003046FDF705FA0B483223012201A9FEF707
:1036F0001EFA084832233A462146FEF75FF90122B6
:1037000029463046FDF7F4F904B00020BDE8F08109
:10371000000402409C0000202DE9FF410746164CA2
:103720001D4616469DF804000022394600F07F0031
:103730008DF804002046FDF7DBF910483223012202
:1037400001A9FEF7F4F90D48FEF790F80228FAD027
:103750000A4832232A463146FEF7E9F90748FEF7C0
:1037600085F80228FAD0012239462046FDF7C0F933
:1037700004B00020BDE8F081000402409C0000205D
:103780000000000000000000010203040607080911
:103790000000000001020304C82E002E802E470105
:1037A000C82E002EC82E002EC82E002E802EA0005F
:1037B000802E7C00802E11015039212EB0F0103067
:1037C000212E16F0802E9001000000000000000065
:1037D00000000000000000000000000000000000E9
:1037E00000005ABE802E1800802E1800802E18006F
:1037F000802E1800802E1800802E1800802E1800B1
:10380000802E1800802E1800802E1800802E1800A0
:10381000802E1800802E1800802E1800802E180090
:10382000802E1800802E1800802E18000000000046
:103830000000000000000000000000000000000088
:103840000000000000000000000000000000000078
:103850000000000000000000000000000000000068
:103860000000000000000000000000000000000058
:103870000000000000000000000000000000000048
:103880000000000000000000000000000000000038
:10389000A050807FE77FD57FC47FB37FA27F917FD9
:1038A000F67F7B7F002E012E43F008BC0FB8607FAF
:1038B000002E606F00B2012F982ED9B14030212E1A
:1038C000B8F0F66F916FA26FB36FC46FD56FE76FEB
:1038D0007B6F806F605FC82EA050807FE77FD57FB1
:1038E000C47FB37FA27F917FF67F7B7F002E012E66
:1038F00029F008BC0FB8607F002E606F01901B2F6D
:10390000012E02010EBC0EB80090052F012E0401FD
:103910000FBC0FB801B20D2F012E63000190042FD0
:10392000982E6DB20030212E6300012E37F0212E2B
:1039300037F0022D982E45B38030212EB8F0F66F67
:10394000916FA26FB36FC46FD56FE76F7B6F806F9E
:10395000605FC82E4030212EBAF0B82E8030212E64
:10396000BAF010248000032E06F0080A212E06F07B
:10397000003E032E06F008085130010A212E06F001
:10398000B82E0031212EBAF0B82E1030212EBBF007
:10399000B82E802E1800FD2DAA00050000000000A2
:1039A00004000100ED8FD931C6018C03C60100006F
:1039B0000E000E001000100010006050E77FF67F30
:1039C00036300F2E01F0FEBFFEBBB705A67FD37FBA
:1039D000C47FB57F142489F03F8B03414441B8BDB7
:1039E0009C0BA36F14241900B311438B1643002EB4
:1039F00067414641F8BFBE0BB3111643438D002EFD
:103A0000A5418641D8BE6E0BEB1003431330272E21
:103A100018000331272EB8F0F66FE76FC46FB56F4B
:103A2000D36FA05FC82EA050807F917FE77FD57FA6
:103A3000C47FB37FA27FF67F7B7F002E012EB9F07B
:103A4000607F1030616F080800B2012F982EE6B039
:103A50001030212EB9F0212E5FF0F66F916FA26F1A
:103A6000B36FC46FD56FE76F7B6F806F605FC82ED9
:103A7000982E9E012026982EDE00982EF900982E72
:103A8000F500982EE2001030212E59F0982E940166
:103A9000213010241900002E002ED02E052E1800E3
:103AA00080B20230052F232E5FF0252E1800982EAD
:103AB00000B0982E51B2EC2D1A242600802E6C01F5
:103AC0001050012E55F0F07F002EF06F212E55F092
:103AD000F05FB82E20500030E07FFB7F1124B1F062
:103AE00042404330930A424258821224AF0062425D
:103AF0001224FF0042426982723C43409A0883329A
:103B0000930A42424282023F43409A0852420B319A
:103B10004B427E82123142421124FE00052E40F0BB
:103B200051085E90272F11240002122405801324CF
:103B3000FFB71B2400B00430053056326E1A002F38
:103B4000A534691A012F5B25002E5641260D06303B
:103B5000CFBB41BEC091012F002E012D220D818DC2
:103B600090A1F52FEB0EE82F012E2500201A052F2E
:103B70002030E07F032D3030E07F002EE06F00B278
:103B8000032F212E59F0982E9401FB6FE05FB82E81
:103B9000802E1800802E1800B050F07F002E012ECD
:103BA000010102BC0FB8E07F002E012E010101BC13
:103BB0000FB8D07F002E012E01010FB8C07F023058
:103BC000E66FD46FC36F8091042F0091022FC0B2B3
:103BD000902EE2B0F06F0B2E240001824091142F42
:103BE0004187272E24000040212E1F00534010241F
:103BF00020001342002E41400142252E1C00252E9C
:103C00001D00252E2200505FB82E0B2E0001D5BEC0
:103C1000D5BAB57F002E0B2E0101D3BED3BAA57F36
:103C2000002E0B2E0001D4BEDFBA957F002E956FBB
:103C30000F2E1E003D1A052F252E1C00252E1D00BF
:103C40002B2E1E00827F727F8091627F012F0630B3
:103C5000072D06400F2E1F00B70580A9D605B723F4
:103C6000867F0091012F0430072D44400D2E200047
:103C7000260500A994052623747FC090012F002EED
:103C8000092D0286002EC340092E2100DC04C0A8A5
:103C900093049A22627F1230846FB36F630F1430E3
:103CA000082F746F630F1430042F646F630F143088
:103CB000002F0430547F40910B2E1C00546FA36FD3
:103CC0006A291D2F00910630142420000D2F2D2E5F
:103CD0001C00052E1D008184252E1D00052E1D00B3
:103CE000530E2B2F2D2E2200292D2B2E1C002D2E76
:103CF0001D000B2E1C006B0E202F252E22001E2DCA
:103D000000B3052F0230252E1C00252E2200082D81
:103D10002B2E1C00092E1C00630E012F252E2200C5
:103D20000240252E1F003125002ED54012242000F0
:103D300042259542002EC3408342002E052E2200CC
:103D400080B20D2F0040212E1F0050401043002E46
:103D5000404000432030212E5EF0022D252E24000D
:103D6000505FB82E3050FB7F982E23B213244F00A3
:103D7000D042C142FA82D17FE37F982E8DB1D16FBC
:103D8000002E414040B26D2FE16F4484032E4F005E
:103D90008340B7844B048142002E8340C0AC012F86
:103DA000232E4B001225934082401A0F012FC0ACE6
:103DB000022F0330272E4B004286C984C040434067
:103DC000180E8240252F1225122451008F80824028
:103DD000E07F982E69B1E16F002E404277827B84AC
:103DE000B986D68041408240C340E07F982E69B1B9
:103DF000E16F002E404277827B84B886D7804140B5
:103E00008240C340E07F982E69B1E16F002E4042AE
:103E1000242D11245B0045804140E07F982E7BB12A
:103E2000E16F002E40427C827B84B486D680414084
:103E30008240C340E07F982E7BB1E16F002E40426C
:103E40007C827B84B386D78041408240C340E07F40
:103E5000982E7BB1E16F002E4042982EC5B11130F3
:103E6000232E5EF0FB6FD05FB82E3050F37FE27FE1
:103E7000D17F13244E00D16FE46FE240F06F210533
:103E8000C340A21003041018D05F0E00B82E3050AB
:103E9000F37FE27FD17F13244E00E16FD46FE240C5
:103EA000F06F2105C340A21018041018D05F0E0057
:103EB000B82E012E02018EBC012E4A009EB8011AB6
:103EC0002E2F012E02010EBC0EB8212E4A00032E09
:103ED0004A0043B210244D001B2F42B2112F41B2B1
:103EE000062F0130114201423E80002E0142B82EC1
:103EF00041331142613001423E8011248000014271
:103F0000B82E01301142513001423E80413301420E
:103F1000B82E71301142413001423E808131014260
:103F2000B82E10246000112452F01240524228B5DD
:103F30005242002E1240424242820040504208B497
:103F400040427E80A8B40142B82E1224590090400D
:103F5000848220505042778082404242FB7F05821B
:103F6000004040427C800582004040427C800582C7
:103F7000004040427784002E90408482824050422C
:103F8000778042420582004040427C8005820040AA
:103F900040427C800582004040427C82E17F982E36
:103FA00023B2E26F002E90428142BC82102433F093
:103FB00023400240B8BD9A0A03805242002E23409B
:103FC0000240B8BD9A0A03805242002E22400040AF
:103FD00028BD100A4042002EFB6FE05FB82E11246E
:103FE00028F050506040F07F51256040E07F002E67
:103FF0004140D17F002EE26FD06F00B2F36FA8B8BE
:1040000028BE590A200A012FB05FB82E4541C57F4E
:10401000002EC56F4091092F052E28F0B27F002E8B
:10402000B26F1A1A072FF03F1325052D151A022F0C
:104030001024FF00200AB05FB82E012E03018FBCB0
:10404000012E23009FB8011A122F012E03010FBC6D
:104050000FB8212E23001130052E23005108D23F26
:10406000012E07F0020891BC010A212E07F0B82E9C
:10407000B82E105012246D0000301B2DF16FD100AE
:10408000002EC042BD84D100002EC0428984D100E0
:10409000002EC042BD84D100002EC0428984D100D0
:1040A000002EC042BD84D100002EC0424182F17F6B
:1040B000B784F16F42A2E12FF05FB82EC050927F1B
:1040C000FB7F817F0030607F707F507F002E032E4A
:1040D00004019DBC9EB8417F002E426F527FE27F5B
:1040E000002E836FC382D37F0C2D556F7F89DC0137
:1040F0009D01CB418B43CC014D01C7414743547FC8
:10410000002E546F00ABF02F9B6F8A004B42C27F92
:10411000B17F507F7D80A07F132408013F2D506F19
:104120001801C684C80050000541C7404440616F73
:10413000736F2F1800B30B2F10A1032F3089BC1100
:10414000CE17062D74130631B405BE15FC11AE0B47
:104150004E00DF02617F737FB7840182D1008680C9
:10416000A26F11018100C340054184401D18726F88
:1041700000B3636F0B2F10A1032F3089BC11CE1732
:10418000062D74130631B405BE15FC11AE0BDE040A
:104190009706637F727F517F3D86B16FE26F506FEC
:1041A000420EBC2FE06FC68298004800C06F83406B
:1041B00004404240616F706F80B21C180B2F90A0BA
:1041C000032FB084BA11CE17062D0331DA04FB1485
:1041D0003213FA11A30B4E000702617F707F002E8D
:1041E000726F80A8606FD16F132F8090032F1324FC
:1041F000FF7F430F0D2FBFA0072FBF90032F122467
:104200000080420E012F4042072D102400804042C2
:10421000032D1024FF7F4042002EFB6F405F404083
:10422000B82E11246300305010305042FB7F102410
:1042300033F023400240B8BD9A0A03805242002E58
:1042400023400240B8BD9A0A03805242002E234008
:104250000240B8BD9A0A3C8042427E84E07F86825A
:10426000D17F002E8240982E92B2D16F7D82002E97
:1042700040427E800B820240D17F982E92B2D16F55
:104280007882002E40427E8010820240D17F982E9C
:1042900092B2D16F7382002E40427E80E16F124055
:1042A000524228B55242002E1240524228B5524284
:1042B000002E0040504208B44042002EFB6FD05FF9
:1042C000B82E802E1800802E1800802E1800802E08
:1042D0001800802E1800802E1800802E1800802EC6
:1042E0001800802E1800802E1800802E1800802EB6
:1042F0001800802E1800802E1800802E1800802EA6
:104300001800802E1800802E1800802E1800802E95
:104F90001800802E1800FD2DB84F000800000020DA
:104FA00054000000582B00080C500008540000204A
:104FB0002C0B0000682B000800000000000000001F
:104FC000000040020100000000000000000000009E
:104FD0000000000000000000C53600081937000876
:104FE000F9040008000000000000000000000000BC
:104FF00000000000010000001000000000000000A0
:0C5000000024F40000000000000000008C
:04000005080001F9F5
:00000001FF
