:020000040800F2
:10000000804800205D020008032D00088D2A0008AA
:10001000012D0008FB0F00087544000800000000D7
:100020000000000000000000000000009D0100082A
:100030003513000800000000F90100085D410008C8
:1000400077020008770200087702000877020008AC
:100050007702000877020008371300083D130008F4
:10006000770200087702000877020008770200088C
:10007000770200087702000877020008770200087C
:10008000770200087702000877020008770200086C
:10009000770200087702000877020008770200085C
:1000A000770200087702000877020008770200084C
:1000B000770200087702000877020008770200083C
:1000C000770200087702000877020008770200082C
:1000D00077020008694400087702000877020008E8
:1000E000770200087702000877020008770200080C
:1000F00077020008770200087702000877020008FC
:1001000077020008770200087702000877020008EB
:1001100077020008770200087702000877020008DB
:100120007702000877020008FD0F0008AD120008F2
:1001300077020008000000000000000077020008BD
:1001400077020008770200087702000877020008AB
:10015000770200087702000877020008770200089B
:10016000770200087702000877020008770200088B
:10017000770200087702000800000000000000007D
:100180007702000877020008DFF80CD000F062F96F
:1001900000480047D15B0008804800202C4B1968BC
:1001A0000868B0E8F04F80F30988BFF36F8F4FF015
:1001B000000080F3118870470000000008480068C4
:1001C000006880F308884FF0000080F3148862B65E
:1001D00061B6BFF34F8FBFF36F8F00DF00BF00BF6B
:1001E00008ED00E0DFF80C00016841F470010160E7
:1001F000704700BF88ED00E0EFF30980BFF36F8F19
:10020000134B1A681EF0100F08BF20ED108A20E96A
:10021000F04F106009B44FF0500080F31188BFF325
:100220004F8FBFF36F8F06F047F94FF0000080F358
:10023000118809BC19680868B0E8F04F1EF0100F6B
:1002400008BFB0EC108A80F30988BFF36F8F704746
:1002500014000020EFF30580704700000648804737
:1002600006480047FEE7FEE7FEE7FEE7FEE7FEE79B
:10027000FEE7FEE7FEE7FEE7FD4100088901000812
:100280009FED1A1AF5EE000A40EE010ABDEEE00AF3
:10029000F5EEC00A10EE100AF1EE10FA38BF401E5B
:1002A00000EE100A1349F7EE001AB8EEC00A30EE5D
:1002B000C00ADFED0F0A20EE200AFCEEC00A10EEA5
:1002C000900AC0F3080000EE900A01EB8000F8EEFF
:1002D000600A90ED011A70EE600A90ED000A71EE6E
:1002E000E01A21EE800A00EE810A704783F9223E6F
:1002F0000000004444690008DFED190AB5EEC00AA9
:1003000060EE200ABDEEE01A11EE100AF1EE10FACE
:1003100038BF401E00EE100A1349F7EE001AB8EE7F
:10032000C00A30EEC00ADFED0F0A60EE200ABCEE14
:10033000E00A10EE100AC0F3080000EE100A01EB0C
:100340008000B8EE400A90ED011A70EEC00A90ED00
:10035000000A71EEE01A21EE800A00EE810A704771
:1003600083F9223E00000044446900082DE9F05F53
:100370000546002092469B46884606468146402414
:100380001BE0284641464746224600F053F85346B4
:100390005A46C01A914110D311461846224600F021
:1003A0003AF82D1A67EB01084F462246012000213A
:1003B00000F031F817EB00094E41201EA4F10104B2
:1003C000DFDC484631462A464346BDE8F09F40EA16
:1003D00001039B0703D009E008C9121F08C0042AC3
:1003E000FAD203E011F8013B00F8013B521EF9D2AA
:1003F0007047D2B201E000F8012B491EFBD27047D2
:100400000022F6E710B513460A4604461946FFF7E0
:10041000F0FF204610BD202A04DB203A00FA02F14A
:10042000002070479140C2F1200320FA03F31943E2
:1004300090407047202A04DB203A21FA02F0002184
:10044000704721FA02F3D040C2F1200291400843E4
:1004500019467047064C074D06E0E06840F001037E
:1004600094E8070098471034AC42F6D3FFF790FEAB
:10047000647100088471000870B58C1810F8015B75
:1004800015F0070301D110F8013B2A1106D110F82D
:10049000012B03E010F8016B01F8016B5B1EF9D131
:1004A0002B0705D40023521E0DD401F8013BFAE7B7
:1004B00010F8013BCB1A921C03E013F8015B01F822
:1004C000015B521EF9D5A142D8D3002070BD0000B7
:1004D000464910B54A6822F440324A604A68436887
:1004E0001A434A6001684A6822F480724A600168CF
:1004F0004A68036942EA03224A6001684A6822F0B6
:1005000040724A6001684A6883681A434A60016819
:100510008A6822F400628A6001688A68C3681A43A4
:100520008A60816A6FF07062D14201688A6822F045
:1005300070628A6001688A680CD0836A1A438A6094
:1005400001688A6822F040528A6001688A68C36A3A
:100550001A4301E022F040528A6001688A6822F062
:1005600002028A6001688A68037E42EA43028A6066
:1005700090F82010002901684A680FD042F4006208
:100580004A6001684A6822F460424A6001684A6829
:10059000174C436A04EB43331A4301E022F4006230
:1005A0004A600168CA6A22F47002CA620168CA6AB3
:1005B000838B104C04EB03531A43CA6201688A68A8
:1005C00022F400728A6001688A6890F8303042EA4A
:1005D00043228A6001688A6822F480628A60016826
:1005E0008A68406942EA8020886010BD002301408B
:1005F00000E0FFFF0000F0FF03F060BF03F0F4BF76
:10060000FFF73EBEF0EE400AF5EEC00AF1EE10FA3A
:1006100002DDB0EE600A7047B1EE600AFBE7000051
:10062000002803D09FED020A80ED000A7047000009
:1006300000000000002803D0B3EE060A80ED000A97
:100640007047000070B52DED0C8B84B006460C464B
:1006500015469FED990AF0EE408A9FED970AB0EE9D
:10066000409A9FED950AF0EE40BA9FED930AF0EEA6
:10067000409A9FED910AB0EE40AA0EB104B11DB9A7
:1006800004B0BDEC0C8B70BD8C48FFF7C9FF8C48E3
:10069000FFF7D0FF8A48D0ED000A9FED8A1A60EE7E
:1006A000810AB0EE600A00F025F9F0EE408A28EEEB
:1006B000A80AF0EE408A8248D0ED000AB0EE001A97
:1006C00060EE810A9FED7F1A60EE810AB0EE600A4B
:1006D00000F010F9B0EE409A29EE090AB0EE409A07
:1006E000DFED790AB7EE000A00EEA80ADFED770A1F
:1006F00000EEC90ADFED760A20EE200A754880ED8B
:10070000000A6E4890ED000ADFED730A80EE201AB1
:10071000B7EE000A31EE000A20EE000A6D48D0ED77
:10072000000A80EE801A6D4880ED001A94ED000AF0
:10073000B5EEC00AF1EE10FA0DD194ED010AB5EE56
:10074000C00AF1EE10FA06D194ED020AB5EEC00A25
:10075000F1EE10FA46D09FED580AB0EE408A002024
:10076000019002900390D4ED000A60EEA00A94ED8F
:10077000011AD4ED011A41EE210A94ED021AD4EDCA
:10078000021A41EE210AB0EE600A00F0A9F8B0EEBC
:10079000408A94ED000A20EE080A8DED010A94EDDE
:1007A000010A20EE080A8DED020A94ED020A20EEFD
:1007B000080A8DED030ADDED010AF1EE600AB0EEE4
:1007C000600AFFF719FFF0EE409A9DED031AF0EE74
:1007D000410A9DED021AB0EE410AFFF70FFFB0EE9D
:1007E00040AA07E09FED340AF0EE409A9FED320AEE
:1007F000B0EE40AA95ED000AB5EEC00AF1EE10FA8F
:100800000DD195ED010AB5EEC00AF1EE10FA06D150
:1008100095ED020AB5EEC00AF1EE10FA3CD0B0EE4A
:10082000690A00F067F8B0EE408AB0EE690AFFF797
:10083000E7FEB0EE40DAB0EE4A0A00F05BF8F0EE08
:1008400040AAB0EE4A0AFFF7DBFEB0EE40BA28EE4F
:100850002A0AD5ED010A20EE200AD5ED000A0DEE98
:10086000200A68EE0B0A95ED021A00EE810AB0EE3E
:1008700040CA95ED010A20EE0B0AD5ED020A0AEEF8
:10088000E00AF0EE40CAF0EE6C0AB0EE4C0AFFF758
:10089000B5FEF0EE40BA03E09FED070AF0EE40BA75
:1008A000B0EE4A1AF0EE690AB0EE6B0A304604F078
:1008B000BBF900BFE4E60000000000007C0100205E
:1008C0008001002035FA8E3CC1BFAD3B9DF8C53696
:1008D0002F7C1C4184010020506CC24A88010020FA
:1008E00010B503F0A9FFB7EE001AC1EE000AB0EE92
:1008F000600A10BDFFF700BD2DE9F0412DED028B20
:100900009AB00546B0EE408A0E461746984600203B
:100910001790189019901490159016904DB146B1FB
:100920003FB1B8F1000F04D0B5EEC08AF1EE10FA75
:1009300005D100201AB0BDEC028BBDE8F08196ED28
:10094000000A8DED170A96ED010A8DED180A96ED55
:10095000020A8DED190A97ED000A8DED140A97ED44
:10096000010A8DED150A97ED020A8DED160A17AAF8
:1009700014A9284603F0AAFF402104A8FFF740FD70
:1009800000200090019002900390002417A904A871
:1009900005F003FC00BF30E004A800EB041090ED6C
:1009A000000AD5ED000A20EE200A04A800EB04108E
:1009B000D0ED010A95ED011A00EE810A04A800EBC2
:1009C0000410D0ED020A95ED021A00EE810A04A887
:1009D00000EB0410D0ED030A95ED031A00EE810A36
:1009E00020EE080AF0EE000A80EE201A684600EBBE
:1009F000840080ED001A601CC4B2042CCCDB0024FF
:100A000010E005EB840090ED000A684600EB8400DE
:100A1000D0ED000A30EE200A05EB840080ED000ADC
:100A2000601CC4B2042CECDB284605F055FB012009
:100A300080E7000001221021014801F036BA0000D1
:100A40000008024000221021014801F02EBA0000E7
:100A500000080240704705F0D6B870B54FF0E024AA
:100A600000226569A8214843A169A3698B42FCD093
:100A700002D2A1EB030102E0A5EB030631440A44D4
:100A800019468242F1D370BD274A08B5A2F10C0184
:100A9000101D00F079F824481430A0F12403A0F1CF
:100AA0005802A0F164010090703804F007FF1E4A5C
:100AB000443AA2F10C0101F11800FFF7C3FD1A48F6
:100AC0005038A0F1180190ED000AA0F1240281ED48
:100AD000000AA0F1300382ED000A83ED000A90EDD8
:100AE000010A81ED010A82ED010A83ED010A90ED10
:100AF000020A102081ED020A0C4982ED020A83ED00
:100B0000020AC861084601F013FD08B100F019FCA3
:100B100007490822A1F1080003F02EFA0449012038
:100B20001A39C87008BD00003C430020540400205E
:100B3000DE0000207047000001222021014801F062
:100B4000B4B900000008024000222021014801F051
:100B5000ACB900000008024010B5FFF7EBFFFFF74B
:100B600079FF04F09FF908B1802402E004F012F943
:100B7000044604F04FFB10B144F0400010BD04F0F7
:100B8000DBFA204310BD00002DE9FC4107460020A0
:100B900016460D4600900190FFF754FF922000F09A
:100BA000C3F806226946122000F0A0F8FFF742FFC2
:100BB0009DF801009DF80010000200B2084300EE0D
:100BC000100A494CB8EEC00AD4ED030A20EE200A00
:100BD00085ED000AE0809DF803009DF802100002F8
:100BE00000B2084300EE100AD4ED030AB8EEC00AC2
:100BF00020EE200A85ED010A20819DF805009DF870
:100C00000410000200B2084300EE100AB8EEC00A59
:100C100020EE200A85ED020A6081FFF795FF082289
:100C20006946002000F062F8FFF786FF9DF800009B
:100C30000F2833D19DF803009DF80210000200B286
:100C4000084300EE100AD4ED040AB8EEC00A20EE04
:100C5000200A87ED000A20809DF805009DF8041009
:100C6000000200B2084300EE100AD4ED040AB8EE08
:100C7000C00A20EE200A87ED010A60809DF8070077
:100C80009DF80610000200B2084300EE100AB8EE0C
:100C9000C00A20EE200A87ED020AA080FFF7D2FEEC
:100CA000A22000F041F802226946222000F01EF83E
:100CB000FFF7C0FE9DF800009DF80110C00040EA5B
:100CC0005110B0F5806F01DBA0F5006000EE100A56
:100CD000B4EE001AF8EEC00AB3EE070A00EE810A7D
:100CE00086ED000ABDE8FC818C00002070B514463A
:100CF0000D4640F0800000F017F806E0552000F0A7
:100D000013F8641E05F8010BE4B2002CF6D170BD97
:100D100010B50C4640F0800000F006F8552000F0B9
:100D200003F8207010BD000001B582B04FF47A7056
:100D30000090012301AA02A9024801F0A5FC9DF838
:100D400004000EBD54040020F8B55C4C2078400728
:100D500008D5207820F004002070594904F11B00C8
:100D600000F004F96078564D4007A5F114050AD546
:100D7000607820F00400607005F12002291DA2F1C6
:100D80002A0000F0B3F8A078400709D5A07820F039
:100D90000400A0704A494948091F0A3000F016F9BA
:100DA00047481030A0F12403A0F15802A0F16401DB
:100DB0000090703804F082FD41487838A0F10C01B1
:100DC00090ED001A00F10C0481ED001AD4ED000A38
:100DD000C0ED000A9FED3B0A00F1240200F1300350
:100DE00060EE801ADFED380A92ED002A41EE201AFB
:100DF0009FED361A42EE011AC4ED001AD0ED011A29
:100E0000C1ED011A94ED012A80ED012A22EE002A9B
:100E100001EEA02AD2ED011A01EE812A84ED012A09
:100E200090ED022A81ED022AD4ED021A2431C0EDA0
:100E3000021A21EE800A3C3002EE200AD2ED020AAC
:100E4000183A00EE810A84ED020A9FED210AFFF7AD
:100E500053FD04F14803A3F108063146321DA1F108
:100E6000100004F0FDFBD6ED000A9FED1A0A04F114
:100E70008C0060EE800AC0ED000AD6ED010A60EE3B
:100E8000800AC0ED020AD6ED020A20EE800A80ED4B
:100E9000030A94ED000A80ED060A94ED010A80ED44
:100EA000070A94ED020A80ED080A95ED080A80ED24
:100EB000090ABDE8F84004F0F1BD0000C4000020BC
:100EC000404300205AF8F63F5D896EBFD5A9183B14
:100ED0006F12033BE12E654210B50C46FFF724FF6D
:100EE0002046BDE81040FFF71FBF000030B5437833
:100EF00004781B021BB2234300EE103A194CB8EEE3
:100F0000C00AD4ED030A20EE200A81ED000AC3785E
:100F100085781B021BB22B4300EE103AD4ED030A76
:100F2000B8EEC00A20EE200A81ED010A4379047967
:100F30001B021BB2234300EE103AB8EEC00A20EEAB
:100F4000200ADFED090A81ED020AD0F8060020F040
:100F50007F4000EE100AB8EE400A20EE200A82ED33
:100F6000000A30BD8C00002000401C4210B54278C1
:100F70000378120212B21A4300EE102A124BB8EE96
:100F8000C00AD3ED040A20EE200A81ED000AC278DF
:100F90008478120212B2224300EE102AD3ED040A22
:100FA000B8EEC00A20EE200A81ED010A42790079EC
:100FB000120212B2024300EE102AB8EEC00A20EE6E
:100FC000200A81ED020A10BD8C00002002784078D2
:100FD000D20042EA5010B0F5806F01DBA0F500604E
:100FE00000EE100AB4EE001AF8EEC00AB3EE070ADB
:100FF00000EE810A81ED000A7047FEE72DE9F05FFF
:10100000A448A54BA54CC06CA34DA44EA24F0068AC
:10101000A149DFF88892DFF880A2DFF880B2DFF81C
:1010200078E29E4A483B603418351836303F09F163
:1010300078090AF1300A4FF4006C0BF1300BAEF175
:10104000180E884223D99449543926E0A84233D156
:101050004FF020080AE0504535D1E04606E000BFD9
:101060004FF4001802E000BF4FF0006811EA080FCB
:101070007CD08949884253D9904205D0984203D008
:10108000A04201D0A8422FD14FF0200C45E0834967
:10109000A831884203D980495839096805E07F4959
:1010A000483188427E49F8D949689042D0D0984268
:1010B000CED0A042CCD0C9E7B042CED0B842CCD03E
:1010C0004845CAD0C7E75845CAD07045C8D0DFF8F0
:1010D000CC8108F190084045C2D0DFF8BC8108F10E
:1010E00048084045C0D1BBE7B04216D0B84214D042
:1010F000484512D0504510D0584509D0704507D00A
:1011000066499031884203D063494831884202D110
:101110004FF4001C01E04FF0006C5F484C382AE0AF
:101120005E49A831884229D9904205D0984203D01F
:10113000A04201D0A84202D14FF0200C19E0B042E9
:1011400017D0B84215D0484513D0504511D0584556
:1011500009D0704507D051499031884203D04E499B
:101160004831884203D14FF4001C02E08FE04FF079
:10117000006C49485038C0F800C052E04749483137
:10118000884227D9904205D0984203D0A04201D08E
:10119000A84202D14FF0200C18E0B04216D0B8425D
:1011A00014D0484512D0504510D0584509D070454C
:1011B00007D03A499031884203D0374948318842B4
:1011C00002D14FF4001C01E04FF0006C3448C0F82D
:1011D0000CC026E0904205D0984203D0A04201D036
:1011E000A84202D14FF0200C18E0B04216D0B8420D
:1011F00014D0484512D0504510D0584509D07045FC
:1012000007D026499031884203D02349483188428B
:1012100002D14FF4001C01E04FF0006C2048C0F8F0
:1012200008C0204C2078204D80070CD5207820F075
:1012300002002070207840F004002070012220215C
:10124000284600F032FE607880070CD5607820F0E8
:1012500002006070607840F004006070012210218C
:10126000284600F022FEA07880070CD5A07820F058
:101270000200A070A07840F00400A07001221021AC
:10128000284600F012FEBDE8F05F04F08DBBBDE81B
:10129000F09F000054040020586402401060024097
:1012A00000600240C400002000080240014800F035
:1012B0000FBB00000C05002001681823CAB2103AC9
:1012C000B2FBF3F2054B6FF30901032A9B5CC36584
:1012D00000D9091D8165084670470000C4680008F0
:1012E00010B5014600208B698A6A4FF0C07453B173
:1012F000B3F5005F15D072B1012A0CD0022A0AD0D2
:10130000032A09D104E01AB1012A06D0022A03D126
:10131000C96AC90100D5012010BDC96AA142FAD02D
:1013200010BD002AF7D0012AF2D0022AF3D0032AF6
:10133000F3D010BD7047012000F0C8BC022000F0BF
:10134000C5BC7047002229B101291AD002291BD03F
:101350004FF440720E490B6823F440730B600B6826
:1013600013430B600A6822F0F8020A600A6802233D
:1013700003EBC00002430A60086840F48030086054
:1013800070474FF48072E5E74FF40072E2E7000027
:10139000103C02401348016889050FD5016821F40B
:1013A00000710160016841F400610160016821F48D
:1013B00000610160016841F4007101600168490544
:1013C0000FD5016821F480610160016841F480510A
:1013D0000160016821F480510160016841F480617D
:1013E00001607047003C024008490A6822F44072DC
:1013F0000A600A6842F004020A600A684FF4803307
:1014000043EA002002430A6070470000103C02409B
:10141000064A136823F4407313601368136013685B
:1014200043F001031360017070470000103C02405C
:10143000094910B50C6824F440740C600C6844F43D
:1014400040740C600C6844F001040C600260BFF34F
:101450006F8F436010BD0000103C0240074A1368C4
:1014600023F440731360136843F4807313601368AC
:1014700043F001031360018070470000103C0240FC
:10148000074A136823F440731360136843F400732E
:101490001360136843F0010313600160704700009C
:1014A000103C024017490868C206174805D5C269B2
:1014B00042F01002C26110220A600A68920605D545
:1014C000C26942F00802C26120220A600A6852061C
:1014D00005D5C26942F00402C26140220A600A686E
:1014E000120605D5C26942F00202C26180220A607A
:1014F0000A68920705D5C26942F02002C261022043
:10150000086070470C3C0240AC05002070B51149E2
:1015100004460020C86100F0CDFC06460E4D09E0EF
:10152000601C07D024B100F0C5FC801BA04201D98B
:10153000032070BD2868C003F2D42868C00701D01A
:1015400001202860286810F0F200F2D0FFF7AAFF0F
:10155000012070BDAC0500200C3C024078B5002491
:10156000009490F83C20012A19D0012280F83C20F8
:101570000A6807230568092A13D9EE680A3A02EBBC
:10158000420293409E43EE600B788A680A3B03EB6D
:1015900043039A400368DD682A43DA6010E00220C2
:1015A00078BD2E6902EB420293409E432E610B7878
:1015B0008A6803EB43039A4003681D692A431A6152
:1015C0004A681F23072A13D205686E6B521E02EB6E
:1015D000820293409E436E630B790A885B1E92B22F
:1015E00003EB83039A4003685D6B2A435A6327E049
:1015F00005680D2A12D22E6BD21F02EB8202934095
:101600009E432E630B790A88DB1F92B203EB8303A0
:101610009A4003681D6B2A431A6311E0EE6A0D3A83
:1016200002EB820293409E43EE620B790A880D3BE7
:1016300092B203EB83039A400368DD6A2A43DA62BD
:10164000164B0568144A9D4206D10D68122D03D130
:10165000556845F48005556005689D4218D10B68B2
:10166000102B01D0112B13D1536843F400035360A6
:10167000096810290CD10A490A4A0968B1FBF2F13C
:1016800001EB8101490000E0491E00910029FBD1D6
:1016900080F83C40002078BD00230140002001403C
:1016A0001000002040420F0070B504004FF000050C
:1016B00003D0206C002610B107E0012070BD204649
:1016C00000F01CF8666484F83C60206CC00610D4FE
:1016D000206C20F4885040F0020020642046FEF781
:1016E000F7FE6664206C20F0020040F001002064E8
:1016F00000E0012584F83C60284670BD08B500680C
:101700000649884208D10648016841F480710160A9
:10171000006800F48070009008BD000000200140C7
:101720004438024070B5040003D094F8200010B192
:1017300004E0012070BD204600F082F820680168B6
:1017400021F00201016000F0B5FB0546052604E02A
:1017500000F0B0FB401B0A2811D8206840688007C1
:10176000F6D42068016841F00101016000F0A2FB9D
:1017700005460BE000F09EFB401B0A2806D9606A74
:1017800040F40030606284F82060D2E7206840684E
:10179000C007EFD0207E0128206801683DD021F0ED
:1017A00080010160607E01282068016838D021F046
:1017B00040010160A07E01282068016833D021F03B
:1017C00020010160E07E0128206801682ED041F0F0
:1017D00010010160207F01282068016829D021F0D4
:1017E00008010160607F01282068016824D021F091
:1017F00004010160D4E902010843D4E90412114351
:1018000008436168491E08432168C861002060627E
:10181000012084F82000002070BD41F08001C0E765
:1018200041F04001C5E741F02001CAE721F0100175
:10183000CFE741F00801D4E741F00401D9E7000007
:1018400010B586B0044614216846FEF7D9FD144948
:101850002068884221D113480021026842F00072BA
:101860000260006800F0007005900E4810380268B1
:1018700042F001020260006800F0010005904FF4A0
:10188000C05000900220CDE90101032003900920FF
:1018900004906946044800F025FA06B010BD000027
:1018A00000640040403802400000024090F83510CB
:1018B000022903D08021416501207047052180F86D
:1018C00035100068016821F00101016000207047B7
:1018D0002DE9F84304464FF00009CDF80090634825
:1018E0004FF41651A56D0068B0FBF1F72E6894F81F
:1018F0005C10082000FA01F131420FD021680A681B
:1019000052070BD50A6822F004020A6094F85C10B2
:101910008840A860606D40F00100606594F85C103C
:101920004FF0010808FA01F0304208D021684969F7
:10193000090604D5A860606D40F00200606594F867
:101940005C1004208840304208D02168096889076B
:1019500004D5A860606D40F00400606594F85C10E8
:1019600010208840304218D021680968090714D532
:10197000A86020680168490304D50068000308D501
:10198000A16C07E00168C90503D4016821F00801D2
:101990000160216C09B12046884794F85C10202032
:1019A0008840304231D021680968C9062DD5A86029
:1019B00094F8350005282068016806D0490347D50A
:1019C000006800031DD4616C1CE021F01601016069
:1019D0002068416921F080014161206C08B9A06C48
:1019E00020B12068016821F00801016094F85C10C2
:1019F0003F208840A86084F8349084F83580216DB9
:101A00001FE0E16B09B120468847606D00282BD0AC
:101A1000606DC00714D0052084F835002068016887
:101A200021F0010101600098401C0090B84203D8E9
:101A300020680068C007F6D184F8349084F83580B7
:101A4000E16C002910D001B02046BDE8F043084702
:101A50000168C905D5D4016821F01001016084F83E
:101A6000349084F83580CCE7BDE8F883100000207E
:101A70002DE9F041044600F01DFA06465CB1002550
:101A800084F83450022084F835002068016821F081
:101A9000010101600DE00120BDE8F08100F00AFACB
:101AA000801B052805D920206065032084F83500B7
:101AB000F2E720680068C007F0D12268116820486A
:101AC0000140D4E901031843D4E9033633431843F2
:101AD00063691843A3691843E3691843236A1843E9
:101AE0000843616A042903D1D4E90B13194308435D
:101AF000106020684069666A20F0070130460E4396
:101B0000012704280CD1A06A0643E06A40B12046B0
:101B1000FFF7E6FB20B14020606584F83570BAE736
:101B2000206846612046FFF7C7FB94F85C203F2100
:101B300091408160656584F835700020ACE7000055
:101B40003F8010F02DE9F047044622480F46017E01
:101B500001290AD00121804601764CF250394846CD
:101B6000FFF7D4FC020003D02FE00220BDE8F0878D
:101B70004FF0FF3038602068174D012801D0A6686B
:101B80001CE0207C6168FFF72FFC4846FFF7BEFC95
:101B90000246286820F00400286014E0217C3046CA
:101BA000FFF7D0FB4846FFF7B1FC0200286820F0A1
:101BB000FA00286001D03E6005E0761CD4E90210EE
:101BC0000844B042EAD8FFF7E5FB002188F8181076
:101BD0001046CBE7AC050020103C024003480168EA
:101BE00041F000410160002070470000103C0240BD
:101BF0002DE9F0471B4E05461446307E1F468946A8
:101C0000012808D0012030764CF250384046FFF7CA
:101C10007DFC18B114E00220BDE8F0879DB1012DD4
:101C200016D0022D19D022463B464846FFF700FC4D
:101C30004046FFF76BFC0C490A6822F001020A607B
:101C400000213176E8E7E1B24846FFF7E1FBEFE734
:101C5000A1B24846FFF702FCEAE721464846FFF7F3
:101C60000FFCE5E7AC050020103C024007490020CE
:101C70000A68002A09DA054A054B0C3A1360054B3D
:101C800013600968002900DA01207047103C024007
:101C900023016745AB89EFCD0B4901280AD0022803
:101CA00011D1087840F001000870C87800280AD0E7
:101CB00003F07ABE487840F001004870887840F020
:101CC00001008870F1E77047C4000020044910B596
:101CD0000A68024202D00860FFF7DEFF10BD000074
:101CE000143C01402DE9F84F00224FF00108032574
:101CF0004FF00F0E0B6808FA02F42340A3426ED196
:101D00004E68012E05D0022E03D0112E01D0122EC6
:101D100012D186684FEA420C05FA0CF7BE43CF6831
:101D200007FA0CF7374387604668A6430C79C4F37B
:101D30000014944034434460C668570005FA07FC19
:101D40008C6826EA0C06BC403443C4604C68022C04
:101D500001D0122C13D1D40800EB8404A346D4F88C
:101D6000209054074FEAD46A0EFA0AF629EA0609C7
:101D70000E6906FA0AF646EA0906CBF820600668FC
:101D80000C7926EA0C0604F00304BC4034430460DA
:101D90004C68E40065D5364C266846F480462660DB
:101DA000246822F0030604F480440094314C344447
:101DB000A446D4F808489607370F0EFA07F6B4433E
:101DC0002D4EB04201D1002624E02C4EB04201D16C
:101DD00001261FE02A4EB04202D102261AE040E05E
:101DE000284EB04201D1032614E0274EB04201D163
:101DF00004260FE0254EB04201D105260AE0244E0C
:101E0000B04201D1062605E0224EB04201D107269C
:101E100000E00826BE402643CCF808681E4E346811
:101E20004F689C43FF0300D51C4334601A4C241DAB
:101E300026684F689E43BF0300D51E432660164E9A
:101E4000083634684F689C43FF0200D51C43346059
:101E5000114E0C3634684F689C43BF0200D51C43BA
:101E60003460521C102AFFF445AFBDE8F88F000023
:101E700044380240003001400000024000040240AB
:101E800000080240000C0240001002400014024012
:101E900000180240001C0240003C0140426931EA47
:101EA000020200D10904816170470AB18161704763
:101EB0000904FBE701488068704700000400002027
:101EC0000248816802781144816070470400002054
:101ED0000B4810B5016841F400710160016841F4DC
:101EE00080610160016841F480710160032000F0AD
:101EF00073F80F2000F006F800F024F8002010BD61
:101F0000003C024070B50D4D04464FF47A712878BC
:101F1000B1FBF0F00A490968B1FBF0F000F0A5FC54
:101F200048B9102C07D200222146501E00F034F888
:101F300000206C6070BD012070BD00000400002016
:101F4000100000200C4882B0016841F4804101601B
:101F5000006800F4804000900748001F016841F0CD
:101F6000805101600068002200F0805000900F2135
:101F7000901E02B000F010B844380240002809DB7F
:101F800000F01F02012191404009800000F1E02093
:101F9000C0F8001170470000F0B40E4B1B680C46EF
:101FA000C3F30223C3F10705042D00D90425191D2D
:101FB000072901D2002300E0DB1E012606FA05F105
:101FC000491E214099409E40761E16403143F0BC88
:101FD00002F064BA0CED00E0064900F00702086860
:101FE0004FF6FF03184040EA0220034A10430860FE
:101FF000704700000CED00E00000FA052DE9F04705
:102000000E46050065D0DFF81481D8F80000F7B25D
:1020100000F00F00B04207D288F80070D8F8000036
:1020200000F00F00B04254D128683D4C810712D512
:10203000400703D5206840F4E0502060287800076E
:1020400003D5206840F4604020602068A96820F033
:10205000F000084320602878C0072DD03049686818
:102060000839012812D0022813D0032811D009689A
:10207000890700292DDA216821F00301014321603D
:10208000FFF718FF814641F2883A0EE0096889039C
:10209000EFE709688901ECE7FFF70CFFA0EB090106
:1020A000514502D90320BDE8F0872068696800F037
:1020B0000C00B0EB810FEFD1D8F80010404601F0D2
:1020C0000F01B14207D90770006800F00F00B0425D
:1020D00001D00120E7E72878400705D52068E968A6
:1020E00020F4E050084320602878000706D52068D7
:1020F000296920F4604040EAC100206000F038F80F
:102100002168084AC1F30311515CC84006490860C0
:1021100006480068FFF7F6FE0020C4E7003C0240D6
:1021200008380240CC680008100000200800002099
:102130000448054900680968044AC1F38221515CDA
:10214000C84070471000002008380240DC680008D2
:102150000448054900680968044AC1F34231515CEA
:10216000C84070471000002008380240DC680008B2
:10217000154810B5006810F00C02144813D014492B
:10218000042A0FD0082A0ED10F4C241F226823687E
:1021900002F03F025B0207D52068C0F38810A0FB65
:1021A000010106E0084610BD2168C1F38811A1FBBA
:1021B00000010023FEF7DAF82168C1F30141491C50
:1021C0004900B0FBF1F010BD083802400024F400D3
:1021D000001BB7002DE9F84F040076D02078DFF817
:1021E00038A3CE4DC00749D0DAF800105046C1F3ED
:1021F0008101012908D00068C0F3810002280AD1BA
:10220000281D0068400206D52868800336D560681E
:102210000028E2D032E06068B0F5803F10D0B0F521
:10222000A02F286810D020F480302860286820F47F
:10223000802028606068A0B1FFF73CFE06460CE0F5
:10224000286840F48030F4E740F480202860F7E705
:10225000FFF730FE801B642873D828688003F7D509
:102260000CE0FFF727FE064605E000BFFFF722FE61
:10227000801B6428F0D828688003F7D42078DFF822
:10228000A08280074FF000093ED5DAF800105046D2
:1022900011F00C0F09D00068C0F3810002280BD1A7
:1022A0009D48001F0068400206D42868800715D5A5
:1022B000E068012809D111E0E068B8B10120C8F850
:1022C0000000FFF7F7FD064605E020E1FFF7F2FD0D
:1022D000801B0228C0D828688007F7D528682169A4
:1022E00020F0F80040EAC10028600DE0C8F8009036
:1022F000FFF7E0FD064604E0FFF7DCFD801B022847
:102300001FD828688007F7D42078000722D5824E8E
:10231000844861696C3671B101210160FFF7CAFD23
:10232000074604E0FFF7C6FDC01B022809D8306845
:102330008007F7D50EE0C0F80090FFF7BBFD074619
:1023400005E082E0FFF7B6FDC01B02287DD83068AB
:102350008007F7D42078400768D5DFF8BCB10027A4
:102360000BF1380BDBF80000C0000BD4DBF80010D9
:1023700041F08051CBF80010DBF80000012700F09D
:1023800080500090684E3068C00510D4306840F42A
:1023900080703060FFF78EFD009005E0FFF78AFD4A
:1023A0000099401A022850D83068C005F6D55A4E18
:1023B000A068683601280FD00528306810D020F0BA
:1023C00001003060306820F004003060A068B8B1CF
:1023D000FFF770FD00900FE0306840F00100F4E777
:1023E00040F004003060F7E7FFF764FD0099411A00
:1023F00041F28830814266D830688007F4D50EE01B
:10240000FFF758FD009007E0FFF754FD0099411ACF
:1024100041F28830814256D830688007F4D42FB119
:10242000DBF8001021F08051CBF80010A069D0B388
:10243000DAF800205146C2F38102022A4AD002286B
:10244000484607D0C8F8600000E03CE0FFF732FDE6
:1024500004463BE04746C8F86000FFF72BFD064600
:1024600005E000BFFFF726FD801B02282BD8286857
:102470008001F7D4D4E907010843A16A2B4A49082F
:1024800002EB0141626A41EA8211084394F82C1080
:1024900040EA01612048001F016001203866FFF713
:1024A00009FD044605E034E0FFF704FD001B0228A7
:1024B00009D828688001F7D52BE000BFFFF7FAFCA8
:1024C000001B022802D90320BDE8F88F286880018C
:1024D000F4D41EE00128F7D00868E26900F4800116
:1024E000914214D1226A00F03F0191420FD147F688
:1024F000C071626A0140914209D1A26A00F4403180
:10250000914204D1E16A00F07060884201D001205C
:10251000DAE70020D8E7000008380240003802401F
:1025200000004742800E4742007000400000FFFF5D
:1025300070B5040005D00025A56294F8510010B1D3
:1025400006E0012070BD84F85050204600F030F8BD
:10255000022084F851002068016821F040010160E8
:10256000D4E901010843D4E9031211430843616926
:102570000843218B01F400710843E1690843216A93
:102580000843A16A084321680860A069042101EAA0
:102590001040616A0843216848602068C16921F4DD
:1025A0000061C1616565012084F85100002070BDA3
:1025B0002DE9F04186B0064614216846FDF720FF5C
:1025C0002C493068884252D12B480024016841F4DC
:1025D00080510160006800F480500590264814384E
:1025E000016841F0010101600068694600F00100E6
:1025F0000590E02000900220CDE901040320039023
:10260000052004901D48FFF76DFB1E4D1C484FF040
:10261000C0672860C5E901744FF48068C5E90348C4
:102620006C617812AC61C5E9074028466C62FFF71F
:102630001FFA08B1FEF785FEF564AE63114D104830
:1026400060351830E5E802074020A5E81101C00216
:1026500045F81449AC61C5E907400A486C6260302E
:10266000FFF706FA08B1FEF76CFEB564AE6306B07C
:10267000BDE8F081003001404438024000000240D3
:1026800040640240AC0400202DE9F84F044690F865
:10269000500000270A9E1D4692468B464FF00109C6
:1026A00001280ED0012084F85000FFF703FC80467B
:1026B00094F85100616801280CD0B1F5827F07D1F0
:1026C00002E00220BDE8F88FA16809B9042801D012
:1026D0000227C2E0BBF1000F27D0BAF1000F24D0CF
:1026E0001DB394F85100042802D0052084F851004D
:1026F00000206065C4F838A0E587A587C4F830B02D
:10270000E586A5862064606420680168490603D4D4
:10271000016841F040010160E068B0F5006F606859
:1027200005D0E8B3012D46D07FE0012795E008B140
:10273000012D39D1206B21680088C860206B801C76
:102740002063E08E401EE0862EE0206881688907C5
:102750000FD5E18E69B1B9F1010F0AD1216B09885A
:10276000C160206B801C2063E08E401EE0864FF02D
:10277000000920688168C9070CD0E18F51B1C06899
:10278000A16B0880A06B801CA063E08F401EE087D7
:102790004FF00109FFF78EFBA0EB0800B04200E00C
:1027A00009E001D3701C50D1E08E0028CDD1E08F1C
:1027B0000028CAD13FE0206B216800780873206BA5
:1027C000401C2063E08E401EE0862EE02068816879
:1027D00089070FD5E18E69B1B9F1010F0AD1216BDB
:1027E00009780173206B401C2063E08E401EE08658
:1027F0004FF0000920688168C9070CD0E18F51B102
:10280000C068A16B0870A06B401CA063E08F401EE5
:10281000E0874FF00109FFF74DFBA0EB0800B04245
:1028200002D3701C01D010E07EB1E08E0028CDD123
:10283000E08F0028CAD142463146204601F014FC00
:1028400028B101272020606507E0032705E0A06884
:1028500018B92068C16880680090012084F8510090
:10286000002084F8500038462CE710B5401EB0F127
:10287000807F01D3012010BD4FF0E02460610F2163
:10288000601701F00BFE0020A061072020610020EE
:1028900010BD704770B5026804461068D16853696E
:1028A00010F00F0F52D003F0010501F490762E4383
:1028B0005FD0C20705D0CA0503D5E26B42F0010222
:1028C000E263420705D5DA0703D0E26B42F0020269
:1028D000E263820705D5DA0703D0E26B42F0040217
:1028E000E263020707D501F020022A4303D0E26B1E
:1028F00042F00802E263E26B002A33D0800604D57E
:10290000880602D5204601F09DFC20684069E16BF5
:10291000C0F38010090700D428B3204601F084FCDE
:102920002068416949061AD5416921F04001416199
:10293000606BA0B11B490165606BFEF7B7FF002813
:1029400010D0606B016DBDE870400847830610D55C
:102950008B060ED52046BDE8704001F073BC2046C2
:10296000FFF797FF70BD2046FFF793FF0020E0635D
:1029700070BD030606D50B0604D52046BDE87040A1
:1029800001F040BD4006F3D54806F1D5D168204698
:1029900021F04001D160202184F8391000F075F851
:1029A00070BD00001942000870B5040004D094F80E
:1029B0003900002510B106E0012070BD84F83850C0
:1029C000204600F023F8242084F839002068C168EC
:1029D00021F40051C160204601F080FC20680169AB
:1029E00021F4904101612068416921F02A0141618F
:1029F0002068C16841F40051C160E563202084F87B
:102A0000390084F83A00002070BD000010B586B08F
:102A1000044614216846FDF7F3FC184920688842F3
:102A200029D117480021026842F0100202600068B4
:102A300000F01000059012481438026842F00102BC
:102A40000260006800F0010005904FF4C060009043
:102A50000220CDE90101032003900720049069467C
:102A60000848FFF73FF9002205212520FFF794FAD7
:102A70002520FFF783FA06B010BD000000100140CA
:102A8000443802400000024070477047FEE70000F3
:102A90007FB50024154800940194029412490394D0
:102AA00001604FF48031C0E901140461047680F8BC
:102AB00020400F49C0E90A140125C561C46080F8AF
:102AC00030404561FEF7F0FD08B1FEF73AFC1020FA
:102AD000CDE90005694602940448FEF73FFD002851
:102AE00001D0FEF72EFC7FBD0020014090010020A8
:102AF0000100000F0F4810B50D490160032141602E
:102B000000214FF410228160C0E903124FF400123B
:102B10004261017641768176C17601774177FEF791
:102B200001FE002803D0BDE81040FEF70ABC10BD2E
:102B300000640040D80100200D4808B5016841F448
:102B4000800101600068002200F4800000901146BE
:102B50003A20FFF721FA3A20FFF710FA0022052168
:102B60003B20FFF719FABDE808403B20FFF706BA03
:102B70003038024000B587B01C2208496846FDF78E
:102B800026FC0021684603F058F80549086003F068
:102B90000BF802F0DDFF07B000BD0000A8680008D8
:102BA000000000202DE9F04186B014216846FDF7B1
:102BB00027FC2E480024016841F080010160016873
:102BC00001F080010591016841F001010160016897
:102BD00001F001010591016841F004010160016803
:102BE00001F004010591016841F0020101600068F3
:102BF0001F4F00F002000590002203213846FFF726
:102C000054F9DFF87080002230214046FFF74DF97B
:102C1000032501260095CDE90164694638460394F1
:102C2000FFF760F830200090CDE901646946404626
:102C30000394FFF757F810480095CDE90104694661
:102C40000E48FFF74FF8002205210620FFF7A4F9F0
:102C50000620FFF793F9002205210720FFF79CF9D2
:102C60000720FFF78BF906B0BDE8F081303802404D
:102C70000000024000080240000011100004024061
:102C8000104810B50E4901604FF482714160002177
:102C900002228160C0E90312012242615202826174
:102CA0003022C0E90721416281620A21C162FFF737
:102CB0003FFC002803D0BDE81040FEF742BB10BD2A
:102CC00000300140540400200C4810B50A4901604E
:102CD0004FF4E1314160002181600C22C160C0E904
:102CE00004128161C161FFF75FFE002803D0BDE8D7
:102CF0001040FEF726BB10BD001001406C050020FF
:102D0000FEE770472DE9F74FF84981B0086802687F
:102D100022F001020260F6480268136823F0010302
:102D2000136003E00A6822F001020A60EF490968B3
:102D30000A68D207F6D103E0016821F001010160C1
:102D4000EB4800680168C907F6D1EA48EA4AEB4B4C
:102D5000D0F84C90E84CE94DE74EE84FDFF898E3A7
:102D6000DFF894C3D9F80000E449483A60331834D6
:102D70001835303E78374FF4006A0CF1300C70454E
:102D800035D9884205D0904203D0984201D0A04264
:102D900001D1202026E0A84205D0B04203D0B8429D
:102DA00001D0604501D150461CE0DFF8508308F1A6
:102DB0003008404511D0DFF84083A8F1180840459D
:102DC0000BD0DFF8388308F19008404505D0DFF8D4
:102DD000288308F14808404502D14FF4001001E073
:102DE0004FF00060DFF81083A8F14C083AE0DFF8FC
:102DF0000C8308F1A808404537D9884205D0904295
:102E000003D0984201D0A04201D1202026E0A84260
:102E100005D0B04203D0B84201D0604501D1504640
:102E20001CE0DFF8D88208F13008404511D0DFF807
:102E3000C882A8F1180840450BD0DFF8C08208F11D
:102E40009008404505D0DFF8B08208F148084045B9
:102E500002D14FF4001001E04FF00060DFF89882DB
:102E6000A8F15008C8F8000074E0DFF8908208F17B
:102E70004808404537D9884205D0904203D098424F
:102E800001D0A04201D1202026E0A84205D0B042C6
:102E900003D0B84201D0604501D150461CE0DFF8B4
:102EA0005C8208F13008404511D0DFF84C82A8F16F
:102EB000180840450BD0DFF8448208F190084045DF
:102EC00005D0DFF8348208F14808404502D14FF4BC
:102ED000001001E04FF00060DFF82082A8F1100838
:102EE000C8F80C0036E0884205D0904203D09842E2
:102EF00001D0A04201D1202026E0A84205D0B04256
:102F000003D0B84201D0604501D150461CE0DFF843
:102F1000EC8108F13008404511D0DFF8DC81A8F1E0
:102F2000180840450BD0DFF8D48108F190084045DF
:102F300005D0DFF8C48108F14808404502D14FF4BC
:102F4000001001E04FF00060DFF8B081A8F1100838
:102F5000C8F80800D9F800004FF4806B704535D9E7
:102F6000884205D0904203D0984201D0A04201D1BE
:102F7000102026E0A84205D0B04203D0B84201D0CC
:102F8000604501D158461CE0DFF8708108F1300837
:102F9000404511D0DFF86081A8F1180840450BD0FA
:102FA000DFF8588108F19008404505D0DFF84881E6
:102FB00008F14808404502D14FF4801001E04FF07D
:102FC0008060DFF83481A8F14C083AE0DFF82C810A
:102FD00008F1A808404537D9884205D0904203D06F
:102FE000984201D0A04201D1102026E0A84205D08D
:102FF000B04203D0B84201D0604501D158461CE030
:10300000DFF8F88008F13008404511D0DFF8E8809B
:10301000A8F1180840450BD0DFF8E08008F19008CF
:10302000404505D0DFF8D08008F14808404502D17E
:103030004FF4801001E04FF08060DFF8BC80A8F111
:103040005008C8F800007AE0DFF8B08008F14808BE
:10305000404537D9884205D0904203D0984201D0EC
:10306000A04201D1102026E0A84205D0B04203D0F2
:10307000B84201D0604501D158461CE0DFF87C80A1
:1030800008F13008404511D0DFF86C80A8F118082D
:1030900040450BD0DFF8648008F19008404505D02A
:1030A000DFF8548008F14808404502D14FF4801001
:1030B00001E04FF08060DFF84480A8F11008C8F804
:1030C0000C003CE0884205D0904203D0984201D0E9
:1030D000A04201D110202CE0A84205D0B04203D07C
:1030E000B84201D060450BD1584622E0AC04002024
:1030F0000C05002054040020586402401060024077
:10310000DFF8688940450FD0DFF8648940450BD06F
:10311000DFF8588908F16008404505D0DFF850898C
:1031200008F16008404502D14FF4801001E04FF0F3
:103130008060DFF83889A8F14008C8F80800D9F89D
:103140000000704532D9884205D0904203D09842A1
:1031500001D0A04201D1082023E0A84205D0B0420E
:1031600003D0B84201D0604502D14FF4007018E09E
:10317000DFF8F88840450FD0DFF8F48840450BD0E1
:10318000DFF8E88808F16008404505D0DFF8E088FE
:1031900008F16008404502D14FF4002001E04FF0F3
:1031A0000070DFF8CC88A8F1340837E0DFF8BC887D
:1031B00008F17808404534D9884205D0904203D0C0
:1031C000984201D0A04201D1082023E0A84205D0B6
:1031D000B04203D0B84201D0604502D14FF4007034
:1031E00018E0DFF8888840450FD0DFF88488404534
:1031F0000BD0DFF8788808F16008404505D0DFF88B
:10320000708808F16008404502D14FF4002001E0C9
:103210004FF00070DFF85888A8F13808C8F80000AF
:103220006EE0DFF8488808F11808404534D9884234
:1032300005D0904203D0984201D0A04201D108208D
:1032400023E0A84205D0B04203D0B84201D0604587
:1032500002D14FF4007018E0DFF8108840450FD01D
:10326000DFF80C8840450BD0DFF8008808F16008D3
:10327000404505D0DFF8F88708F16008404502D1E5
:103280004FF4002001E04FF00070DFF8E087A8F174
:103290004008C8F80C0033E0884205D0904203D0C3
:1032A000984201D0A04201D1082023E0A84205D0D5
:1032B000B04203D0B84201D0604502D14FF4007053
:1032C00018E0DFF8A88740450FD0DFF8A487404515
:1032D0000BD0DFF8988708F16008404505D0DFF88B
:1032E000908708F16008404502D14FF4002001E0CA
:1032F0004FF00070DFF87487A8F14008C8F80800A4
:10330000DFF86C87D9F8000008F118084FF4807EC8
:10331000404531D9884205D0904203D0984201D02F
:10332000A04201D1042022E0A84205D0B04203D03F
:10333000B84201D0604501D1704618E0DFF82C8713
:1033400040450FD0DFF8288740450BD0DFF81C87B9
:1033500008F16008404505D0DFF8148708F16008DF
:10336000404502D14FF4802001E04FF08070DFF83B
:103370000087A8F1340836E0DFF8F08608F1780815
:10338000404533D9884205D0904203D0984201D0BD
:10339000A04201D1042022E0A84205D0B04203D0CF
:1033A000B84201D0604501D1704618E0DFF8BC8614
:1033B00040450FD0DFF8B88640450BD0DFF8AC862B
:1033C00008F16008404505D0DFF8A48608F16008E0
:1033D000404502D14FF4802001E04FF08070DFF8CB
:1033E0009086A8F13808C8F800006CE0DFF87C8609
:1033F00008F11808404533D9884205D0904203D0DF
:10340000984201D0A04201D1042022E0A84205D078
:10341000B04203D0B84201D0604501D1704618E0F7
:10342000DFF8488640450FD0DFF8448640450BD092
:10343000DFF8388608F16008404505D0DFF83086AF
:1034400008F16008404502D14FF4802001E04FF0C0
:103450008070DFF81886A8F14008C8F80C0032E048
:10346000884205D0904203D0984201D0A04201D1B9
:10347000042022E0A84205D0B04203D0B84201D0D7
:10348000604501D1704618E0DFF8E08540450FD077
:10349000DFF8DC8540450BD0DFF8D08508F1600807
:1034A000404505D0DFF8C88508F16008404502D1E5
:1034B0004FF4802001E04FF08070DFF8B085A8F174
:1034C0004008C8F80800DFF8A885D9F8000008F11E
:1034D00018084FF48039404530D9884205D09042D1
:1034E00003D0984201D0A04201D1012021E0A8429E
:1034F00005D0B04203D0B84201D0604501D1402090
:1035000017E0DFF8688540450FD0DFF86485404557
:103510000BD0DFF8588508F16008404505D0DFF88A
:10352000508508F16008404501D1484601E04FF45C
:103530008000DFF83C85A8F1340835E0DFF82C8501
:1035400008F17808404532D9884205D0904203D02E
:10355000984201D0A04201D1012021E0A84205D02B
:10356000B04203D0B84201D0604501D1402017E0FD
:10357000DFF8F88440450FD0DFF8F48440450BD0E5
:10358000DFF8E88408F16008404505D0DFF8E08402
:1035900008F16008404501D1484601E04FF4800041
:1035A000DFF8CC84A8F13808C8F800006AE0DFF83A
:1035B000BC8408F11808404532D9884205D09042B1
:1035C00003D0984201D0A04201D1012021E0A842BD
:1035D00005D0B04203D0B84201D0604501D14020AF
:1035E00017E0DFF8888440450FD0DFF88484404539
:1035F0000BD0DFF8788408F16008404505D0DFF88B
:10360000708408F16008404501D1484601E04FF45C
:103610008000DFF85884A8F14008C8F80C0031E0B9
:10362000884205D0904203D0984201D0A04201D1F7
:10363000012021E0A84205D0B04203D0B84201D019
:10364000604501D1402017E0DFF8208440450FD0CD
:10365000DFF81C8440450BD0DFF8108408F16008C7
:10366000404505D0DFF8088408F16008404501D1E5
:10367000484601E04FF48000DFF8F083A8F14008ED
:10368000C8F80800FB48DFF8E883806C009008F178
:1036900018080068404531D9884205D0904203D0CF
:1036A000984201D0A04201D1202022E0A84205D0BA
:1036B000B04203D0B84201D0604501D1504618E075
:1036C000DFF8A88340450FD0DFF8A48340450BD036
:1036D000DFF8988308F16008404505D0DFF8908353
:1036E00008F16008404502D14FF4001001E04FF0AE
:1036F0000060DFF87C83A8F1340836E0DFF86C83E3
:1037000008F17808404533D9884205D0904203D06B
:10371000984201D0A04201D1202022E0A84205D049
:10372000B04203D0B84201D0604501D1504618E004
:10373000DFF8388340450FD0DFF8348340450BD0A5
:10374000DFF8288308F16008404505D0DFF82083C2
:1037500008F16008404502D14FF4001001E04FF03D
:103760000060DFF80C83A8F13808C8F800006CE0AE
:10377000DFF8F88208F11808404533D9884205D0AF
:10378000904203D0984201D0A04201D1202022E0F3
:10379000A84205D0B04203D0B84201D0604501D163
:1037A000504618E0DFF8C48240450FD0DFF8C082F1
:1037B00040450BD0DFF8B48208F16008404505D0E1
:1037C000DFF8AC8208F16008404502D14FF40010E8
:1037D00001E04FF00060DFF89482A8F14008C8F8DB
:1037E0000C0032E0884205D0904203D0984201D0CC
:1037F000A04201D1202022E0A84205D0B04203D04F
:10380000B84201D0604501D1504618E0DFF85C8233
:1038100040450FD0DFF8588240450BD0DFF84C828E
:1038200008F16008404505D0DFF8448208F16008DF
:10383000404502D14FF4001001E04FF00060DFF886
:103840002C82A8F14008C8F808000098DFF820A2F0
:1038500000680AF1180A504531D9884205D09042D3
:1038600003D0984201D0A04201D1102022E0A8420A
:1038700005D0B04203D0B84201D0604501D15846CE
:1038800018E0DFF8E88140450FD0DFF8E4814045DB
:103890000BD0DFF8D88108F16008404505D0DFF88B
:1038A000D08108F16008404502D14FF4801001E05A
:1038B0004FF08060DFF8B881A8F1340836E0DFF817
:1038C000AC8108F17808404533D9884205D0904250
:1038D00003D0984201D0A04201D1102022E0A8429A
:1038E00005D0B04203D0B84201D0604501D158465E
:1038F00018E0DFF8788140450FD0DFF8748140454B
:103900000BD0DFF8688108F16008404505D0DFF88A
:10391000608108F16008404502D14FF4801001E059
:103920004FF08060DFF84881A8F13808C8F800003F
:103930006CE0DFF8388108F11808404533D9884237
:1039400005D0904203D0984201D0A04201D110206E
:1039500022E0A84205D0B04203D0B84201D0604571
:1039600001D1584618E0DFF8048140450FD0DFF858
:10397000008140450BD0DFF8F48008F16008404535
:1039800005D0DFF8EC8008F16008404502D14FF423
:10399000801001E04FF08060DFF8D080A8F140088F
:1039A000C8F80C0032E0884205D0904203D098421B
:1039B00001D0A04201D1102022E0A84205D0B0429F
:1039C00003D0B84201D0604501D1584618E0DFF875
:1039D0009C8040450FD0DFF8988040450BD0DFF841
:1039E0008C8008F16008404505D0DFF8848008F13C
:1039F0006008404502D14FF4801001E04FF0806034
:103A0000DFF86880A8F14008C8F80800009800684E
:103A1000504536D9884205D0904203D0984201D013
:103A2000A04201D1082029E0A84205D0B04203D02D
:103A3000B84201D0604502D14FF400701EE0DFF8BB
:103A40002C8040450FD0DFF8288040450BD0DFF8B0
:103A50001C8008F16008404505D0DFF8148008F1AB
:103A60006008404508D14FF4002007E04060024064
:103A700040640240540400204FF00070DFF8E884F6
:103A800039E0DFF8E884404538D9884205D09042D3
:103A900003D0984201D0A04201D1082027E0A842DB
:103AA00005D0B04203D0B84201D0604502D14FF4F6
:103AB00000701CE0DFF8B484A8F17808404511D00C
:103AC000DFF8A48408F1340840450BD0DFF89C846B
:103AD000A8F11808404505D0DFF88C8408F1940857
:103AE000404502D14FF4002001E04FF00070DFF8B4
:103AF0007884A8F10408C8F8000076E0DFF86C8448
:103B0000A8F16008404538D9884205D0904203D0DA
:103B1000984201D0A04201D1082027E0A84205D058
:103B2000B04203D0B84201D0604502D14FF40070DA
:103B30001CE0DFF83884A8F17808404511D0DFF8A0
:103B4000288408F1340840450BD0DFF82084A8F120
:103B50001808404505D0DFF8108408F19408404566
:103B600002D14FF4002001E04FF00070DFF8FC8339
:103B7000A8F1B808C8F80C0037E0884205D0904298
:103B800003D0984201D0A04201D1082027E0A842EA
:103B900005D0B04203D0B84201D0604502D14FF405
:103BA00000701CE0DFF8C483A8F17808404511D00C
:103BB000DFF8B48308F1340840450BD0DFF8AC835C
:103BC000A8F11808404505D0DFF89C8308F1940857
:103BD000404502D14FF4002001E04FF00070DFF8C3
:103BE0008C83A8F1B808C8F8080000980068504510
:103BF00033D9884205D0904203D0984201D0A042E8
:103C000001D1042026E0A84205D0B04203D0B8423A
:103C100001D0604501D170461CE0DFF85083A8F167
:103C20007808404511D0DFF8408308F1340840455A
:103C30000BD0DFF83883A8F11808404505D0DFF82D
:103C4000288308F19408404502D14FF4802001E018
:103C50004FF08070DFF8108338E0DFF810834045C4
:103C600037D9884205D0904203D0984201D0A04273
:103C700001D1042026E0A84205D0B04203D0B842CA
:103C800001D0604501D170461CE0DFF8E082A8F168
:103C90007808404511D0DFF8D08208F1340840455B
:103CA0000BD0DFF8C882A8F11808404505D0DFF82E
:103CB000B88208F19408404502D14FF4802001E019
:103CC0004FF08070DFF8A082A8F10408C8F8000067
:103CD00074E0DFF89882A8F16008404537D988423F
:103CE00005D0904203D0984201D0A04201D10420D7
:103CF00026E0A84205D0B04203D0B84201D06045CA
:103D000001D170461CE0DFF86482A8F178084045D4
:103D100011D0DFF8548208F1340840450BD0DFF8A9
:103D20004C82A8F11808404505D0DFF83C8208F124
:103D30009408404502D14FF4802001E04FF080709C
:103D4000DFF82882A8F1B808C8F80C0036E08842ED
:103D500005D0904203D0984201D0A04201D1042066
:103D600026E0A84205D0B04203D0B84201D0604559
:103D700001D170461CE0DFF8F481A8F178084045D5
:103D800011D0DFF8E48108F1340840450BD0DFF8AA
:103D9000DC81A8F11808404505D0DFF8CC8108F196
:103DA0009408404502D14FF4802001E04FF080702C
:103DB000DFF8B881A8F1B808C8F8080000980068D2
:103DC000504529D9884205D0904203D0984201D06D
:103DD000A04201D101201DE0A84205D0B04203D08D
:103DE000B84201D0604501D1402013E05F497839E5
:103DF00088420BD05C493431884207D05B4918397E
:103E0000884203D058499431884201D1484601E0A4
:103E10004FF4800054492DE0DFF8508140452BD904
:103E2000884205D0904203D0984201D0A04201D1EF
:103E300001201DE0A84205D0B04203D0B84201D015
:103E4000604501D1402013E04849783988420BD0C1
:103E500045493431884207D044491839884203D053
:103E600041499431884201D1484601E04FF4800035
:103E70003D49091F08605CE0DFF8F080A8F16008A8
:103E800040452BD9884205D0904203D0984201D0BA
:103E9000A04201D101201DE0A84205D0B04203D0CC
:103EA000B84201D0604501D1402013E02F49783954
:103EB00088420BD02C493431884207D02B4918391D
:103EC000884203D028499431884201D1484601E014
:103ED0004FF480002549B839C8602AE0884205D0EF
:103EE000904203D0984201D0A04201D101201DE0B0
:103EF000A84205D0B04203D0B84201D0604501D1FC
:103F0000402013E01949783988420BD016493431E2
:103F1000884207D015491839884203D01249943194
:103F2000884201D1484601E04FF480000F49B8397A
:103F300088600F4802990268D1600E49019A0B68A7
:103F4000DA600368039A5A600B68039A5A60006843
:103F5000026842F0010202600868016841F0010154
:103F60000160BDE8FF8F00000C640240B8600240B1
:103F7000AC0400200C0500202DE9F04F83463448A6
:103F800003685C6844F002045C6003685C6844F0A9
:103F900001045C600068036843F0400303602D483F
:103FA00003681C6824F001041C6003681C68E407B3
:103FB000F7D1294E294C284D4C3EDFF8A0A0274FC1
:103FC000B83C4FF4001CA6F10409AAF1600AAB4208
:103FD00002D9C6F800C00BE0BB4202D9C9F800C044
:103FE00006E0534502D9C4F80CC001E0C4F808C08B
:103FF000DFF86CC0C3F808C00368D96001684A6084
:104000000068016841F010010160164801680B6802
:1040100023F001030B6001680B68DB07F7D14FF059
:104020000063A94201D9336009E0B94202D9C9F855
:10403000003004E0514501D9E36000E0A360C1F81D
:1040400008C00368C3F80CB000684260BDE8F08F98
:1040500054040020AC04002058640240B8600240C0
:104060000C3001400C05002038B504461248134BB3
:104070000068B0FBF3F04FF47A7358430090606827
:10408000B0F5827F0DD10B460092002280212046A0
:1040900000F016F870B1606D40F0200060650320FC
:1040A00038BD009830B1401E009020688068C04341
:1040B0000006F6D5002038BD1000002000366E0145
:1040C0002DE9F0411D4617460E460446DDF81880DE
:1040D00008E0681C06D0FDF7EDFEA0EB0800A84242
:1040E0000BD255B12068806836EA000030D000203D
:1040F000B842EED10020BDE8F0812068416821F08F
:10410000E00141606068B0F5827F0BD1A068B0F536
:10411000004F02D0B0F5806F04D12068016821F013
:1041200040010160A06AB0F5005F09D12068016814
:1041300021F4005101602068016841F400510160E0
:10414000012084F85100002084F850000320D2E7B9
:104150000120CDE7012001F056FDFBE710B5FDF78A
:10416000AFFE02F0BFFA012803D0BDE8104002F014
:104170004BBA10BD30B593B030216846FCF740F91A
:1041800014210CA8FCF73CF91A480025016841F0FD
:1041900080510160006800F080501190164801685D
:1041A00041F4804101600068022400F480401190D5
:1041B00001200090000401908001CDE906400C2010
:1041C00008904FF4A870CDE9090404200B906846CC
:1041D000FEF700F80CA90F2081E831004FF4A05041
:1041E0000F90E002109005210CA8FDF707FF13B017
:1041F00030BD0000403802400070004005480168B2
:1042000041F47001016003494FF00060803908609B
:104210007047000088ED00E010B5806B0021C1857B
:10422000C184FEF736FB10BD0168CA6822F49072A3
:10423000CA6001684A6922F001024A61202180F8BF
:104240003A10704710B590F83A10222901D0022098
:1042500010BD8168B1F5805F11D001690029016846
:104260001FD0496801F07F03816A4A1C82620B708B
:10427000C18D491E0904090CC18518D02BE00269C3
:10428000816A002A0268526805D0D2B20A80816A27
:10429000491C8162ECE7C2F308020A80816A891C2A
:1042A000F7E74A68816A4B1C83620A70E0E701689D
:1042B000CA6822F02002CA600168CA6822F48072CB
:1042C000CA6001684A6922F001024A61202180F82F
:1042D0003A10FEF7D9FB002010BD00002DE9F04197
:1042E000044600680169E26821F44051114301610C
:1042F0002169A068E26908436169114308432168A4
:10430000CA6849F20C639A430243CA602068416953
:10431000A26921F4407111434161E06919276425C4
:104320003226B0F5004F354A354920684FF0000875
:1043300006D0884201D0904236D1FDF709FF35E022
:10434000884201D0904202D1FDF702FF01E0FDF763
:10435000EFFE61684A18A0FB070148EB0803FCF771
:1043600005F80146B0FBF5F00201B1FBF5F06FF086
:104370001803584301EB800006EBC000B0FBF5F0DA
:1043800000F0F80002EB4002B1FBF5F0584301EBFE
:10439000800006EBC000B0FBF5F000F007002168DC
:1043A00010448860BDE8F081FDF7C2FE61688B0FA4
:1043B0008A00A0FB0701FBF7D9FF0146B0FBF5F02F
:1043C0006FF01802504301EB800006EB0010B0FBC9
:1043D000F5F000F0F002B1FBF5F002EB0012B1FBDA
:1043E000F5F06FF01803584301EB800006EB001066
:1043F000B0FBF5F000F00F00D1E700000014014021
:104400000010014090F83910212901D00220704796
:104410008168B1F5805F016A0BD04A1C02620268B4
:1044200009785160C18C491E0904090CC1840ED061
:1044300017E009880268C1F3080151600169002989
:10444000016A02D0491C0162ECE7891CFBE70168A4
:10445000CA6822F08002CA600068C16841F0400169
:10446000C1600020704700000148FEF713BA000049
:104470006C050020FEE74100080218BF04200A0E68
:1044800018BF40F001004FF07F4232EA010108BF3F
:1044900040F00200012808BF052070470907090EF7
:1044A000002804DB00F1E02080F80014704700F0E1
:1044B0000F0000F1E02080F8141D704710B54FF098
:1044C0000E402DED028BB0EE408A18EE104A00EB44
:1044D0004400B0F1506F4AD84FF0FC40B0EB440FAD
:1044E00022D2B0EEC80AF7EE000A30EEC00AF6EEAD
:1044F000000A60EE208A18EE900A01F02FFE01EE0D
:10450000100A14F0004F1DBFDFED2D0A9FED2D0A9C
:10451000B1EE411ADFED2C0A08BF9FED2C0AF8EE30
:10452000001A21EE218A05E0DFED290A68EE088AEB
:10453000B0EE600A9FED271ADFED271A30EE080A69
:1045400048EE811A9FED251A08EEA11ADFED241A14
:1045500048EE811A9FED231A08EEA11A68EE281A78
:10456000BDEC028B01EE810A30EE200A10BD4FF047
:10457000E440B0EB440F0CD918EE100AFFF77BFFB4
:10458000042808BF00F084F9B0EE480ABDEC028BA5
:1045900010BD4FF07F40B0EB440F07D2B0EE480A99
:1045A000BDEC028BBDE8104000F063B9012000F0C3
:1045B00087F9BDEC028BBDE8104000F061B9000046
:1045C0000000C9BF22AAFDB90000C93F22AAFD39D7
:1045D0000000000024FE1C3DC78AD83C1E67383D01
:1045E0001B93993DAFAA2A3E10EE100A10B510EEAB
:1045F000901A4FF0684202EB40032DED028BB3F1AD
:10460000654F3CBF02EB4102B2F1654F7CD200BF67
:10461000C0F3C753C1F3C7529A1A1B2A09DD10F021
:10462000004F14BF9FED6E0A9FED6E0ABDEC028B2A
:1046300010BD12F11A0F1BDA11F0004F09D010F063
:10464000004F0CBF9FED680A9FED680ABDEC028B1E
:1046500010BD80EE208A18EE100AFFF70CFF042828
:1046600008BF00F015F9B0EE480ABDEC028B10BD92
:104670004200B2EB410F37D910F0004F19BFDFED08
:104680005C1A9FED5C1ADFED5C1A9FED5C1AB0EED0
:10469000602A0A46F1EE400A80F00041B0EE420A7C
:1046A00010460A1A5200B2F1807F34D2484010F00E
:1046B000004FDFED532A9FED533A1DBFBEEE002A97
:1046C00071EEE21A31EE431AB6EE002A04BF71EE23
:1046D000A21A31EE031AF0EE402A42EE602A40EEB2
:1046E000020A82EEA02A18E011F0004F04BF9FEDED
:1046F000461AF0EE411AD4D010F0004F1CBFDFED87
:10470000431A9FED431A00E026E004BFDFED411A93
:104710009FED411AC5E780EE202A22EE020ADFED66
:104720003F0ADFED3F2ABDEC028B40EE202ADFED91
:104730003D0A40EE220ADFED3C2A40EE202ADFED62
:104740003B0A40EE220A22EE000A00EE201A31EE69
:10475000020A30EE210A10BD4FF07F42B2EB400F4B
:1047600028BFB2EB410F05D2BDEC028BBDE8104073
:1047700000F082B840EA01035B0008BF41F0FF414E
:104780000BD0B2EB400F08BFB2EB410F08D120F0C5
:10479000804000EE100A21F0804100EE901A37E7C9
:1047A000B2EB400F12BF5FEA410240F0FF4001F060
:1047B00000413FF42DAF4A0092EA40033FF528AF95
:1047C000002AACBF9FED1A1A9FED1A1A20EE010ABB
:1047D00060EE810A10EE100A10EE901A18E7000041
:1047E000DB0FC9BFDB0FC93FDB0F4940DB0F49C0FF
:1047F0000000C9BF22AAFDB90000C93F22AAFD39A5
:104800000060ED3EC30ACE3700000000000049C042
:1048100022AA7DBA0000494022AA7D3A2DAD65BD8D
:104820008FB8D53D0FB511BE61C84C3EA8AAAABE2F
:104830000000804F0000802F10B52DED028BB1EEEF
:10484000C08A18EE100A20F00040C0F1FF40C00FEF
:104850000AD010EE100A20F00040C0F1FF40C00F57
:1048600004BF012000F02CF8B0EE480ABDEC028B2A
:1048700010BD30EE000A704730EE200A704700008D
:10488000DFED020A80EEA00A704700000000000081
:104890009FED020A20EE000A7047000000000010A1
:1048A00002E008C8121F08C1002AFAD170477047F9
:1048B000002001E001C1121F002AFBD17047000057
:1048C00001490860704700008C01002070B52DED93
:1048D000028B8AB005460C4616460DB104B11EB9CE
:1048E0000AB0BDEC028B70BD94ED000AB5EEC00AB3
:1048F000F1EE10FA0DD194ED010AB5EEC00AF1EE19
:1049000010FA06D194ED020AB5EEC00AF1EE10FAE3
:104910007DD09FED600AB0EE408A0020079008909D
:1049200009900490059006905B4A07CA01AB07C343
:1049300095ED010AD5ED030A20EE200AD5ED000A17
:1049400095ED021A00EEC10AF0EE000A20EE200AF0
:104950008DED070A95ED000AD5ED010A20EE200A3B
:10496000D5ED020A95ED031A00EE810AF0EE000A79
:1049700020EE200A8DED080A95ED000A20EE000ACF
:10498000D5ED030A95ED031A00EE810AF7EE000A51
:10499000B0EE001A51EE000ACDED090A01AB224635
:1049A0003146284600F07AF8D4ED000A60EEA00AFD
:1049B00094ED011AD4ED011A41EE210A94ED021A88
:1049C000D4ED021A41EE210AB0EE600AFBF788FF2F
:1049D000B0EE408A94ED000A20EE080A84ED000A49
:1049E00094ED010A20EE080A84ED010A94ED020A12
:1049F00020EE080A84ED020A94ED010ADDED090AB1
:104A000020EE200AD4ED020A9DED081A00E03EE0F7
:104A100000EEC10A8DED040A94ED020ADDED070AED
:104A200020EE200AD4ED000A9DED091A00EEC10A1D
:104A30008DED050A94ED000ADDED080A20EE200A4E
:104A4000D4ED010A9DED071A00EEC10A8DED060AAC
:104A500096ED000ADDED010A9DED041A00EE810AD3
:104A600086ED000A96ED010ADDED020A9DED051ABC
:104A700000EE810A86ED010A96ED020ADDED030AD9
:104A80009DED061A00EE810A86ED020A00BF00BF06
:104A900026E7000000000000386900082DE9F04119
:104AA0002DED048B07460D4614461E469FED580A11
:104AB000B0EE409A9FED560AB0EE408A9FED540A40
:104AC000F0EE408AD4ED000A60EEA00A94ED011ADF
:104AD000D4ED011A41EE210A94ED021AD4ED021A26
:104AE00041EE210AB0EE600AFBF7FAFEF7EE000A8B
:104AF00080EE801AB0EE419AD5ED000AB0EE600A61
:104B0000FBF780FDF0EE409AD5ED010AB0EE600AA9
:104B1000FBF778FD79EE809AD5ED020AB0EE600AD7
:104B2000FBF770FD39EE800AF0EE408A3948D0ED8F
:104B3000000A79EE600AB0EE600AFBF763FDB0EEA2
:104B4000408A9FED350AB4EEC08AF1EE10FA06DC19
:104B50009FED320AF4EEC08AF1EE10FA53DD9FEDBC
:104B60002C2AB0EE420A9FED2A2AF0EE421AB7EE46
:104B7000002AF0EE420A9FED262AB0EE421AB5EE68
:104B8000C08AF1EE10FA05DD9FED232AC2EE082A55
:104B9000B0EE620A9FED222AB4EEC20AF1EE10FADC
:104BA00003D29FED1B2AB0EE420AF5EEC08AF1EE69
:104BB00010FA05DD9FED192AC2EE282AF0EE621ADE
:104BC000B7EE002AB4EEC20AF1EE10FA03D220EEDC
:104BD000802AF0EE420AB7EE002AF4EEC21AF1EE95
:104BE00010FA03D220EEA12AF0EE420A9FED0D2A20
:104BF00020EE822AB0EE421A86ED001A86ED011AE6
:104C000086ED021A00BFBDEC048BBDE8F081000008
:104C10000000000088010020CDCCCC3D8FC2F53DC6
:104C20009A99993ECDCC4C3E10B52DED048B86B0B3
:104C30000446B0EE408AF0EE608AB0EE419A002061
:104C4000039004900590009001900290B0EE000A4D
:104C5000C8EE000AF0EE609AB0EE690AFBF7D0FCED
:104C60008DED030AB0EE000AC8EE800AF0EE609AFD
:104C7000B0EE690AFBF7C4FC8DED040AB0EE000A41
:104C8000C9EE000AF0EE609AB0EE690AFBF7B8FCD4
:104C90008DED050AB0EE000AC8EE000AF0EE609A4B
:104CA000B0EE690AFBF726FE8DED000AB0EE000AB1
:104CB000C8EE800AF0EE609AB0EE690AFBF71AFEC1
:104CC0008DED010AB0EE000AC9EE000AF0EE609A1E
:104CD000B0EE690AFBF70EFE8DED020A9DED050AA6
:104CE000DDED040A20EE200ADDED030A20EE200AA5
:104CF000DDED020A9DED011A60EE810A9DED001ABC
:104D000000EE810A84ED000A9DED020ADDED040A41
:104D100020EE200ADDED030A20EE200ADDED050A73
:104D20009DED011A60EE810A9DED001A00EEC10AA8
:104D300084ED010A9DED050ADDED010A20EE200A51
:104D4000DDED030A20EE200ADDED020A9DED041AD6
:104D500060EE810A9DED001A00EE810A84ED020AE0
:104D60009DED050ADDED040A20EE200ADDED000AC6
:104D700020EE200ADDED020A9DED011A60EE810AA7
:104D80009DED031A00EEC10A84ED030A06B0BDECE6
:104D9000048B10BD2DE9F0410024FBF753FE802069
:104DA000FBF7C2FF5520FBF7BFFF5520FBF7BCFF09
:104DB000FBF740FE9620FBF750FEFBF743FE8020FA
:104DC000FBF7B2FF5520FBF7AFFF5520FBF7ACFF19
:104DD000FBF730FE9620FBF740FEFBF733FEB621D3
:104DE0007E20FCF779F8FBF725FE5020FBF733FE19
:104DF000FBF728FE8020FBF797FF5520FBF794FF79
:104E00005520FBF791FFFBF715FE9620FBF725FEDB
:104E1000FBF718FE8020FBF787FF5520FBF784FF88
:104E20005520FBF781FF0546FBF704FE9620FBF7B4
:104E300014FE1E2D02D0FF20BDE8F081184D00BFEA
:104E4000FBF700FE04EB44067719A85D7978FCF7C0
:104E500043F8FBF7EFFD9620FBF7FFFDFBF7F2FDB4
:104E6000A85D40F08000FBF75FFF5520FBF75CFF7B
:104E70005520FBF759FF0646FBF7DCFD9620FBF7B4
:104E8000ECFD7878B04204D004EB440028448078EC
:104E9000D2E7641CE4B2062CD2D30020CCE7000099
:104EA000A00000202DE9F04186B0002000900546CA
:104EB0000190FBF7C7FD8020FBF736FF5520FBF77D
:104EC00033FF5520FBF730FFFBF7B4FD9620FBF7CF
:104ED000C4FDFBF7B7FD8020FBF726FF5520FBF74D
:104EE00023FF5520FBF720FFFBF7A4FD9620FBF7DF
:104EF000B4FDFBF7A7FDB6217E20FBF7EDFFFBF726
:104F000099FD5020FBF7A7FDFBF79CFD8020FBF7E8
:104F10000BFF5520FBF708FF5520FBF705FFFBF7BC
:104F200089FD9620FBF799FDFBF78CFD8020FBF7B0
:104F3000FBFE5520FBF7F8FE5520FBF7F5FE044677
:104F4000FBF778FD9620FBF788FD1E2C03D0FF2091
:104F500006B0BDE8F081774CFBF774FD05EB450624
:104F60003719A05D7978FBF7B7FFFBF763FD962053
:104F7000FBF773FDFBF766FDA05D40F08000FBF7DB
:104F8000D3FE5520FBF7D0FE5520FBF7CDFE06469D
:104F9000FBF750FD9620FBF760FD7878B04204D017
:104FA00005EB450020448078D2E75020FBF753FD05
:104FB0006D1CEDB2042DCFD35FF00005FBF742FD71
:104FC00005EB45073E19717B307BFBF785FFFBF74F
:104FD00031FD9620FBF741FDFBF734FD307B40F0BF
:104FE0008000FBF7A1FE5520FBF79EFE5520FBF746
:104FF0009BFE8046FBF71EFD9620FBF72EFD717B86
:10500000414504D005EB45002044807BA0E75020BB
:10501000FBF721FDFBF716FD9220FBF785FE06222C
:1050200069461220FBF762FEFBF704FD9DF80100C4
:105030006D1C01029DF80000EDB2014302A8022D93
:1050400020F817109DF803109DF8022000EB470090
:1050500042EA012141809DF805109DF8042042EAB2
:1050600001218180AAD3FBF7EDFC00216D20FBF725
:1050700033FFFBF7DFFC9620FBF7EFFCFBF7E2FCCE
:10508000ED20FBF751FE5520FBF74EFE5520FBF7B8
:105090004BFE0446FBF7CEFC9620FBF7DEFC0CB182
:1050A000042055E7FBF7CEFCB6217E20FBF714FF6A
:1050B000FBF7C0FC5020FBF7CEFCBDF90800BDF9A2
:1050C0000E10411A40F2555081420EDBBDF90A1014
:1050D000BDF91020891A814207DBBDF90C00BDF92A
:1050E0001210401AB0F52A7F01DA802030E7FBF772
:1050F000A9FC8020FBF718FE5520FBF715FE552074
:10510000FBF712FEFBF796FC9620FBF7A6FCFBF7DD
:1051100099FC8020FBF708FE5520FBF705FE552083
:10512000FBF702FEFBF786FC9620FBF796FC0020BF
:105130000EE700001C690008F8B500248DF8004057
:10514000FBF702FD69460020FBF7E2FDFBF7F4FCEC
:105150009620FBF782FCFBF7F7FC69460020FBF783
:10516000D7FDFBF7E9FC9620FBF777FCFBF7ECFC9F
:10517000B6211420FBF7B0FEFBF7DEFC5020FBF756
:105180006AFCFBF7E1FC69460020FBF7C1FDFBF779
:10519000D3FC9620FBF761FCFBF7D6FC69460020A8
:1051A000FBF7B6FDFBF7C8FC9620FBF756FC9DF815
:1051B00000000F2801D0FF20F8BD154DFBF7C4FCFF
:1051C00004EB44067719A85D7978FBF785FEFBF7B9
:1051D000B3FC9620FBF741FCFBF7B6FCA85D6946E3
:1051E000FBF796FDFBF7A8FC9620FBF736FC7878DA
:1051F0009DF80010884204D004EB440028448078D5
:10520000F8BD641CE4B2062CD8D30020F8BD000021
:10521000B200002038B500208DF800000446FBF7EE
:1052200093FC69460020FBF773FDFBF785FC962095
:10523000FBF713FCFBF788FC69460020FBF768FDD1
:10524000FBF77AFC9620FBF708FCFBF77DFCB62108
:105250001420FBF741FEFBF76FFC5020FBF7FBFB34
:10526000FBF772FC69460020FBF752FDFBF764FC7C
:105270009620FBF7F2FBFBF767FC69460020FBF783
:1052800047FDFBF759FC9620FBF7E7FBFBF75CFCBF
:1052900001213C20FBF720FEFBF74EFC5020FBF7E2
:1052A000DAFB00BFFBF750FC69463C20FBF730FD02
:1052B000FBF742FC9620FBF7D0FB641C9DF8000036
:1052C000E4B2800701D40A2CECD30A2C03D09DF859
:1052D0000000400701D5402038BD002038BD002027
:1052E000704700002DE9F8430025DFF87C90DFF8D7
:1052F0007C802E4605EB850000EBC50707EB080414
:105300002079D4F8051000F07F0206EB090000F0C8
:105310000AF92079012200F07F0006EB800086B2B6
:10532000694606EB090000F0FEF89DF8001008F849
:1053300007109DF8010060709DF80200A0709DF8B4
:105340000300361DE070B6B2502806D0D4F809002C
:1053500018B1207940F0800020716D1CEDB2032D52
:10536000C8D3BDE8F883000000000A0810440020FC
:105370000A0010B5014600F10C0002D0012A03D04A
:105380000FE000F0B3FB0CE0074A00F067FA0648B4
:1053900042F210720188914203D90021018001205C
:1053A00010BD002010BD00005C0100202DE9F0417F
:1053B000DFF85C8000242646A8F1540704EB840043
:1053C00000EBC40101EB08052879D5F8051040066B
:1053D000C20DB819FAF7FBFF2879641C00F07F00B2
:1053E00006EB800080B23918001D2A68E4B20A601A
:1053F00086B2032CE2D3074C0121204600F07EF850
:105400002046BDE8F04102491522543900F092B817
:105410001044002000000A08002070472DE9F041E8
:105420001A4A00201A4D02F11203961D00EB80016A
:1054300001EBC0012944145C0F7964F306070F7176
:1054400056F82040C1F8054053F82040401CC0B237
:10545000C1F809400328E9D3FFF744FF5FF00004D7
:1054600004EB840000EBC4002844C178502906D125
:10547000D0F809201AB156F8240000219047641C86
:10548000E4B2032CECD3BDE8F08100005E01002003
:10549000104400202DE9F041154E002404EB840057
:1054A00000EBC407BD19287900061AD5D5F80920E4
:1054B000BAB11048012150F82400904788B10E4835
:1054C00004EB4401425C0844F255417869708078ED
:1054D000A8705020E870287920F080002871FFF72C
:1054E00065FF641CE4B2032CD8D3BDE8F081000052
:1054F00010440020640100202E69000810B586B019
:105500000C4600F04BF80290002000900220CDE9FC
:105510000340FCF7ABFB05A96846FCF713FBFCF75F
:105520005DFB06B010BD0B46014692001846FAF727
:105530004EBF00002DE9F04115460F460646FCF728
:1055400095FB154C3046266000F0FEF8C4E90107D3
:105550000020E06017E0A068002302680220FCF74A
:1055600047FB28B1FCF73AFB4FF0FF30BDE8F08174
:105570002068001D2060A068001DA060E068401C3D
:10558000E060A84203D0D4E900108142E3D9FCF7DF
:1055900025FB0020EAE70000740000200021A0F1B4
:1055A00000634FF48042934241D322490144914227
:1055B00001D201213BE020490144914201D2022164
:1055C00035E01E490144914201D203212FE01C49DC
:1055D0000144B1F5803F01D2042128E01949421865
:1055E0004FF400318A4201D2052120E0164A0244DC
:1055F0008A4201D206211AE0144A02448A4201D2A8
:10560000072114E0124A02448A4201D208210EE026
:10561000104A02448A4201D2092108E00E4A02449B
:105620008A4201D20A2102E00C4A0B2110440846AA
:105630007047000000C0FFF70080FFF70040FFF751
:105640000000FFF70000FEF70000FCF70000FAF78B
:105650000000F8F70000F6F70000F4F70000F2F79A
:105660002DE9F04104460D4616461F4614B10DB112
:1056700006B10FB9BDE8F081D4ED010A94ED031A2B
:1056800060EE810A94ED001AD4ED021A41EE610A2F
:10569000B8EE001A60EE810AB0EE600AFAF7ACFFCD
:1056A00086ED000A94ED001A21EE011AD4ED011ADC
:1056B00094ED012A01EE821AF7EE001AB0EE002AEC
:1056C00052EE011AF0EE610A94ED001AD4ED031ABD
:1056D00021EE211AD4ED011A94ED022A01EE821A6C
:1056E000F0EE001A21EE211AB0EE410AFAF786FF19
:1056F00085ED000A94ED001A21EE011AD4ED031A8B
:1057000094ED032A01EE821AF7EE001AB0EE002A99
:1057100052EE011AF0EE610A94ED001AD4ED011A6E
:1057200021EE211AD4ED021A94ED032A01EE821A19
:10573000F0EE001A21EE211AB0EE410AFAF75EFFF0
:1057400087ED000A00BF95E7A0F100624FF48041A9
:105750008A4201D226487047254A524202448A4270
:1057600001D224487047234A524202448A4201D25D
:1057700021487047204A524202448A4201D21F48BF
:1057800070471E4949420144B1F5803F01D21C488F
:1057900070471B49494242184FF400318A4201D2F6
:1057A00018487047174A524202448A4201D21648AA
:1057B0007047154A524202448A4201D21348704748
:1057C000124A524202448A4201D211487047104A9A
:1057D000524202448A4201D20E4870470D4A524258
:1057E0001044884201D20C4870474FF00160704766
:1057F000004000080080000800C000080000010808
:105800000000020800000408000006080000080864
:1058100000000A0800000C0800000E08D0ED000A85
:1058200091ED001A9FED0C0A41EE400AC0ED000A0E
:10583000D0ED010A91ED011A41EE400AC0ED010AD6
:10584000D0ED020A91ED021A41EE400AC0ED020AC3
:105850001088401C1080704752499D3930B505466C
:105860001088154B0C4668B903F10C0090ED000A46
:1058700083ED000A90ED010A83ED010A90ED020A22
:1058800083ED020A0C490C48AC39FFF7C7FF93EDD2
:10589000000A84ED000A93ED010A84ED010A93EDFC
:1058A000020A84ED020AB7EE000A85ED000A85EDD2
:1058B000010A85ED020A30BD8C4300202DE9F04F2E
:1058C000DFF8DCC0DFF8DCA00CF12408099F00241D
:1058D0000AF1180B08F124090AF1240E04EB44061E
:1058E0000CEB860593ED050AD5ED000A95ED011A3E
:1058F00020EE200AD3ED060A00EE810AD3ED070A56
:1059000095ED021A0AEB840500EE810AD5ED000A36
:1059100000EB840530EE200A85ED000A08EB8605D1
:1059200093ED010AD5ED000A95ED011A20EE200A4B
:10593000D3ED020A00EE810AD3ED030A95ED021AB7
:105940000BEB840500EE810AD5ED000A01EB84051E
:1059500030EE200A85ED000A09EB860597ED010A75
:10596000D5ED000A95ED011A20EE200AD7ED020AC6
:1059700000EE810AD7ED030A95ED021A0EEB8405BD
:1059800000EE810AD5ED000A02EB8405641CE4B246
:10599000032C30EE200A85ED000A9FD3BDE8F08F7E
:1059A000F00000208C430020384910B50878394AAF
:1059B000C4073748D2E912321FD01C682468E407B4
:1059C0001BD114682468E40717D14C78A40714D4B9
:1059D0008C78A40711D40A7822F001020A700A78A0
:1059E00042F002020A7000222021FCF75EFA2749E9
:1059F00008221A31A1F1080042E04C78E4071ED0D9
:105A00001C682468E4071AD114682468E40716D1D6
:105A10000C78A40713D48C78A40710D44A7822F009
:105A200001024A704A7842F002024A7000221021B4
:105A3000FCF73BFA154809221749223020E08C7800
:105A4000E40721D01B681B68DB071DD112681268B0
:105A5000D20719D10A78920716D44A78920713D43C
:105A60008A7822F001028A708A7842F002028A70F3
:105A700000221021FCF719FA044904220831081FFA
:105A8000BDE81040FDF73EB910BD0000C400002085
:105A9000000802405404002020430020D0ED000AFA
:105AA00090ED010A0F4B016930EEC00A10EE102A8A
:105AB0009A4201DD491E05E010EE102A0A4B9A4277
:105AC00001D9491C01614FF4B472514300EE101A20
:105AD000B8EEC00A30EE800A80ED050AC0ED010A7A
