:020000040800F2
:10000000204700205D0200081B1B0008E9180008BB
:10001000191B0008B5040008851F00080000000037
:100020000000000000000000000000009D0100082A
:10003000B704000800000000F90100086D1C00086A
:1000400077020008770200087702000877020008AC
:100050007702000877020008B9040008410500088B
:10006000770200087702000877020008770200088C
:10007000770200087702000877020008770200087C
:10008000770200087702000877020008770200086C
:10009000770200087702000877020008770200085C
:1000A000770200087702000877020008770200084C
:1000B000770200087702000877020008770200083C
:1000C000770200087702000877020008770200082C
:1000D00077020008791F00087702000877020008FD
:1000E000770200087702000877020008770200080C
:1000F00077020008770200087702000877020008FC
:1001000077020008770200087702000877020008EB
:1001100077020008770200087702000877020008DB
:1001200077020008770200087702000877020008CB
:1001300077020008000000000000000077020008BD
:1001400077020008770200087702000877020008AB
:10015000770200087702000877020008770200089B
:10016000770200087702000877020008770200088B
:10017000770200087702000800000000000000007D
:100180007702000877020008DFF80CD000F0ECF8E6
:1001900000480047ED270008204700202C4B196835
:1001A0000868B0E8F04F80F30988BFF36F8F4FF015
:1001B000000080F3118870470000000008480068C4
:1001C000006880F308884FF0000080F3148862B65E
:1001D00061B6BFF34F8FBFF36F8F00DF00BF00BF6B
:1001E00008ED00E0DFF80C00016841F470010160E7
:1001F000704700BF88ED00E0EFF30980BFF36F8F19
:10020000134B1A681EF0100F08BF20ED108A20E96A
:10021000F04F106009B44FF0500080F31188BFF325
:100220004F8FBFF36F8F03F055F84FF0000080F34E
:10023000118809BC19680868B0E8F04F1EF0100F6B
:1002400008BFB0EC108A80F30988BFF36F8F704746
:100250005C000020EFF305807047000006488047EF
:1002600006480047FEE7FEE7FEE7FEE7FEE7FEE79B
:10027000FEE7FEE7FEE7FEE70D1D00088901000826
:100280002DE9F05F0546002092469B4688460646CB
:10029000814640241BE0284641464746224600F05E
:1002A00053F853465A46C01A914110D31146184686
:1002B000224600F03AF82D1A67EB01084F46224615
:1002C0000120002100F031F817EB00094E41201EFB
:1002D000A4F10104DFDC484631462A464346BDE826
:1002E000F09F40EA01039B0703D009E008C9121FF1
:1002F00008C0042AFAD203E011F8013B00F8013BE0
:10030000521EF9D27047D2B201E000F8012B491E0B
:10031000FBD270470022F6E710B513460A460446A2
:100320001946FFF7F0FF204610BD202A04DB203AD3
:1003300000FA02F1002070479140C2F1200320FA38
:1003400003F3194390407047202A04DB203A21FA36
:1003500002F00021704721FA02F3D040C2F12002DE
:100360009140084319467047064C074D06E0E06887
:1003700040F0010394E8070098471034AC42F6D3EC
:10038000FFF706FFE84E0008084F0008464910B581
:100390004A6822F440324A604A6843681A434A6015
:1003A00001684A6822F480724A6001684A680369F9
:1003B00042EA03224A6001684A6822F040724A60B9
:1003C00001684A6883681A434A6001688A6822F4AF
:1003D00000628A6001688A68C3681A438A60816A19
:1003E0006FF07062D14201688A6822F070628A60A0
:1003F00001688A680CD0836A1A438A6001688A6837
:1004000022F040528A6001688A68C36A1A4301E098
:1004100022F040528A6001688A6822F002028A60F3
:1004200001688A68037E42EA43028A6090F82010DD
:10043000002901684A680FD042F400624A600168EE
:100440004A6822F460424A6001684A68174C436A6D
:1004500004EB43331A4301E022F400624A6001686E
:10046000CA6A22F47002CA620168CA6A838B104C9D
:1004700004EB03531A43CA6201688A6822F40072CB
:100480008A6001688A6890F8303042EA43228A60C4
:1004900001688A6822F480628A6001688A6840691B
:1004A00042EA8020886010BD0023014000E0FFFF89
:1004B0000000F0FFFEE7704770B51B4C1B4D206835
:1004C000B0F57A7F05DD0121284600F0F3FA00201F
:1004D0002060401C20601648006801281FD1154A82
:1004E0001549164801F0B2FD144C4FF4C776B4F923
:1004F0000000C730B04201D8012200E000220121F3
:10050000284600F0DEFAB4F90200C730B04201D844
:10051000012200E000220221284600F0D2FABDE8C4
:100520007040012000F0DEB94800002000000240C9
:1005300004000020080000203E00002038000020B9
:10054000022000F0CFB9704778B50024009490F8ED
:100550003C20012A19D0012280F83C200A68072398
:100560000568092A13D9EE680A3A02EB4202934061
:100570009E43EE600B788A680A3B03EB43039A4084
:100580000368DD682A43DA6010E0022078BD2E6936
:1005900002EB420293409E432E610B788A6803EB84
:1005A00043039A4003681D692A431A614A681F235E
:1005B000072A13D205686E6B521E02EB820293402B
:1005C0009E436E630B790A885B1E92B203EB830332
:1005D0009A4003685D6B2A435A6327E005680D2A39
:1005E00012D22E6BD21F02EB820293409E432E63E7
:1005F0000B790A88DB1F92B203EB83039A400368EE
:100600001D6B2A431A6311E0EE6A0D3A02EB820277
:1006100093409E43EE620B790A880D3B92B203EB46
:1006200083039A400368DD6A2A43DA62164B056841
:10063000144A9D4206D10D68122D03D1556845F428
:100640008005556005689D4218D10B68102B01D0BC
:10065000112B13D1536843F4000353600968102928
:100660000CD10A490A4A0968B1FBF2F101EB810198
:10067000490000E0491E00910029FBD180F83C4070
:10068000002078BD002301400020014058000020D8
:1006900040420F0070B504004FF0000503D0206CFD
:1006A000002610B107E0012070BD204600F01CF8C4
:1006B000666484F83C60206CC00610D4206C20F482
:1006C000885040F0020020642046FFF75FFE666419
:1006D000206C20F0020040F00100206400E00125C1
:1006E00084F83C60284670BD08B500680649884219
:1006F00008D10648016841F480710160006800F487
:100700008070009008BD0000002001404438024085
:1007100070B5040003D094F8200010B104E001206B
:1007200070BD204600F082F82068016821F00201C7
:10073000016000F0CBF90546052604E000F0C6F99B
:10074000401B0A2811D8206840688007F6D420682A
:10075000016841F00101016000F0B8F905460BE0C5
:1007600000F0B4F9401B0A2806D9606A40F4003052
:10077000606284F82060D2E720684068C007EFD04C
:10078000207E0128206801683DD021F080010160B1
:10079000607E01282068016838D021F040010160A6
:1007A000A07E01282068016833D021F0200101607B
:1007B000E07E0128206801682ED041F01001016020
:1007C000207F01282068016829D021F008010160FC
:1007D000607F01282068016824D021F004010160B5
:1007E000D4E902010843D4E90412114308436168C3
:1007F000491E08432168C86100206062012084F816
:100800002000002070BD41F08001C0E741F04001B0
:10081000C5E741F02001CAE721F01001CFE741F020
:100820000801D4E741F00401D9E7000010B586B013
:10083000044614216846FFF76DFD1449206888427C
:1008400021D113480021026842F000720260006862
:1008500000F0007005900E481038026842F0010266
:100860000260006800F0010005904FF4C050009055
:100870000220CDE90101032003900920049069467C
:10088000044800F03BF806B010BD000000640040D2
:10089000403802400000024090F83510022903D091
:1008A0008021416501207047052180F835100068DE
:1008B000016821F0010101600020704770B5044615
:1008C00000F004F90546601C02D004480078044496
:1008D00000F0FCF8401BA042FAD370BD4C00002091
:1008E00070470000044910B50A68024202D008604F
:1008F000FFF7F6FF10BD0000143C01402DE9F84F52
:1009000000224FF0010803254FF00F0E0B6808FA84
:1009100002F42340A3426ED14E68012E05D0022E70
:1009200003D0112E01D0122E12D186684FEA420C4C
:1009300005FA0CF7BE43CF6807FA0CF73743876018
:100940004668A6430C79C4F30014944034434460D1
:10095000C668570005FA07FC8C6826EA0C06BC40FE
:100960003443C4604C68022C01D0122C13D1D4083B
:1009700000EB8404A346D4F8209054074FEAD46ACD
:100980000EFA0AF629EA06090E6906FA0AF646EA96
:100990000906CBF8206006680C7926EA0C0604F0FC
:1009A0000304BC40344304604C68E40065D5364C15
:1009B000266846F480462660246822F0030604F484
:1009C00080440094314C3444A446D4F80848960737
:1009D000370F0EFA07F6B4432D4EB04201D1002670
:1009E00024E02C4EB04201D101261FE02A4EB04235
:1009F00002D102261AE040E0284EB04201D103267F
:100A000014E0274EB04201D104260FE0254EB0423B
:100A100001D105260AE0244EB04201D1062605E0A8
:100A2000224EB04201D1072600E00826BE402643F0
:100A3000CCF808681E4E34684F689C43FF0300D50D
:100A40001C4334601A4C241D26684F689E43BF0324
:100A500000D51E432660164E083634684F689C4306
:100A6000FF0200D51C433460114E0C3634684F68C9
:100A70009C43BF0200D51C433460521C102AFFF473
:100A800045AFBDE8F88F0000443802400030014017
:100A9000000002400004024000080240000C024036
:100AA000001002400014024000180240001C0240E6
:100AB000003C0140426931EA020200D1090481612F
:100AC00070470AB1816170470904FBE701488068FB
:100AD000704700004C0000200248816802781144F1
:100AE000816070474C0000200B4810B5016841F44C
:100AF00000710160016841F480610160016841F4A6
:100B000080710160032000F073F80F2000F006F8F8
:100B100000F024F8002010BD003C024070B50D4DDF
:100B200004464FF47A712878B1FBF0F00A4909685D
:100B3000B1FBF0F000F0C7FD48B9102C07D200223D
:100B40002146501E00F034F800206C6070BD01207A
:100B500070BD00004C000020580000200C4882B0FE
:100B6000016841F480410160006800F48040009019
:100B70000748001F016841F08051016000680022B1
:100B800000F0805000900F21901E02B000F010B8CD
:100B900044380240002809DB00F01F020121914087
:100BA0004009800000F1E020C0F80011704700000B
:100BB000F0B40E4B1B680C46C3F30223C3F10705C8
:100BC000042D00D90425191D072901D2002300E0B6
:100BD000DB1E012606FA05F1491E214099409E4080
:100BE000761E16403143F0BC01F0CDB90CED00E0AB
:100BF000064900F0070208684FF6FF03184040EA74
:100C00000220034A10430860704700000CED00E02A
:100C10000000FA052DE9F0470E46050065D0DFF823
:100C20001481D8F80000F7B200F00F00B04207D2EC
:100C300088F80070D8F8000000F00F00B04254D1DE
:100C400028683D4C810712D5400703D5206840F441
:100C5000E05020602878000703D5206840F4604009
:100C600020602068A96820F0F00008432060287800
:100C7000C0072DD0304968680839012812D00228F1
:100C800013D0032811D00968890700292DDA2168BB
:100C900021F0030101432160FFF718FF814641F273
:100CA000883A0EE009688903EFE709688901ECE7F3
:100CB000FFF70CFFA0EB0901514502D90320BDE865
:100CC000F0872068696800F00C00B0EB810FEFD16D
:100CD000D8F80010404601F00F01B14207D9077063
:100CE000006800F00F00B04201D00120E7E728784B
:100CF000400705D52068E96820F4E05008432060EB
:100D00002878000706D52068296920F4604040EA69
:100D1000C100206000F038F82168084AC1F30311CF
:100D2000515CC8400649086006480068FFF7F6FEB7
:100D30000020C4E7003C024008380240C4360008E6
:100D40005800002050000020044805490068096848
:100D5000044AC1F38221515CC8407047580000200A
:100D600008380240D436000804480549006809687C
:100D7000044AC1F34231515CC8407047580000201A
:100D800008380240D4360008154810B5006810F045
:100D90000C02144813D01449042A0FD0082A0ED18B
:100DA0000F4C241F2268236802F03F025B0207D524
:100DB0002068C0F38810A0FB010106E0084610BDC2
:100DC0002168C1F38811A1FB00010023FFF758FA45
:100DD0002168C1F30141491C4900B0FBF1F010BD8D
:100DE000083802400024F400001BB7002DE9F84F3A
:100DF000040076D02078DFF838A3CE4DC00749D064
:100E0000DAF800105046C1F38101012908D00068CA
:100E1000C0F3810002280AD1281D0068400206D5CF
:100E20002868800336D560680028E2D032E0606828
:100E3000B0F5803F10D0B0F5A02F286810D020F476
:100E400080302860286820F4802028606068A0B185
:100E5000FFF73CFE06460CE0286840F48030F4E7DB
:100E600040F480202860F7E7FFF730FE801B6428FD
:100E700073D828688003F7D50CE0FFF727FE0646F5
:100E800005E000BFFFF722FE801B6428F0D8286829
:100E90008003F7D42078DFF8A08280074FF00009A4
:100EA0003ED5DAF80010504611F00C0F09D000685A
:100EB000C0F3810002280BD19D48001F006840024A
:100EC00006D42868800715D5E068012809D111E00B
:100ED000E068B8B10120C8F80000FFF7F7FD06464A
:100EE00005E020E1FFF7F2FD801B0228C0D828684A
:100EF0008007F7D52868216920F0F80040EAC10092
:100F000028600DE0C8F80090FFF7E0FD064604E019
:100F1000FFF7DCFD801B02281FD828688007F7D464
:100F20002078000722D5824E844861696C3671B101
:100F300001210160FFF7CAFD074604E0FFF7C6FD87
:100F4000C01B022809D830688007F7D50EE0C0F82A
:100F50000090FFF7BBFD074605E082E0FFF7B6FD16
:100F6000C01B02287DD830688007F7D4207840075E
:100F700068D5DFF8BCB100270BF1380BDBF80000B7
:100F8000C0000BD4DBF8001041F08051CBF800100A
:100F9000DBF80000012700F080500090684E3068B8
:100FA000C00510D4306840F480703060FFF78EFDCB
:100FB000009005E0FFF78AFD0099401A022850D8FA
:100FC0003068C005F6D55A4EA068683601280FD0A3
:100FD0000528306810D020F001003060306820F023
:100FE00004003060A068B8B1FFF770FD00900FE01A
:100FF000306840F00100F4E740F004003060F7E7AB
:10100000FFF764FD0099411A41F28830814266D8A9
:1010100030688007F4D50EE0FFF758FD009007E038
:10102000FFF754FD0099411A41F28830814256D8A9
:1010300030688007F4D42FB1DBF8001021F0805124
:10104000CBF80010A069D0B3DAF800205146C2F303
:101050008102022A4AD00228484607D0C8F8600018
:1010600000E03CE0FFF732FD04463BE04746C8F8AD
:101070006000FFF72BFD064605E000BFFFF726FDE9
:10108000801B02282BD828688001F7D4D4E90701F7
:101090000843A16A2B4A490802EB0141626A41EA0E
:1010A0008211084394F82C1040EA01612048001F87
:1010B000016001203866FFF709FD044605E034E0D1
:1010C000FFF704FD001B022809D828688001F7D526
:1010D0002BE000BFFFF7FAFC001B022802D9032017
:1010E000BDE8F88F28688001F4D41EE00128F7D00D
:1010F0000868E26900F48001914214D1226A00F08C
:101100003F0191420FD147F6C071626A014091429E
:1011100009D1A26A00F44031914204D1E16A00F0A1
:101120007060884201D00120DAE70020D8E7000093
:10113000083802400038024000004742800E474213
:10114000007000400000FFFF90F85100704770B53C
:10115000040005D00025A56294F8510010B106E006
:10116000012070BD84F85050204600F031F8022074
:1011700084F851002068016821F040010160D4E941
:1011800001010843D4E9031211430843616908438C
:10119000218B01F400710843E1690843216A084387
:1011A000A16A084321680860A069042101EA10408F
:1011B000616A0843216848602068C16921F40061C0
:1011C000C1616565012084F85100002070BD0000F8
:1011D00010B586B0044614216846FFF79BF8134902
:1011E0002068884220D112480021026842F48052CF
:1011F0000260006800F4805005900D4814380268C1
:1012000042F001020260006800F001000590E02059
:1012100000900220CDE901010320039005200490F5
:1012200069460448FFF76AFB06B010BD0030014074
:1012300044380240000002402DE9F84F044640685F
:101240000025984616460F464FF0040BB0F5827FF6
:1012500001D1A06888B194F85000012818D001206D
:1012600084F85000FFF732FC814694F851004FF0AB
:10127000000A01280ED002257DE084F851B0134603
:101280000A462046CDF8008000F02CF9BDE8F88F22
:101290000220FBE7002F6DD0002E6BD084F851B0F8
:1012A000C4F854A0A763A687E687C4F830A0A4F8C2
:1012B00034A0A4F836A0C4F840A0C4F844A0A068A4
:1012C000B0F5004F04D12068016821F4804101602D
:1012D00020680168490603D4016841F040010160BB
:1012E000E068D8B139E020688168C90709D0007B7F
:1012F000A16B0870A06B401CA063E08F401EE087CC
:101300000CE0FFF7E3FBA0EB0901414503D3B8F183
:10131000FF3F03D036E0B8F1000F33D0E08F002854
:10132000E1D11DE020688168C90709D0C068A16BC0
:101330000880A06B801CA063E08F401EE0870CE05B
:10134000FFF7C4FBA0EB0901414503D3B8F1FF3F10
:1013500003D017E0B8F1000F14D0E08F0028E1D1DE
:101360004A464146204600F0D9FB08B1202060657E
:10137000606D00B10125012084F8510084F850A06F
:10138000284683E70325F6E72DE9F84F044690F851
:10139000500000271D461646894601280DD04FF003
:1013A000010B84F850B0FFF791FB804694F8510090
:1013B000BA46012804D002278EE00220BDE8F88F4B
:1013C000B9F1000F7DD0002E7BD0032084F85100AE
:1013D000C4F854A0C4F83090A686E686C4F838A0B5
:1013E000A4F83CA0A4F83EA0C4F844A0C4F840A0CF
:1013F000A068B0F5004F04D12068016841F4804135
:10140000016020680168490603D4016841F0400189
:101410000160E068B0F5006F606803D030B3012E62
:1014200024D040E008B1012E1CD1206B2168008837
:10143000C86006E020688168890709D5216B0988A2
:10144000C160206B801C2063E08E401EE08609E0B6
:10145000FFF73CFBA0EB0800A84202D3681C01D0B8
:1014600031E07DB3E08E0028E4D11FE0206B2168DD
:101470000078087306E020688168890709D5216B28
:1014800009780173206B401C2063E08E401EE086CB
:1014900009E0FFF71BFBA0EB0800A84202D3681C81
:1014A00001D010E075B1E08E0028E4D14246294613
:1014B000204600F061FB08B120206065A06820B1E3
:1014C00007E008E0FFE7032706E02068C1688068BE
:1014D0000090606D00B1012784F851B084F850A0ED
:1014E00038466BE72DE9F84F044690F85000002786
:1014F0000A9E1D4692468B464FF0010901280ED0E8
:10150000012084F85000FFF7E1FA804694F851007A
:10151000616801280CD0B1F5827F07D102E002207A
:10152000BDE8F88FA16809B9042801D00227C2E0FC
:10153000BBF1000F27D0BAF1000F24D01DB394F8EF
:101540005100042802D0052084F851000020606575
:10155000C4F838A0E587A587C4F830B0E586A5862D
:101560002064606420680168490603D4016841F082
:1015700040010160E068B0F5006F606805D0E8B335
:10158000012D46D07FE0012795E008B1012D39D12A
:10159000206B21680088C860206B801C2063E08E6F
:1015A000401EE0862EE02068816889070FD5E18E15
:1015B00069B1B9F1010F0AD1216B0988C160206BB3
:1015C000801C2063E08E401EE0864FF000092068FA
:1015D0008168C9070CD0E18F51B1C068A16B088048
:1015E000A06B801CA063E08F401EE0874FF00109D4
:1015F000FFF76CFAA0EB0800B04200E009E001D36D
:10160000701C50D1E08E0028CDD1E08F0028CAD1C7
:101610003FE0206B216800780873206B401C20633A
:10162000E08E401EE0862EE02068816889070FD595
:10163000E18E69B1B9F1010F0AD1216B097801730B
:10164000206B401C2063E08E401EE0864FF00009B6
:1016500020688168C9070CD0E18F51B1C068A16BC7
:101660000870A06B401CA063E08F401EE0874FF025
:101670000109FFF72BFAA0EB0800B04202D3701C5F
:1016800001D010E07EB1E08E0028CDD1E08F00289F
:10169000CAD142463146204600F06EFA28B10127F1
:1016A0002020606507E0032705E0A06818B92068DE
:1016B000C16880680090012084F85100002084F8FF
:1016C000500038462CE710B5401EB0F1807F01D3A2
:1016D000012010BD4FF0E02460610F21601700F081
:1016E00052FC0020A06107202061002010BD70473F
:1016F00070B5026804461068D168536910F00F0F86
:1017000052D003F0010501F490762E435FD0C2075A
:1017100005D0CA0503D5E26B42F00102E26342073D
:1017200005D5DA0703D0E26B42F00202E2638207DA
:1017300005D5DA0703D0E26B42F00402E263020748
:1017400007D501F020022A4303D0E26B42F00802E1
:10175000E263E26B002A33D0800604D5880602D506
:10176000204600F0F7FA20684069E16BC0F3801072
:10177000090700D428B3204600F0DEFA206841694A
:1017800049061AD5416921F040014161606BA0B161
:101790001B490165606BFFF77FF8002810D0606B74
:1017A000016DBDE870400847830610D58B060ED545
:1017B0002046BDE8704000F0CDBA2046FFF797FF05
:1017C00070BD2046FFF793FF0020E06370BD030665
:1017D00006D50B0604D52046BDE8704000F09ABB44
:1017E0004006F3D54806F1D5D168204621F04001E6
:1017F000D160202184F8391000F075F870BD000028
:10180000291D000870B5040004D094F839000025A3
:1018100010B106E0012070BD84F83850204600F079
:1018200023F8242084F839002068C16821F400518D
:10183000C160204600F0DAFA2068016921F4904185
:1018400001612068416921F02A0141612068C16875
:1018500041F40051C160E563202084F8390084F828
:101860003A00002070BD000010B586B00446142177
:101870006846FEF74FFD18492068884229D117486D
:101880000021026842F010020260006800F01000BF
:10189000059012481438026842F0010202600068A4
:1018A00000F0010005904FF4C06000900220CDE9E7
:1018B0000101032003900720049069460848FFF7C0
:1018C0001DF8002205212520FFF772F92520FFF7DA
:1018D00061F906B010BD000000100140443802401C
:1018E0000000024070477047FEE700007FB500240B
:1018F00015480094019402941249039401604FF436
:101900008031C0E901140461047680F820400F4959
:10191000C0E90A140125C561C46080F83040456102
:10192000FEF7B8FE08B1FEF70EFE1020CDE9000567
:10193000694602940448FEF707FE002801D0FEF72E
:1019400002FE7FBD00200140D00000200100000FFA
:101950000F4810B50D4901600321416000214FF48B
:1019600010228160C0E903124FF400124261017637
:1019700041768176C17601774177FEF7C9FE00286E
:1019800003D0BDE81040FEF7DEBD10BD006400408E
:101990001801002000B587B01C2206496846FEF7F2
:1019A000A0FC0021684600F0F3FF0349086007B07F
:1019B00000BD0000A8360008440000202DE9F041D9
:1019C00086B014216846FEF7A5FC2E480024016865
:1019D00041F080010160016801F08001059101681A
:1019E00041F001010160016801F001010591016808
:1019F00041F004010160016801F0040105910168F2
:101A000041F00201016000681F4F00F002000590E4
:101A1000002203213846FFF754F8DFF870800022D7
:101A200030214046FFF74DF8032501260095CDE90A
:101A30000164694638460394FEF760FF3020009049
:101A4000CDE90164694640460394FEF757FF10480C
:101A50000095CDE9010469460E48FEF74FFF0022CC
:101A600005210620FFF7A4F80620FFF793F80022CF
:101A700005210720FFF79CF80720FFF78BF806B039
:101A8000BDE8F0813038024000000240000802400A
:101A90000000111000040240104810B50E4901600A
:101AA0004FF48271416000218160C1604FF4007287
:101AB0000161C0E905122022C0E90721416281626B
:101AC0000A21C162FFF743FB002803D0BDE81040A4
:101AD000FEF739BD10BD0000003001409403002026
:101AE0000C4810B50A4901604FF4E1314160002112
:101AF00081600C22C160C0E904128161C161FFF7FD
:101B000081FE002803D0BDE81040FEF71CBD10BDCB
:101B100000100140EC030020FEE77047F8B50446D2
:101B200040684FF48273984221D1A0684FF48065D9
:101B3000B0F5004F01D0A8420AD12068066826F00F
:101B4000400606606068984211D1A068A8420ED095
:101B500000920B4600228021204600F039F8002830
:101B600004D0606D40F0200060650320F8BD009255
:101B70000B4600220121EFE738B504461248134B0B
:101B80000068B0FBF3F04FF47A735843009060683C
:101B9000B0F5827F0DD10B460092002280212046B5
:101BA00000F016F870B1606D40F020006065032011
:101BB00038BD009830B1401E009020688068C04356
:101BC0000006F6D5002038BD5800002000366E0112
:101BD0002DE9F0411D4617460E460446DDF81880F3
:101BE00008E0681C06D0FEF771FFA0EB0800A842D1
:101BF0000BD255B12068806836EA000030D0002052
:101C0000B842EED10020BDE8F0812068416821F0A3
:101C1000E00141606068B0F5827F0BD1A068B0F54B
:101C2000004F02D0B0F5806F04D12068016821F028
:101C300040010160A06AB0F5005F09D12068016829
:101C400021F4005101602068016841F400510160F5
:101C5000012084F85100002084F850000320D2E7CE
:101C60000120CDE7012000F087FEFBE710B5FEF76D
:101C700033FF01F045FC012803D0BDE8104001F01E
:101C8000D1BB10BD30B593B030216846FEF742FBA2
:101C900014210CA8FEF73EFB1A480025016841F00C
:101CA00080510160006800F0805011901648016872
:101CB00041F4804101600068022400F480401190EA
:101CC00001200090000401908001CDE906400C2025
:101CD00008904FF4A870CDE9090404200B906846E1
:101CE000FFF784F80CA90F2081E831004FF4A050D1
:101CF0000F90E002109005210CA8FEF78BFF13B0A7
:101D000030BD0000403802400070004005480168C6
:101D100041F47001016003494FF0006080390860B0
:101D20007047000088ED00E010B5806B0021C18590
:101D3000C184FFF7DCFC10BD0168CA6822F4907210
:101D4000CA6001684A6922F001024A61202180F8D4
:101D50003A10704710B590F83A10222901D00220AD
:101D600010BD8168B1F5805F11D00169002901685B
:101D70001FD0496801F07F03816A4A1C82620B70A0
:101D8000C18D491E0904090CC18518D02BE00269D8
:101D9000816A002A0268526805D0D2B20A80816A3C
:101DA000491C8162ECE7C2F308020A80816A891C3F
:101DB000F7E74A68816A4B1C83620A70E0E70168B2
:101DC000CA6822F02002CA600168CA6822F48072E0
:101DD000CA6001684A6922F001024A61202180F844
:101DE0003A10FFF77FFD002010BD00002DE9F04103
:101DF000044600680169E26821F440511143016121
:101E00002169A068E26908436169114308432168B8
:101E1000CA6849F20C639A430243CA602068416968
:101E2000A26921F4407111434161E06919276425D9
:101E30003226B0F5004F354A354920684FF000088A
:101E400006D0884201D0904236D1FEF78DFF35E0B2
:101E5000884201D0904202D1FEF786FF01E0FEF7F2
:101E600073FF61684A18A0FB070148EB0803FEF7FF
:101E700007FA0146B0FBF5F00201B1FBF5F06FF097
:101E80001803584301EB800006EBC000B0FBF5F0EF
:101E900000F0F80002EB4002B1FBF5F0584301EB13
:101EA000800006EBC000B0FBF5F000F007002168F1
:101EB00010448860BDE8F081FEF746FF61688B0F33
:101EC0008A00A0FB0701FEF7DBF90146B0FBF5F045
:101ED0006FF01802504301EB800006EB0010B0FBDE
:101EE000F5F000F0F002B1FBF5F002EB0012B1FBEF
:101EF000F5F06FF01803584301EB800006EB00107B
:101F0000B0FBF5F000F00F00D1E700000014014035
:101F10000010014090F83910212901D002207047AB
:101F20008168B1F5805F016A0BD04A1C02620268C9
:101F300009785160C18C491E0904090CC1840ED076
:101F400017E009880268C1F308015160016900299E
:101F5000016A02D0491C0162ECE7891CFBE70168B9
:101F6000CA6822F08002CA600068C16841F040017E
:101F7000C1600020704700000148FFF7B9BB0000B6
:101F8000EC030020FEE70907090E002804DB00F13E
:101F9000E02080F80014704700F00F0000F1E0200E
:101FA00080F8141D704702E008C8121F08C1002AFB
:101FB000FAD170477047002001E001C1121F002ACA
:101FC000FBD1704710B5044600F0CAFC002806D1CA
:101FD0000348E0612046BDE8104000F00ABA10BD99
:101FE000DC36000838B505460C46084600F0B8FC5B
:101FF000002825D1EDB20220012D22D0022D06D0DD
:10200000032D09D10C2161752075012002E00B21FF
:102010006175207560762076204600F03DF9002835
:102020000ED1204600F000FB002809D105F0030086
:10203000ADF80000234601226946022000F064FA50
:1020400038BD0A21617520750320E3E77CB504469D
:102050000D461646104600F083FC58BB54B34DB3F2
:102060001E2033460422694600F04EF8002820D195
:1020700027203346022201A900F046F8002818D193
:102080009DF800009DF8011040EA012020809DF895
:1020900002009DF8031040EA012060809DF80410C2
:1020A0009DF8050041EA0020A0803146284600F056
:1020B00063FA7CBD4FF0FF307CBD10B5044600F0E4
:1020C0003EF8002804D12046BDE8104000F07DBA5B
:1020D00010BD70B50D46044600F059F8002812D125
:1020E0002946E01C00F053F800280CD12946A01D19
:1020F00000F084FA002806D1294604F10900BDE861
:10210000704000F07BBA70BD2DE9F04107461446DF
:102110000D461E46184600F00BFC68B965B13CB18F
:102120003346224629463846BDE8F04100F01ABB46
:102130006FF00600BDE8F0814FF0FF30FAE738B5E8
:10214000002504468DF8005000F0F2FB002810D165
:10215000207C01280ED065742346012269460020A8
:1021600000F000FB002804D19DF800101E290CD0BF
:10217000C01E38BD01206074024623466946002017
:1021800000F0F0FA0028E7D038BD217038BDF8B56E
:1021900005460E46084600F0CBFB002879D1002DFD
:1021A00077D0687800277C1F38B101282FD002280B
:1021B00041D003284AD0E01EF8BD8DF800703346A8
:1021C00001226946582000F0CDFA0028F4D1A87801
:1021D0002978C0F3800011B1012942D104E09DF8B3
:1021E000001060F3820103E09DF8001060F3861197
:1021F0008DF800103146284600F080FE0028DBD123
:10220000334601226946582000F0BAFEF8BD304638
:1022100000F08EFB0028F9D18DF80070287810B1FD
:1022200001281ED101E0562000E05720A978490777
:1022300022D501211EE0304600F07AFB0028E5D1CE
:1022400031462846BDE8F84000F058BE304600F060
:102250006FFB0028DAD18DF80070287818B10128BA
:1022600003D02046F8BD562000E05720A978490742
:1022700002D502218DF8001033460122694600F094
:102280007FFE0028EED13146284600F037FEF8BD2B
:10229000FFE74FF0FF30FAE72DE9F84F0546002041
:1022A0000446804607460090284600F041FB00287F
:1022B00017D16E7D95F8149095F813A0701F08281B
:1022C00000D30124B9F1020F01D94FF00108BAF18E
:1022D000030F00D9012744EA08043C4303D06FF000
:1022E0000700BDE8F88F2B4602226946402000F027
:1022F00039FA0028F5D19DF800002B4666F303005B
:1023000069F306108DF800009DF8011002226AF3AF
:1023100001018DF801106946402000F031FEE0E730
:1023200038B5054600F004FB040025D1A97C19B19D
:10233000032905D0441F1FE08DF80000042002E0AF
:1023400003218DF800108DF801002B46012269460B
:102350007C2000F015FE04000ED1E96A05208847B4
:102360002B4601227D200DF1010100F009FE040041
:1023700002D1E96A05208847204638BD2DE9F041A1
:10238000074614460D461E46184600F0D1FA68B9B5
:1023900065B13CB13346224629463846BDE8F04196
:1023A00000F0EEBD6FF00600BDE8F0814FF0FF30A9
:1023B000FAE738B5054600F0BBFA040017D1B6209D
:1023C0008DF800002B46012269467E2000F0D8FDE2
:1023D00004000CD1E96A01208847287C012806D135
:1023E0002B4601226946002000F0BCF90446204635
:1023F00038BDF0B5054685B000208DF800008DF899
:10240000040006468DF80800284600F091FA0028DE
:1024100075D1E869002872D095F8200000286BD0AB
:102420002B46012201A97D2000F09CF9002869D1EA
:102430002B46012269467D2000F0A2FD002861D1D3
:10244000E96A052088472B4601226946592000F099
:1024500097FD040055D14FF4C057E8692B46841905
:1024600070098DF80C00C6F343008DF810000122AE
:1024700004A95B2000F084FD68B92B46012203A962
:102480005C2000F07DFD30B995F820202B462146D8
:102490005E2000F075FD044695F82000304486B2B9
:1024A000BE42DAD32CBB01208DF8000002462B4639
:1024B0006946592000F064FD80B9E96A9620884792
:1024C0002B46012202A92A2000F04CF930B99DF8D0
:1024D0000800012802D06FF0050412E02B4601220B
:1024E00001A97D2000F04CFD04000AD1E96A052015
:1024F000884706E003E0FFE76FF0060401E04FF0D5
:10250000FF34204605B0F0BD2DE9F047814617465F
:1025100088469A46184600F00BFA044609EB070075
:102520004600304600F0CEF90546FCB90146534658
:1025300032465E20FFF7E8FD041E0ED016E000BF15
:1025400009EB000118F8102005F8112038F81020C8
:1025500005EB4101120A4A70401CB842F0DB5346B9
:10256000324629465E20FFF709FF0446284600F060
:10257000D1F82046BDE8F0877CB504460D460846F4
:1025800000F0E2F9F0B9ECB12B46062269460220D0
:1025900000F017F9002814D19DF800109DF80120D3
:1025A00041EA022121809DF802209DF8031042EAB1
:1025B000012161809DF804109DF8052041EA022167
:1025C000A1807CBD4FF0FF307CBD38B504460020B3
:1025D0008DF80000204600F0B7F900280BD1234603
:1025E0000122694600F0EDF8002804D19DF80010A2
:1025F0000F2901D0C01E38BD617038BD70B50446CA
:102600000D46084600F0A0F958B954B1607810B1F1
:102610006FF0070070BD29462046BDE8704000F00D
:1026200005BC4FF0FF3070BD2DE9F8430027804610
:102630003C4600F089F900280ED198F8196098F806
:1026400017504046072E00D90124042D00D9012738
:102650003C4303D06FF00700BDE8F8830346012236
:102660006946102000F0ADF80028F5D19DF8000073
:10267000434666F303008DF80000012269461020EE
:1026800000F092FC0028E7D14346012269460F2062
:1026900000F097F80028DFD19DF80000434665F36D
:1026A00002008DF80000012269460F2000F07CFC3A
:1026B000D2E77FB50546012600F046F9040026D191
:1026C0002B46012202A9112000F07BF804001ED144
:1026D000A87D8DF80000802804D19DF808102029DD
:1026E00000D10026202803D19DF8080080280CD0B6
:1026F0005EB12B4601226946112000F055FC040012
:1027000005D1E96A1E20884701E06FF0040404B097
:10271000204670BD10B5002821D0114B0022001FAB
:10272000196803E0814203D80A4649680029F9D1B3
:1027300052B11368841A9C4204D100681844106096
:10274000104602E0506000E0186039B102680B1AD0
:10275000934203D10B681A4402604968416010BD7E
:10276000BC0000202DE9F8438046587C16463044D2
:1027700087B21C468946384600F0A4F80546207CFE
:10278000012801D148F080080097676AA1892B468B
:1027900042466068B84740B16FF0010004462846E1
:1027A000FFF7B8FF2046BDE8F883002106E0627C11
:1027B0006B18D35C09F80130491C89B2B142F6D3D9
:1027C000ECE7F8B51C7C012C01D140F080000092B0
:1027D0009D68DE895C6A0B46024631462846A04762
:1027E000002801D06FF00100F8BD0000FEF77CF971
:1027F000FFF748FAFFF7E2F8FFF778F8FFF7A8F8D5
:10280000FFF74AF9FFF76CF92948FFF756FC284C07
:10281000083C60702648FFF7CCFD254E60702020F4
:1028200086F820000025B5743046FFF779FD60700A
:10283000B5753046FFF73DFF3046FFF7C3FB6070CC
:10284000F5742146F5750320087008312068FFF7FC
:10285000C9FB60701748022101260570417081781C
:1028600021F0020141F005018170C67006714179C5
:1028700021F0020141F0050141718571C571017AB4
:1028800021F0020141F00501017246728572C17AA0
:1028900021F0060141F00101C1720549FFF719FC61
:1028A00060706660FFF776F800F06DF8FEE70000F4
:1028B00008000020C400002001460020842900D028
:1028C000C81C7047F0B50B30154D20F007010024EF
:1028D000144A0FE003688B420BD38B4205D95E1A72
:1028E00043184768C3E9006700E04368136002C00B
:1028F00004E0021D10680028ECD12046002802D117
:10290000286808B10020F0BD064A07481060074A51
:10291000121A22F00702C0E9002401202860D7E73C
:10292000C0000020BC0000202441002020430020E3
:1029300038B1416A29B1816A19B1C06A08B1002071
:1029400070474FF0FF30704738B1416A29B1816A52
:1029500019B1C06A08B1002070474FF0FF307047CE
:1029600038B1416A29B1816A19B1C06A08B1002041
:1029700070474FF0FF30704710B500B9012000F0EC
:1029800045FC002010BD10B500F066FC002010BD15
:102990007FB50D4604464169B0F9080081B1A169CF
:1029A00071B1FFF789FFD4E905128DE80700D4E97A
:1029B00000102B46226900F078FD039004B070BD32
:1029C000FFF77AFF03A9CDE90001208A2B4682B2E6
:1029D000D4E9001000F03CFD012801D00020EDE713
:1029E0000398EBE72DE9F041184C0F460546666960
:1029F0002068001D00F046FB38B9206890F82C10C4
:102A000001208840A1698143A161681C07D137B1C9
:102A10002168BDE8F0410E48091D00F077BB206831
:102A20003544B5424560216805D2A068BDE8F04153
:102A3000091D00F053BB6068091D00F04FFB206BBF
:102A4000854200D22563BDE8F08100005C000020D3
:102A5000080500202DE9F041054600F063FB2E4CEF
:102A60002069401C206120682C4F10B1E06940B300
:102A70002DE025602069012829D1002606EB86007B
:102A800007EB800000F01CFB761C072EF6D32348D2
:102A90008C3000F015FB2148A03000F011FB1F48DE
:102AA000B43000F00DFB1D48C83000F009FB1B4896
:102AB000DC3000F005FB19488C3060601430A060F9
:102AC00005E02068E96AC06A884200D82560E06AAB
:102AD000401CE062E96A0120A26988401043A061BD
:102AE00001EB810007EB8000291D00F00FFB00F0D7
:102AF00039FBE06900280CD02068E96AC06A884286
:102B000007D207494FF080500860BFF34F8FBFF3E3
:102B10006F8FBDE8F08100005C0000202C040020D5
:102B200004ED00E010B5044690F8510058B10128BA
:102B30000CD002280FD0502080F31188BFF34F8FA4
:102B4000BFF36F8FFEE7206B00F020FB2046BDE84F
:102B5000104000F01BBB10BD10484FF470514207ED
:102B600006D0C01D0D4920F00700411AC1F5705173
:102B70000B4A00230144C2E900030839103A21F04E
:102B8000070111604B600B600B1AC0E900139360E2
:102B90004FF000405360D060704700001C050020DB
:102BA000A8000020144E154CA6F1C8074FF080581D
:102BB000DFF84C9012E000BF00F0B4FAF068C5688E
:102BC000281D00F05FFA2069401E2061E068401E69
:102BD000E06000F0C7FA2846FFF7A4FFE06800288D
:102BE000EAD138680128F9D9C9F80080BFF34F8FBE
:102BF000BFF36F8FF2E70000F40400205C000020B8
:102C000004ED00E02DE9F0479A46DDE909848146AC
:102C10006FF00303206B03EB82021044089D20F049
:102C20000706700707D0502080F31188BFF34F8F3D
:102C3000BFF36F8FFEE723180A5C83F834200A5C29
:102C400012B1401C1028F6D3002784F84370072DDA
:102C500000D30625E562C4E91157201D00F03BFAB8
:102C600004F1180000F037FA2461C5F1070064622E
:102C7000A061E76484F8507052464946304600F03F
:102C8000BFF82060B8F1000F01D0C8F80040BDE8DF
:102C9000F087000030B5114900E011460A68824211
:102CA000FBD34B685C18844203D1406818444860E9
:102CB000084643681C18944209D1084C103C24680B
:102CC000A24209D052681A4442600A68126802603F
:102CD000814200D0086030BD0460F9E7A800002000
:102CE00006484168096829B14168C968C9684968E6
:102CF000016370474FF0FF31FAE700005C000020ED
:102D000008484068401C4FF0500080F3118804D000
:102D1000BFF34F8FBFF36F8FFEE7BFF34F8FBFF34C
:102D20006F8FFEE7B00000202DE9F0410546002737
:102D300000F0C8FA314E306808B9FFF70DFFF068AF
:102D400005424BD1C5B3083568070ED005F0070022
:102D5000C0F108000544680707D0502080F31188AF
:102D6000BFF34F8FBFF36F8FFEE72DB370688542BF
:102D700034D82248103001460C6801E020460C4649
:102D80006168A94202D221680029F7D131688C42DA
:102D900024D007682168016060680837411B10294A
:102DA0000FD96019420708D0502080F31188BFF373
:102DB0004F8FBFF36F8FFEE710E041606560FFF754
:102DC00069FF61687068401A7060B268904200D212
:102DD000B060F06801430020C4E9000100F002FC8B
:102DE000780707D0502080F31188BFF34F8FBFF3CF
:102DF0006F8FFEE73846BDE8F081000098000020A4
:102E000010B5031F4FF080741C601B1F21F00101DF
:102E10001960191F044B0B6014390A60091F6FF009
:102E2000020244380A6010BD012D00087CB504463A
:102E30000D4600260B460122694618200096FFF732
:102E4000C0FC002807D1A0782178C0F3800019B118
:102E5000012906D0701F7CBD9DF8001060F30001B1
:102E600003E09DF8001060F3C711C8B28DF80010A0
:102E700010F0810F03D080208DF8010001E08DF863
:102E800001602B4601226946182000F08DF80028C9
:102E9000E1D12B46012201A91620FFF792FC18BBB5
:102EA000207810B1012819D10BE0A0789DF804100A
:102EB00060F3000121F00201C0F3400041EA40004C
:102EC0000AE0A0789DF8041060F3820121F0080167
:102ED000C0F3400041EAC0008DF804002B460122F7
:102EE00001A9162000F060F80028B4D12B46012279
:102EF00015200DF1010100F057F87CBDF8B504462E
:102F000000780E4620B1012804D06FF00400F8BD0F
:102F1000532500E054250B46012269462846FFF759
:102F200021FC0028F3D1A2789DF80000C2F34001F3
:102F300062F3410020F0040040EA81008DF80000B7
:102F40006178022911D020F00800C2F3800140EA24
:102F5000C10020F0100000BF8DF8000033460122B0
:102F60006946284600F00CF8F8BD20F0100040F04B
:102F70000100C2F3800140EA011020F00800EBE7F5
:102F8000F8B51C7C012C01D100F07F0000925D6837
:102F90009E899C6A0B46024631462846A047002877
:102FA00001D06FF00100F8BDF8B51C7C012C01D1F7
:102FB00000F07F0000929D68DE899C6A0B46024605
:102FC00031462846A047002801D06FF00100F8BD27
:102FD0002DE9FF4106469DF808001F4640F080009D
:102FE0008DF808000D460A9C00223046FDF769FD69
:102FF0003223012202A90948FEF7C6F932232246EC
:1030000039460648FEF718F9012229463046FDF7F1
:1030100058FD04B00020BDE8F081000094030020BA
:103020002DE9FF4107469DF808001C4600F07F008F
:103030008DF808000E460A9D00223846FDF741FD36
:103040003223012202A90E48FEF79EF90C48FEF732
:103050007BF80228FAD032232A4621460848FEF798
:1030600093F90748FEF770F80228FAD0012231469A
:103070003846FDF726FD04B00020BDE8F0810000D1
:1030800094030020D0E9013201699A60D0E901235C
:103090005A604A68824201D182684A600022026115
:1030A0000868401E0860086870470000034B036012
:1030B00003F1540008608020106070474001002038
:1030C00000F108014FF0FF32C0E90112C160016157
:1030D00000210160704700210161704730B50B6825
:1030E0005A1C02D000F1080202E0026904E0224604
:1030F000546825689D42FAD953684B6099608A608C
:10310000516008610168491C016030BD42684A6035
:1031100093688B6093685960916008610168491CED
:1031200001607047502080F31188BFF34F8FBFF3C9
:103130006F8F0A494868401C486001280CD1084834
:10314000006810F0FF0F07D0502080F31188BFF304
:103150004F8FBFF36F8FFEE770470000B000002075
:1031600004ED00E00849486828B1401E486001D1DC
:1031700080F311887047502080F31188BFF34F8F80
:10318000BFF36F8FFEE70000B000002070B500288D
:1031900027D0144DA0F108046168E868014207D106
:1031A000502080F31188BFF34F8FBFF36F8FFEE77E
:1031B00022683AB1502080F31188BFF34F8FBFF3DC
:1031C0006F8FFEE78143616000F07CF8606869689A
:1031D000084468602046FFF75DFDBDE8704000F0E0
:1031E00001BA70BD980000204FF0E020002101617D
:1031F000816105494FF47A720968B1FBF2F1491E09
:1032000041610721016170475800002010B502009C
:1032100014D00F48806B38B1502080F31188BFF371
:103220004F8FBFF36F8FFEE700F04CF80021104680
:10323000FFF7D8FB00F0D6F9002807D105494FF079
:1032400080500860BFF34F8FBFF36F8F10BD000039
:103250005C00002004ED00E010B586B0002403946B
:1032600005AA04A903A80494FFF720FFDDE90301E0
:103270000094CDE9011000230EA11048059A00F03A
:1032800014F90F490028486311D0502080F31188A9
:10329000BFF34F8FBFF36F8F4FF0FF3008630120F4
:1032A000C8614C6106B0BDE8104000F041B806B0FE
:1032B00010BD000049444C4500000000A52B00084B
:1032C0005C0000200248816B491C8163704700004C
:1032D0005C0000201448816B11B1012141627047EC
:1032E000002141628169B1FA81F1C1F11F0101EB55
:1032F00081020E4951F822306BB101EB820101F1DC
:1033000008034A6852684A609A4201D152684A608A
:10331000D16801607047502080F31188BFF34F8F50
:10332000BFF36F8FFEE700005C0000202C0400203C
:103330001CB537480168374A914207D1502080F3C5
:103340001188BFF34F8FBFF36F8FFEE700683149DD
:10335000491E884207D1502080F31188BFF34F8F58
:10336000BFF36F8FFEE72C4908780190FF200870AB
:1033700008788DF800009DF800009DF8002000F00E
:10338000F000904207D0502080F31188BFF34F8F98
:10339000BFF36F8FFEE79DF80000204B00F0500058
:1033A00018700720986005E09DF8002052008DF805
:1033B0000020401E9DF800201206F5D498600328D6
:1033C00007D0502080F31188BFF34F8FBFF36F8F6A
:1033D000FEE74FF440709860019808700C48203068
:1033E000016841F470010160016841F070410160C1
:1033F000FFF7FAFE00205860FCF7F4FE0848016869
:1034000041F040410160FCF7D9FE00201CBD0000E6
:1034100000ED00E071C20F4100E400E0B0000020C8
:1034200034EF00E010B5502080F31188BFF34F8FC8
:10343000BFF36F8F00F072F818B104494FF080505D
:103440000860002080F3118810BD000004ED00E04A
:103450002DE9FF5F8346DDE90E87994616468A46C9
:103460009000FFF761FC05001CD05420FFF75CFCC6
:10347000040014D00020256384F85100CDE90240F7
:10348000CDE900874B46324651465846FFF7BAFB16
:103490002046FFF7DFFA012004B0BDE8F09F284680
:1034A000FFF774FE4FF0FF30F6E7F0B585B0DDE9C9
:1034B0000B640A9DA6B1DCB154270097266302264F
:1034C00084F85160002604AFCDE90246CDE90057EB
:1034D000FFF798FB2046FFF7BDFA049805B0F0BD52
:1034E000502080F31188BFF34F8FBFF36F8FFEE73B
:1034F000502080F31188BFF34F8FBFF36F8FFEE72B
:103500000548C16919B1806B18B1002070470120CE
:1035100070470220704700005C0000202DE9F04158
:103520002E4C0027A06B40B1206A401C2062606ACC
:1035300000B101273846BDE8F0816669761C6661F6
:1035400013D16068006838B1502080F31188BFF350
:103550004F8FBFF36F8FFEE76068A1686160A06066
:10356000A06A401CA062FFF7BBFB206BDFF87080F5
:10357000864209D36068006880B16068C068C56829
:10358000686886420DD220632068C06A00EB800123
:1035900058F821000128CAD90127C8E74FF0FF30A9
:1035A000F1E7281DFFF76EFDA86A18B105F11800B4
:1035B000FFF768FDE86A0121A26981401143A1611A
:1035C00000EB800108EB8100291DFFF79FFDE86AF1
:1035D0002168C96A8842CDD30127CBE75C0000206F
:1035E0002C0400202DE9F0472C4D00242746A86B21
:1035F00038B1FFF797FDA86B401EA863A86B40B1D8
:1036000046E0502080F31188BFF34F8FBFF36F8FD8
:10361000FEE72969224E0120D1B3A6F1B409804604
:103620003068E8B1F068C46804F11800FFF72AFDBB
:10363000201DFFF727FDE06AAA6908FA00F111438F
:10364000A96100EB800109EB8100211DFFF75EFD00
:10365000E06A2968C96A8842E2D3C5F82480DFE7B6
:103660000CB1FFF73DFB2C6A44B14646FFF756FF0D
:1036700000B16E62641EF9D100202862686A38B118
:103680000849012738070860BFF34F8FBFF36F8FDA
:10369000FFF768FD3846BDE8F08700005C000020B9
:1036A000E004002004ED00E0DC4E0008651C00088A
:1036B000000000000000000080000000000000008A
:1036C00000000000000000000000000001020304F0
:1036D000060708090000000001020304C82E002E9E
:1036E000802E4701C82E002EC82E002EC82E002E78
:1036F000802EA000802E7C00802E11015039212EBA
:10370000B0F01030212E16F0802E90010000000045
:1037100000000000000000000000000000000000A9
:103720000000000000005ABE802E1800802E1800F5
:10373000802E1800802E1800802E1800802E180071
:10374000802E1800802E1800802E1800802E180061
:10375000802E1800802E1800802E1800802E180051
:10376000802E1800802E1800802E1800802E180041
:103770000000000000000000000000000000000049
:103780000000000000000000000000000000000039
:103790000000000000000000000000000000000029
:1037A0000000000000000000000000000000000019
:1037B0000000000000000000000000000000000009
:1037C00000000000000000000000000000000000F9
:1037D00000000000A050807FE77FD57FC47FB37FCB
:1037E000A27F917FF67F7B7F002E012E43F008BCE5
:1037F0000FB8607F002E606F00B2012F982ED9B1F4
:103800004030212EB8F0F66F916FA26FB36FC46F86
:10381000D56FE76F7B6F806F605FC82EA050807F91
:10382000E77FD57FC47FB37FA27F917FF67F7B7FC9
:10383000002E012E29F008BC0FB8607F002E606FAB
:1038400001901B2F012E02010EBC0EB80090052F17
:10385000012E04010FBC0FB801B20D2F012E630021
:103860000190042F982E6DB20030212E6300012E9E
:1038700037F0212E37F0022D982E45B38030212EBF
:10388000B8F0F66F916FA26FB36FC46FD56FE76F2B
:103890007B6F806F605FC82E4030212EBAF0B82E4B
:1038A0008030212EBAF010248000032E06F0080A82
:1038B000212E06F0003E032E06F008085130010AC2
:1038C000212E06F0B82E0031212EBAF0B82E10307D
:1038D000212EBBF0B82E802E1800FD2DAA00050069
:1038E0000000000004000100ED8FD931C6018C03F7
:1038F000C60100000E000E00100010001000605005
:10390000E77FF67F36300F2E01F0FEBFFEBBB70516
:10391000A67FD37FC47FB57F142489F03F8B0341FA
:103920004441B8BD9C0BA36F14241900B311438B01
:103930001643002E67414641F8BFBE0BB311164334
:10394000438D002EA5418641D8BE6E0BEB1003437C
:103950001330272E18000331272EB8F0F66FE76FCB
:10396000C46FB56FD36FA05FC82EA050807F917FCA
:10397000E77FD57FC47FB37FA27FF67F7B7F002E5A
:10398000012EB9F0607F1030616F080800B2012F7E
:10399000982EE6B01030212EB9F0212E5FF0F66F90
:1039A000916FA26FB36FC46FD56FE76F7B6F806F3E
:1039B000605FC82E982E9E012026982EDE00982E3D
:1039C000F900982EF500982EE2001030212E59F0C3
:1039D000982E9401213010241900002E002ED02E94
:1039E000052E180080B20230052F232E5FF0252E01
:1039F0001800982E00B0982E51B2EC2D1A242600F3
:103A0000802E6C011050012E55F0F07F002EF06FCB
:103A1000212E55F0F05FB82E20500030E07FFB7F64
:103A20001124B1F042404330930A4242588212249A
:103A3000AF0062421224FF0042426982723C43405E
:103A40009A088332930A42424282023F43409A08D4
:103A500052420B314B427E82123142421124FE000F
:103A6000052E40F051085E90272F112400021224E9
:103A700005801324FFB71B2400B0043005305632F4
:103A80006E1A002FA534691A012F5B25002E5641AE
:103A9000260D0630CFBB41BEC091012F002E012D57
:103AA000220D818D90A1F52FEB0EE82F012E250020
:103AB000201A052F2030E07F032D3030E07F002ECC
:103AC000E06F00B2032F212E59F0982E9401FB6F66
:103AD000E05FB82E802E1800802E1800B050F07FC6
:103AE000002E012E010102BC0FB8E07F002E012E36
:103AF000010101BC0FB8D07F002E012E01010FB8CB
:103B0000C07F0230E66FD46FC36F8091042F0091A5
:103B1000022FC0B2902EE2B0F06F0B2E2400018273
:103B20004091142F4187272E24000040212E1F0092
:103B30005340102420001342002E41400142252E04
:103B40001C00252E1D00252E2200505FB82E0B2EA6
:103B50000001D5BED5BAB57F002E0B2E0101D3BE14
:103B6000D3BAA57F002E0B2E0001D4BEDFBA957FFD
:103B7000002E956F0F2E1E003D1A052F252E1C00BE
:103B8000252E1D002B2E1E00827F727F8091627F6A
:103B9000012F0630072D06400F2E1F00B70580A904
:103BA000D605B723867F0091012F0430072D4440AE
:103BB0000D2E2000260500A994052623747FC090B1
:103BC000012F002E092D0286002EC340092E210050
:103BD000DC04C0A893049A22627F1230846FB36F12
:103BE000630F1430082F746F630F1430042F646F49
:103BF000630F1430002F0430547F40910B2E1C00B3
:103C0000546FA36F6A291D2F0091063014242000E1
:103C10000D2F2D2E1C00052E1D008184252E1D002C
:103C2000052E1D00530E2B2F2D2E2200292D2B2E5D
:103C30001C002D2E1D000B2E1C006B0E202F252E80
:103C400022001E2D00B3052F0230252E1C00252E2C
:103C50002200082D2B2E1C00092E1C00630E012FA4
:103C6000252E22000240252E1F003125002ED54092
:103C70001224200042259542002EC3408342002E8C
:103C8000052E220080B20D2F0040212E1F00504033
:103C90001043002E404000432030212E5EF0022DC4
:103CA000252E2400505FB82E3050FB7F982E23B273
:103CB00013244F00D042C142FA82D17FE37F982E75
:103CC0008DB1D16F002E414040B26D2FE16F448421
:103CD000032E4F008340B7844B048142002E834063
:103CE000C0AC012F232E4B001225934082401A0FA7
:103CF000012FC0AC022F0330272E4B004286C9840F
:103D0000C0404340180E8240252F12251224510036
:103D10008F808240E07F982E69B1E16F002E404293
:103D200077827B84B986D68041408240C340E07F61
:103D3000982E69B1E16F002E404277827B84B8866D
:103D4000D78041408240C340E07F982E69B1E16F47
:103D5000002E4042242D11245B0045804140E07F2D
:103D6000982E7BB1E16F002E40427C827B84B4862A
:103D7000D68041408240C340E07F982E7BB1E16F06
:103D8000002E40427C827B84B386D78041408240B3
:103D9000C340E07F982E7BB1E16F002E4042982E09
:103DA000C5B11130232E5EF0FB6FD05FB82E3050BE
:103DB000F37FE27FD17F13244E00D16FE46FE240A6
:103DC000F06F2105C340A21003041018D05F0E004D
:103DD000B82E3050F37FE27FD17F13244E00E16F85
:103DE000D46FE240F06F2105C340A21018041018F0
:103DF000D05F0E00B82E012E02018EBC012E4A00AB
:103E00009EB8011A2E2F012E02010EBC0EB8212ED3
:103E10004A00032E4A0043B210244D001B2F42B229
:103E2000112F41B2062F0130114201423E80002E77
:103E30000142B82E41331142613001423E801124CB
:103E400080000142B82E01301142513001423E80C3
:103E500041330142B82E71301142413001423E805F
:103E600081310142B82E10246000112452F012401A
:103E7000524228B55242002E124042424282004035
:103E8000504208B440427E80A8B40142B82E1224A9
:103E900059009040848220505042778082404242B4
:103EA000FB7F0582004040427C800582004040420A
:103EB0007C800582004040427784002E90408482BE
:103EC00082405042778042420582004040427C80DE
:103ED0000582004040427C800582004040427C8256
:103EE000E17F982E23B2E26F002E90428142BC8285
:103EF000102433F023400240B8BD9A0A0380524296
:103F0000002E23400240B8BD9A0A03805242002E80
:103F10002240004028BD100A4042002EFB6FE05FA7
:103F2000B82E112428F050506040F07F5125604099
:103F3000E07F002E4140D17F002EE26FD06F00B2B3
:103F4000F36FA8B828BE590A200A012FB05FB82E17
:103F50004541C57F002EC56F4091092F052E28F0E1
:103F6000B27F002EB26F1A1A072FF03F1325052DCE
:103F7000151A022F1024FF00200AB05FB82E012E60
:103F800003018FBC012E23009FB8011A122F012EAE
:103F900003010FBC0FB8212E23001130052E230082
:103FA0005108D23F012E07F0020891BC010A212ED0
:103FB00007F0B82EB82E105012246D0000301B2DC3
:103FC000F16FD100002EC042BD84D100002EC0424E
:103FD0008984D100002EC042BD84D100002EC04291
:103FE0008984D100002EC042BD84D100002EC04281
:103FF0004182F17FB784F16F42A2E12FF05FB82ECA
:10400000C050927FFB7F817F0030607F707F507F48
:10401000002E032E04019DBC9EB8417F002E426FEE
:10402000527FE27F002E836FC382D37F0C2D556FAA
:104030007F89DC019D01CB418B43CC014D01C74100
:104040004743547F002E546F00ABF02F9B6F8A00C4
:104050004B42C27FB17F507F7D80A07F1324080137
:104060003F2D506F1801C684C80050000541C7405D
:104070004440616F736F2F1800B30B2F10A1032FF3
:104080003089BC11CE17062D74130631B405BE1548
:10409000FC11AE0B4E00DF02617F737FB78401829B
:1040A000D1008680A26F11018100C3400541844088
:1040B0001D18726F00B3636F0B2F10A1032F30898F
:1040C000BC11CE17062D74130631B405BE15FC11B4
:1040D000AE0BDE049706637F727F517F3D86B16F22
:1040E000E26F506F420EBC2FE06FC682980048000E
:1040F000C06F834004404240616F706F80B21C18F3
:104100000B2F90A0032FB084BA11CE17062D0331C8
:10411000DA04FB143213FA11A30B4E000702617F7D
:10412000707F002E726F80A8606FD16F132F809008
:10413000032F1324FF7F430F0D2FBFA0072FBF9026
:10414000032F12240080420E012F4042072D10241D
:1041500000804042032D1024FF7F4042002EFB6F61
:10416000405F4040B82E1124630030501030504260
:10417000FB7F102433F023400240B8BD9A0A03802D
:104180005242002E23400240B8BD9A0A0380524298
:10419000002E23400240B8BD9A0A3C8042427E84F1
:1041A000E07F8682D17F002E8240982E92B2D16F1E
:1041B0007D82002E40427E800B820240D17F982E6D
:1041C00092B2D16F7882002E40427E8010820240EF
:1041D000D17F982E92B2D16F7382002E40427E80A2
:1041E000E16F1240524228B55242002E1240524214
:1041F00028B55242002E0040504208B44042002EE2
:10420000FB6FD05FB82E802E1800802E1800802EF5
:104210001800802E1800802E1800802E1800802E86
:104220001800802E1800802E1800802E1800802E76
:104230001800802E1800802E1800802E1800802E66
:104240001800802E1800802E1800802E1800802E56
:104ED0001800802E1800802E1800FD2D6465666174
:104EE000756C745461736B00084F0008000000205B
:104EF000C4000000A61F0008CC4F0008C40000201A
:104F00005C460000B61F0008000000000000000022
:104F100000000000000802400008024010002000CD
:104F20000100000000000000000000000000000080
:104F300000000000D12F000821300008BD08000843
:104F40000000000000000000000000000000000061
:104F50000000000001000000100000000000000040
:104F60000024F40000000000000000000000000029
:104F70000000000000000000000000000000000031
:104F80000000000000000000000000000000000021
:104F90000000000000000000000000000000000011
:104FA0000000000000000000000000000000000001
:104FB000000000000000000000000000AAAAAAAA49
:0C4FC000000000000000000000000000E5
:040000050800018965
:00000001FF
